:020000040001F9
:10F00000303A002015F401001DF401001FF4010046
:10F0100021F4010023F4010025F4010000000000A8
:10F0200000000000000000000000000027F40100C4
:10F0300029F40100000000002BF401002DF4010070
:10F04000A1F401002FF40100E1F701002FF4010009
:10F050002FF401002FF401002FF401002FF4010020
:10F060002FF401002FF401002FF401002FF4010010
:10F070002FF401002FF401002FF401002FF4010000
:10F080002FF40100F9F401002FF401002FF4010026
:10F090001DF501002FF4010021F501002FF40100FE
:10F0A0002FF401002FF401002FF401002FF40100D0
:10F0B0002FF401002FF40100000000000000000008
:10F0C0002FF401002FF401002FF401002FF40100B0
:10F0D0002FF401002FF401002FF4010000000000C4
:10F0E0000000000000000000000000000000000020
:10F0F0000000000000000000000000000000000010
:10F1000000000000000000000000000000000000FF
:10F1100000000000000000000000000000000000EF
:10F40000DFF80CD000F018F800480047B9FB010005
:10F41000303A00200648804706480047FEE7FEE7EE
:10F42000FEE7FEE7FEE7FEE7FEE7FEE7FEE7FEE7B4
:10F4300045F5010001F40100064C074D06E0E068C7
:10F4400040F0010394E8070098471034AC42F6D32B
:10F45000FFF7DAFFB4010200D401020000F01F023E
:10F46000012191404009800000F1E020C0F88012A5
:10F47000704700F01F02012191404009800000F117
:10F48000E020C0F80011704700F01F0201219140F8
:10F490004009800000F1E020C0F800127047000031
:10F4A0002DE9F0414FF48077384600F095FB0124B8
:10F4B000104EA50748B1384600F095FB0120C5F86D
:10F4C00008037470002000F001FA4FF48277384688
:10F4D00000F082FB00280BD0384600F084FB0220AD
:10F4E000C5F80803B470BDE8F041012000F0EEB9A2
:10F4F000BDE8F081F819002007480021C0F840114C
:10F50000C0F84411C0F84811C0F84C11C0F80011FF
:10F51000C0F8041100F0E2BC0010014000F07ABC19
:10F52000074810B5406830B18047002807D0BDE8D3
:10F53000104000F085B9BDE8104000F051BA10BD90
:10F54000E0190020F0B598480023021D017801253C
:10F55000101D4FF08056062907D11478240704D1D6
:10F560000478C4F30314032C02D0062904D00FE05E
:10F570008F4F8E4C7C670EE01478240708D10478F6
:10F58000C4F30314032C06D0042C04D0052C02D0A1
:10F59000062907D00EE0D6F84442864FC4F3423421
:10F5A0003C6002E01478240704D10478C4F3031407
:10F5B000032C02D0062906D011E07F4C276827F0E3
:10F5C000807727600EE01478240708D10478C4F30C
:10F5D0000314032C06D0042C04D0052C02D00629D9
:10F5E0000AD011E04FF08044C4F80C31C4F8103157
:10F5F000704C241F236002E01478240704D104789F
:10F60000C4F30314032C02D0062905D00CE0694F83
:10F61000032464373C600AE01478240704D104789A
:10F62000C4F30314032C02D006290DD014E0634F59
:10F6300005243C60614C78342560604C08342360BC
:10F640003F243F1D3C6002E01478240704D1047875
:10F65000C4F30314052C02D0062957D068E058499A
:10F660000968584A11605649091D0968121D116040
:10F67000534908310968121D116051490C3109685C
:10F68000121D11604E4910310968121D11604C495C
:10F6900014310968121D1160494918310968494A35
:10F6A0002032116046491C310968121D116044491D
:10F6B00020310968121D1160414924310968121D69
:10F6C00011603F4928310968121D11603C492C31F5
:10F6D0000968121D11603A4930310968394A4032CF
:10F6E0001160374934310968121D116034493831CD
:10F6F0000968121D116032493C310968121D116000
:10F700002F4940310968121D116002E01178090784
:10F710000ED10078C0F30310032803D0042801D0D1
:10F72000052805D1D6F85802274900F04F00086097
:10F7300021487438016841F470010160BFF34F8FB4
:10F74000BFF36F8F4FF01021D1F80002002803DBC8
:10F75000D1F80402002822DA1C4A15601C4804680B
:10F76000002CFCD01524C1F800420568002DFCD007
:10F77000C1F8044201680029FCD013600168002927
:10F78000FCD0BFF34F8F0C48F0380168114A01F4E8
:10F79000E06111430160BFF34F8F00BFFDE70F49E8
:10F7A0000D480860F0BD0000E00F00F00DF0ADBAAC
:10F7B00000C007403C050040FCED00E01056004052
:10F7C0000404001020C50040E40E004004E50140A0
:10F7D00000E401400400FA050090D003F419002071
:10F7E0000448017F04480029024901D000F065BCAB
:10F7F00000F0D4BB0C1A00200020004002E008C832
:10F80000121F08C1002AFAD170477047002001E09A
:10F8100001C1121F002AFBD170470000BFF34F8FB8
:10F8200005480168054A01F4E06111430160BFF336
:10F830004F8F00BFFDE700000CED00E00400FA056B
:10F840000EB500210091CDE901106A4644F2010095
:10F85000FFF7E4FF0EBD000007490B5C4FF0A0412D
:10F86000D1F804250120984020EA0203C1F80835A8
:10F870001040C1F80C057047AA0102000249085C5B
:10F88000012100F05CBA0000AA0102007CB500244E
:10F89000084E25460122305D009500231146019552
:10F8A00000F03BFA641C042CF4D3BDE87C4000F06B
:10F8B00003B80000AA01020010B500242046FFF79B
:10F8C000DDFF641C042CF9D310BD000070B5084C9A
:10F8D000050009D010342168002907D0086820608D
:10F8E000496828468847F6E70834F4E770BD000009
:10F8F000F81900202DE9F05F26484168F1B3DFF8E0
:10F9000098B00E688146DBF8004087688078E11B7C
:10F9100021F07F45ED1CB0B9DFF880804FF48030D6
:10F92000C8F84403C8F804031120FFF797FD11201D
:10F93000FFF79FFD4FF0010AC8F800A02F2000F04C
:10F94000A1F989F802A0B54200D23546124BE81958
:10F950003C3320F07F401860DBF800105A46091B4A
:10F9600021F07F41001B20F07F40C91C81420FD94C
:10F97000106818602F2000F085F900E004E0BDE871
:10F98000F05F1120FFF780BDBDE8F05F00F0FEB929
:10F99000BDE8F09FC019002004150140001001408F
:10F9A0000E4910B50A784C780023A24212D0521C9E
:10F9B000D2B20A70022A00D10B70084A0B781832B2
:10F9C00052F8232002608868104420F07F4088604D
:10F9D000012010BD0360002010BD0000C0190020F0
:10F9E000F8B51C4C2078002832D0E068002658B1C9
:10F9F0000025607800282BD1684648DF052805D00F
:10FA000030B1FFF71DFF0AE00125F2E7012606E00D
:10FA1000009800F07DF9216909B1009888479DB9E7
:10FA20006078002814D16088ADF800006946A068AD
:10FA300061DF052803D020B1FFF702FF04E00125B4
:10FA400002E0D4E902018847002ED2D0002DE6D092
:10FA5000F8BD0000E01900202DE9F043264CA4F188
:10FA600010092278D9F8048099F80350404694F898
:10FA700001C0D9F8086031E002EB42036168521C12
:10FA800001EBC301A378D2B2934200D100220B78DC
:10FA9000022B02D0032B21D11DE003464F681946EB
:10FAA00003E0B94203D00B46C969B9B1F9E7A9B17E
:10FAB0008B4205D1C06918B9104E0125B5600026EA
:10FAC0000F68C969D96149B10B683B440B6005E017
:10FAD0000174C06900E000210028F9D19445CBD120
:10FAE000C9E9010689F80350404502D00120BDE86C
:10FAF000F0830020FBE70000D01900200010014037
:10FB00002DE9F0412A4F0446002607F11005D7F8E9
:10FB100004803EE002D02046E4691DE02878696850
:10FB200000EB4002401CC0B201EBC2012870AA7871
:10FB3000904200D12E700A784868012A2BD1027CAD
:10FB40004ABB8A684260CA6882600A69C2604969C1
:10FB50008161F97801B146604368BA68DFF854C042
:10FB6000991A21F07F41614502D28268114406E072
:10FB7000D11A826821F07F418A4202D9511A01606C
:10FB800000E006604660012186600174C66100F0F5
:10FB900087F9002CBED1287869788842BED179686F
:10FBA000414502D00120BDE8F0810020FBE70000C4
:10FBB000C0190020FFFF7F00FFF768FE054D0024FD
:10FBC0002046FFF749FE284600F016F8641C042C76
:10FBD000F6DBF4E720A1070000F180400068002870
:10FBE00000D00120704708B500F18040002101607D
:10FBF0000068009008BD000000283ED01F49204A40
:10FC0000096800BF00BF00BF00BF00BF00BF00BF4A
:10FC100000BF91422FD000BF00BF00BF00BF00BF98
:10FC200000BF00BF00BF00BF00BF00BF00BF00BFDC
:10FC300000BF00BF00BF00BF00BF00BF00BF00BFCC
:10FC400000BF00BF00BF00BF00BF00BF00BF00BFBC
:10FC500000BF00BF00BF00BF00BF00BF00BF00BFAC
:10FC600000BF00BF00BF00BF00BF00BF00BF00BF9C
:10FC700000BF00BF00BF401EC3D17047F419002071
:10FC80000024F40000283ED01F49204A096800BF24
:10FC900000BF00BF00BF00BF00BF00BF00BF914258
:10FCA0002FD000BF00BF00BF00BF00BF00BF00BF1C
:10FCB00000BF00BF00BF00BF00BF00BF00BF00BF4C
:10FCC00000BF00BF00BF00BF00BF00BF00BF00BF3C
:10FCD00000BF00BF00BF00BF00BF00BF00BF00BF2C
:10FCE00000BF00BF00BF00BF00BF00BF00BF00BF1C
:10FCF00000BF00BF00BF00BF00BF00BF00BF00BF0C
:10FD000000BF401EC3D17047F41900200024F40046
:10FD1000002801D1FFF7DABD704770B541EA420112
:10FD2000DDE904564FF0A04441EA830141EA052190
:10FD300004EB800041EA0641C0F8001770BD0122C3
:10FD40004FF0A043824011B1C3F808257047C3F8B3
:10FD50000C2570474058002800D00120704708B596
:10FD6000002242504058009008BDD0F804030840DB
:10FD700000D0012070474058002800D00120704773
:10FD800008B5002242504058009008BD70B50126C9
:10FD900070044FF0E0210025C1F88001084C4010AC
:10FDA000C4F84803C4F8080366602F20FFF76AFF11
:10FDB000A660044C2F20A560FFF764FFA57070BDFE
:10FDC00000100140C019002070B50546C87D0C46E2
:10FDD00000284FF4847128460AD0FFF7C0FFD5F8F9
:10FDE0001805627EE1688854607E401C607670BDB4
:10FDF000FFF7B5FFD5F8180570BD1FB501238DF8C5
:10FE000000308DF808100192D0E900126846904742
:10FE10001FBD00002DE9F84F204C00256846D4E9AD
:10FE200001B6FFF7BDFD8046FFF716FE0746A9465F
:10FE3000B8F1000F25D00023009ACC46606819E085
:10FE400007680146974202D9BA1A026014E0C1F865
:10FE500000C0D1F80C80D21BC8693B448A46B8F177
:10FE6000000F07D0F71827F07F47C1E90178CAF8DB
:10FE70001C500D460028E3D160602846FFF740FE85
:10FE800004E02846FFF73CFE00B917B15846FFF7DB
:10FE900031FD84F80390BDE8F88F0000C019002000
:10FEA0000D4B10B5596831B102680C68A24204D8F4
:10FEB000A21A0A60C161586010BD0B4603E00B46F0
:10FEC000C969121B21B10C689442F8D3A41A0C60C2
:10FED0000260C161D86110BDC01900202DE9F04158
:10FEE0001D4D6C68002C35D01C4800270068A9689F
:10FEF000B846401A20F07F462068B04215D8224606
:10FF0000361A0744E469107C68B182F81080EB6807
:10FF100033B1D2E90501984728B1FFF791FC02E01F
:10FF2000D2E905108847002CE6D12978687881420B
:10FF300006D1401CC0B26870022801D185F801804A
:10FF400005486978183040F82170BDE8F041142068
:10FF5000FFF79ABABDE8F081C019002004150140EE
:10FF600070B50C4605464FF48E71FFF7F8FEA18A76
:10FF7000A068415CA08A401CA082C5F81C1570BD19
:10FF80001FB500228DF800208DF8081081680191BE
:10FF90008275D0E90012684690471FBD2DE9FF47E2
:10FFA0000C4605464FF40071FFF7DFFE01274FF4C2
:10FFB0000178002618B34FF4927949462846FFF796
:10FFC000C9FEE0B149462846FFF7C9FEC5F80883D7
:10FFD000A07E00B96F6002208DF80000D5F8800483
:10FFE000C5F880040390E07D8DF80800E06801907A
:10FFF000E6752676D4E900126846904727E004218A
:020000040002F8
:100000002846FFF7B2FE10B34FF484712846FFF77D
:10001000A1FEE0B121462846FFF7D6FEE07D617ED5
:10002000884214D1207E38B1617EE268E075206993
:10003000E0602676667607E0A07E00B96F60C5F8BE
:100040000883E675617EE2682046FFF7D6FE4FF42E
:100050008E7841462846FFF77DFE88B1A08AA17DB3
:10006000884204D221462846FFF77AFF08E041463D
:100070002846FFF774FEA17D11B12046FFF780FFEF
:100080004FF4A27841462846FFF764FE002812D0BC
:1000900041462846FFF763FEA07E00B12F60E07D59
:1000A000002808D0E675617EE26804B02046BDE80D
:1000B000F047FFF7A2BEBDE8FF872DE9FF410C46E0
:1000C0004FF4927705463946FFF755FE0026C0B13A
:1000D00039462846FFF754FE02208DF80000D5F877
:1000E0008004C5F880040390D5F83C058DF808001D
:1000F000E0680190E6752676D4E9001268469047DC
:1001000024E04FF4887739462846FFF734FEE8B1FB
:1001100039462846FFF734FED5F83C05C1B2E07DEC
:10012000884213D1207E60B1E268D5F8000220F049
:100130002000C5F80002207EE0752069E060267688
:1001400001E0E675E2682046FFF757FE4FF4A2771C
:1001500039462846FFF70FFE68B139462846FFF7B3
:100160000FFEE07D38B1E675D5F83C05E268C1B216
:100170002046FFF742FE4FF4907631462846FFF7BF
:10018000FAFD00280FD031462846FFF7F9FDA07D83
:10019000002808D0D5F84C0504B0C1B22046BDE80F
:1001A000F041FFF7EDBEBDE8FF81111213140D0EF3
:1001B0000F100000D4010200C01900203800000018
:1001C000FCF701000C020200F819002038200000A2
:1001D0000CF801000000000000000000000000001A
:1001E000000000000000000000000000000000000F
:1001F00000000000000000000000000000000000FF
:0C02000000000000000000000090D0038F
:040000050001F40101
:00000001FF
