:020000040001F9
:10F00000784A002015F401001DF401001FF40100EE
:10F0100021F4010023F4010025F4010000000000A8
:10F0200000000000000000000000000027F40100C4
:10F0300029F40100000000002BF401002DF4010070
:10F040002FF401002FF4010001FA01002FF4010058
:10F050002FF401002FF401002FF40100BDF5010091
:10F06000B5F901002FF401002FF401002FF4010085
:10F070002FF401002FF401002FF401002FF4010000
:10F080002FF4010099F501002FF401002FF4010085
:10F0900015F701002FF401002FF401002FF40100F7
:10F0A0002FF401002FF401002FF401002FF40100D0
:10F0B0002FF401002FF40100000000000000000008
:10F0C0002FF401002FF401002FF401002FF40100B0
:10F0D0002FF401002FF401002FF4010000000000C4
:10F0E0000000000000000000000000000000000020
:10F0F0000000000000000000000000000000000010
:10F1000000000000000000000000000000000000FF
:10F1100000000000000000000000000000000000EF
:10F40000DFF80CD000F066F8004800475D05020008
:10F41000784A00200648804706480047FEE7FEE796
:10F42000FEE7FEE7FEE7FEE7FEE7FEE7FEE7FEE7B4
:10F4300019F7010001F40100004870470C1902009F
:10F4400040EA01039B0703D009E008C9121F08C066
:10F45000042AFAD203E011F8013B00F8013B521EE6
:10F46000F9D27047421C10F8011B0029FBD1801A09
:10F4700070472DE9F05F0546002092469B4688467E
:10F480000646814640241BE0284641464746224620
:10F4900000F041F853465A46C01A914110D3114624
:10F4A0001846224600F028F82D1A67EB01084F464F
:10F4B00022460120002100F01FF817EB00094E4101
:10F4C000201EA4F10104DFDC484631462A464346AB
:10F4D000BDE8F09F064C074D06E0E06840F00103F0
:10F4E00094E8070098471034AC42F6D3FFF78CFF3E
:10F4F0001C1902003C190200202A04DB203A00FA01
:10F5000002F1002070479140C2F1200320FA03F37A
:10F51000194390407047202A04DB203A21FA02F078
:10F520000021704721FA02F3D040C2F1200291403D
:10F5300008431946704700F01F020121914040091D
:10F54000800000F1E020C0F88012704700F01F0238
:10F55000012191404009800000F1E020C0F8001135
:10F56000704700F01F02012191404009800000F126
:10F57000E020C0F8001270474907090E002806DA9B
:10F5800000F00F0000F1E02080F8141D704700F13A
:10F59000E02080F80014704707480021C0F84011AF
:10F5A000C0F84411C0F84811C0F84C11C0F800115F
:10F5B000C0F8041101F090BF001001402DE9FE4396
:10F5C0004FF48278404601F0B7FD504F0025504C73
:10F5D000012600B3404601F0B7FD94F82B0010B1AE
:10F5E00094F82C10D1B18DF80050616801912189F7
:10F5F000ADF80810E16829B16160A18A2181E56058
:10F6000018B103E084F8295000E03E6021686846A4
:10F61000884784F82C5094F82B0098B34FF48077E7
:10F62000384601F089FD68B3384601F08DFDE28A65
:10F6300072B194F82A108A4210D9A2EB010080B26C
:10F64000E0822289A2EB0000626802EB40000BE03E
:10F65000208994F82A10A0EB0100F0E707D1E068B8
:10F6600028B184F82C60E58201F020FD04E08A4294
:10F6700002D184F82C60E582404601F065FD234804
:10F68000001D06604FF48877384601F055FD50B1F3
:10F69000384601F059FD84F8295002208DF8000009
:10F6A0002168684688474FF48A77384601F044FD60
:10F6B00030B1384601F048FD84F82950BDE8FE839A
:10F6C0004FF000484FF48C7927691CE0B7FA87F0B7
:10F6D00028FA00F109EB80058F43284601F02CFD44
:10F6E00088B1284601F030FDA5F58C75E8088DF845
:10F6F000040045F38000401C8DF800608DF8050083
:10F70000216868468847002FE0D1D7E700700040A5
:10F710000025002001F05EBEF0B598480023021DD0
:10F7200001780125101D4FF08056062907D1147865
:10F73000240704D10478C4F30314032C02D006294F
:10F7400004D00FE08F4F8E4C7C670EE014782407B6
:10F7500008D10478C4F30314032C06D0042C04D07D
:10F76000052C02D0062907D00EE0D6F84442864F79
:10F77000C4F342343C6002E01478240704D10478D6
:10F78000C4F30314032C02D0062906D011E07F4CE9
:10F79000276827F0807727600EE01478240708D1C7
:10F7A0000478C4F30314032C06D0042C04D0052CD5
:10F7B00002D006290AD011E04FF08044C4F80C3181
:10F7C000C4F81031704C241F236002E01478240721
:10F7D00004D10478C4F30314032C02D0062905D005
:10F7E0000CE0694F032464373C600AE01478240776
:10F7F00004D10478C4F30314032C02D006290DD0DD
:10F8000014E0634F05243C60614C78342560604C03
:10F81000083423603F243F1D3C6002E01478240735
:10F8200004D10478C4F30314052C02D0062957D060
:10F8300068E058490968584A11605649091D096825
:10F84000121D1160534908310968121D1160514998
:10F850000C310968121D11604E4910310968121DE2
:10F8600011604C4914310968121D11604949183161
:10F870000968494A2032116046491C310968121D45
:10F880001160444920310968121D11604149243139
:10F890000968121D11603F4928310968121D116065
:10F8A0003C492C310968121D11603A493031096810
:10F8B000394A40321160374934310968121D1160EC
:10F8C000344938310968121D116032493C310968E8
:10F8D000121D11602F4940310968121D116002E0AC
:10F8E000117809070ED10078C0F30310032803D064
:10F8F000042801D0052805D1D6F85802274900F080
:10F900004F00086021487438016841F470010160BB
:10F91000BFF34F8FBFF36F8F4FF01021D1F800026C
:10F92000002803DBD1F80402002822DA1C4A156003
:10F930001C480468002CFCD01524C1F8004205685E
:10F94000002DFCD0C1F8044201680029FCD01360EE
:10F9500001680029FCD0BFF34F8F0C48F0380168D4
:10F96000114A01F4E06111430160BFF34F8F00BF02
:10F97000FDE70F490D480860F0BD0000E00F00F002
:10F980000DF0ADBA00C007403C050040FCED00E0C2
:10F99000105600400404001020C50040E40E004052
:10F9A00004E5014000E401400400FA050090D003A2
:10F9B000642100202DE9F84300250F4C04274FF463
:10F9C000A078BE034FEA050908EB850006FA05F1A9
:10F9D00022585AB1D4F804230A4207D044F80090C0
:10F9E0002158064A00915168126890476D1CEDB28B
:10F9F000BD42E9D3BDE8F8830080004030250020F7
:10FA00000448017F04480029024901D001F075BE75
:10FA100001F0E4BD3C250020002000400FB41CB5DF
:10FA20000246002007AC00290BD0491ECDE9002179
:10FA3000054B6A462146069800F018F8009A002106
:10FA400011701CBC5DF814FBCFFE010002E008C879
:10FA5000121F08C1002AFAD170477047002001E048
:10FA600001C1121F002AFBD1704700002DE9FF4F92
:10FA70008DB00F460546002606E025280BD0DDE9AF
:10FA80000F1290476D1C761C28780028F5D111B014
:10FA90003046BDE8F08F0024A246A1460122EC4981
:10FAA00000E0044315F8013F203B02FA03F008424E
:10FAB000F7D128782A2810D06FF02F022878A0F1EB
:10FAC0003001092914D80AEB8A0102EB410144F004
:10FAD000020400EB010A6D1CF0E701CF5FEA000AA7
:10FAE00003D544F40054CAF1000A44F002046D1C2A
:10FAF00028782E2817D115F8010F44F004042A287D
:10FB00000ED06FF02F022878A0F1300109290AD811
:10FB100009EB890102EB410100EB01096D1CF2E7E1
:10FB200057F8049B6D1C28786C280FD006DC4C28F5
:10FB300017D068280DD06A2814D104E0742810D09A
:10FB40007A280FD10DE044F400140AE044F4801444
:10FB500001E044F440146978814202D104F5801434
:10FB60006D1C6D1C2A786E2A1FD00CDC632A31D0E4
:10FB700004DC002A8BD0582A11D1A3E0642A68D073
:10FB8000692A0CD165E0732A2ED004DC6F2A73D069
:10FB9000702A04D19BE0752A6FD0782A6ED0104667
:10FBA000DDE90F129047761C50E1C4F302500228A1
:10FBB00006D0032809D0042801CF09D0066045E10A
:10FBC00001CFF117C0E9006140E101CF06803DE1BE
:10FBD00006703BE117F8040B8DF8000000208DF84B
:10FBE0000100EB46012003E057F804BB4FF0FF3063
:10FBF00061074FF0000102D40DE008F101018846D1
:10FC000049450FDA8045F8DB1BF808100029F4D1CC
:10FC100008E008F1010188468142FADB1BF8081070
:10FC20000029F6D1DDE90F23AAEB08008146214621
:10FC300000F036F9304400EB080604E0DDE90F126D
:10FC40001BF8010B9047B8F10108F7D2214648464E
:10FC5000F7E00A21C4F302534FF0000B0891022B86
:10FC600004D001CFC117032B09D00AE0FF1D27F0F4
:10FC70000707F7E8020108E032E01FE020E000B2E9
:10FC8000C117042B01D140B2C117031E71F100034B
:10FC900007DA4FF0000CD0EB0C006CEB01012D23C8
:10FCA00002E0230504D52B238DF82430012303E043
:10FCB000E30701D02023F7E7984658E00A2110E037
:10FCC00010210EE010204FF0000B08900CE01021E6
:10FCD0004FF0000B44F004044FF00809089103E0D2
:10FCE00008214FF0000B0891C4F30253022B04D0FB
:10FCF00001CF0021032B06D006E0FF1D27F00707E8
:10FD0000F7E8020103E080B2042B00D1C0B24FF04B
:10FD1000000823072BD5702A07D0DDF820C08CF00F
:10FD2000100C5CEA0B0C05D00EE040238DF824305B
:10FD3000012308E050EA010306D030238DF8243077
:10FD40008DF8252002239846DDF820C08CF0080CA1
:10FD50005CEA0B0C0BD150EA010301D1630706D515
:10FD600030238DF824304FF00108A9F10109582AF9
:10FD700004D038A20B9208AA0A920BE03AA2F9E743
:10FD80005B46089AFFF775FB0B9B9B5C0A9A521E19
:10FD90000A92137050EA0102F2D10A98ADEB00000A
:10FDA00000F1200B600702D524F4803401E04FF00D
:10FDB0000109D94502DDA9EB0B0000E0002000EBB2
:10FDC0000B0141440890AAEB010AE00306D4DDE9E7
:10FDD0000F232146504600F063F806444FF0000917
:10FDE00008E009A911F80900DDE90F12904709F1AF
:10FDF0000109761CC145F4DBE0030CD5DDE90F23D6
:10FE00002146504600F04CF8064404E0DDE90F12AC
:10FE100030209047761C0899481E08900029F5DC90
:10FE200008E00A980A990078491C0A91DDE90F1246
:10FE30009047761CBBF10001ABF1010BF1DC2146D0
:10FE40005046DDE90F2300F019F806446D1C1BE64F
:10FE500009280100303132333435363738396162A0
:10FE60006364656600000000303132333435363764
:10FE70003839414243444546000000002DE9F04135
:10FE8000044600251E461746880404D405E039467A
:10FE90002020B0476D1C641EF9D52846BDE8F081CE
:10FEA0002DE9F041044600251E469046C80301D5C1
:10FEB000302700E02027880404D505E04146384675
:10FEC000B0476D1C641EF9D52846BDE8F0814A682C
:10FED000002A06D00A68531C0B6010704868401E48
:10FEE000486070470BA1012001F074F800F0CCFFCE
:10FEF00000F0CEFF0028FBD1BFF34F8F0B48016805
:10FF00000B4A01F4E06111430160BFF34F8F00BF62
:10FF1000FDE700004150505F4552524F523A455262
:10FF2000524F523A466174616C0D0A000CED00E0CC
:10FF30000400FA050EB500210091CDE901106A46D2
:10FF400044F20100FFF7CEFF0EBD0000014800683B
:10FF50007047000004150140074B5B6823B12AB1CC
:10FF600020B10068037C1BB1082070470720704750
:10FF70004174426100207047542100202DE9F04770
:10FF8000894607460121880798461446C0F808109C
:10FF9000D0F804110029FBD0A0074FF0000526D1AE
:10FFA0002CB301F033F9134E06F11000C6F80C80A3
:10FFB0000570457080F8029044607560357075700A
:10FFC0001420FFF7B8FA07211420FFF7D5FA142000
:10FFD000FFF7BCFA0848076007211120FFF7CCFAA9
:10FFE0000548001F0068B0600020BDE8F0870720CA
:10FFF000FBE7000044210020081501402DE9F843EB
:020000040002F8
:10000000DFF87090D9F804305BB350B3052902D201
:100010000720BDE8F88343691BB3437C012B22D042
:1000200000270446002588461646284600F026F894
:10003000684601F0DBFBC0B1012101700E4944604C
:100040000968C0E90218C0E904769DF8000089F843
:100050000100002000F014F81420FFF782FA28466F
:10006000D7E70820D5E70F46DBE70425002000F09E
:1000700007F8F4E7542100200415014000F002B80D
:1000800000F008B872B602480168491C0160704768
:100090003021002003490868401E086000D162B684
:1000A00070470000302100202DE9F0410646086825
:1000B0000C46411C4FF0A0474FF0010506D005FA51
:1000C00000F1C7F80815206800F058FD6068411C71
:1000D00002D0002100F049FD3079204901EB4010A9
:1000E000A169007F00283068C0F8241525D0607D04
:1000F000227D31681043C1F86C05D4E900123068E4
:10010000C0F80C15C0F8142524E0A068411C02D0EA
:10011000002100F02AFDE068411C05D08540C7F8A9
:100120000855E06800F02AFDD4E902123068C0F8F2
:100130000825C0F81015BDE8F081607D217D32688A
:100140000843C2F86C05D4E900123068C0F81425E1
:10015000C0F80C15207D0128D7D0ECE73C25002005
:10016000002901DA00207047026811440160012073
:100170007047000070B5461C0D4601240020FFF7B3
:100180007DFF114A10682860D2E900109568081AAE
:100190002B1A701C5B1C98420FD963B10B480C4B97
:1001A000294000681B6802EB810163F39F20C8604F
:1001B0001068401C1060002401E0881910600020C5
:1001C000FFF75EFF204670BD5C2600206418020029
:1001D00040210020034803C8814201D1012070471B
:1001E000002070475C2600202DE9F05F264841681A
:1001F000F1B3DFF898B00E688146DBF800408768FD
:100200008078E11B21F07F45ED1CB0B9DFF88080DC
:100210004FF48030C8F84403C8F804031120FFF7F6
:100220008AF91120FFF792F94FF0010AC8F800A0EF
:100230002F2000F0E9F989F802A0B54200D2354636
:10024000124BE8193C3320F07F401860DBF80010B7
:100250005A46091B21F07F41001B20F07F40C91C3A
:1002600081420FD9106818602F2000F0CDF900E00E
:1002700004E0BDE8F05F1120FFF773B9BDE8F05F5F
:1002800000F0C4BFBDE8F09F4421002004150140E8
:10029000001001400E4910B50A784C780023A242A4
:1002A00012D0521CD2B20A70022A00D10B70084A36
:1002B0000B78183252F8232002608868104420F02E
:1002C0007F408860012010BD0360002010BD000049
:1002D0004421002070B50C464FF0A041D1F8041520
:1002E000C14011F0010F09D0A0420BDA451C00F00B
:1002F0004FFC21462846BDE87040EBE7BDE8704062
:1003000000F046BC2046F9E730B40F2018214FF02A
:10031000A043032203EB8004C4F80027401C88425A
:10032000F8D930BC172000F033BC70B5172827DC93
:100330000C2802DAC0F10B0500E00546002114206C
:1003400000F034FC0021132000F030FC0024AC420B
:1003500001D1012100E00021162000F027FC01213D
:10036000142000F023FC0021142000F01FFC641C6A
:10037000182CECDBBDE870400121132000F016BC06
:1003800070BD000070B50E460446007918494FF460
:10039000A27501EB4010017F2068A1B14FF4887174
:1003A00000F0F2FE4FF49071206800F0EDFE4FF483
:1003B0009271206800F0E8FE2946206800F0E4FE13
:1003C0000C49206809E04FF48E7100F0CCFE2946FC
:1003D000206800F0C8FE08492068C0F804132068AF
:1003E00000F07FF93146BDE8704000F05EB90000D2
:1003F0003C25002010030200800002002DE9F0439C
:10040000264CA4F110092278D9F8048099F80350F9
:10041000404694F801C0D9F8086031E002EB42038D
:100420006168521C01EBC301A378D2B2934200D1A0
:1004300000220B78022B02D0032B21D11DE00346B2
:100440004F68194603E0B94203D00B46C969B9B1F8
:10045000F9E7A9B18B4205D1C06918B9104E012541
:10046000B56000260F68C969D96149B10B683B4482
:100470000B6005E00174C06900E000210028F9D19B
:100480009445CBD1C9E9010689F80350404502D013
:100490000120BDE8F0830020FBE70000542100208C
:1004A000001001402DE9F0412A4F0446002607F1D3
:1004B0001005D7F804803EE002D02046E4691DE034
:1004C0002878696800EB4002401CC0B201EBC20111
:1004D0002870AA78904200D12E700A784868012AC4
:1004E0002BD1027C4ABB8A684260CA6882600A6972
:1004F000C26049698161F97801B146604368BA68B0
:10050000DFF854C0991A21F07F41614502D2826818
:10051000114406E0D11A826821F07F418A4202D953
:10052000511A016000E00660466001218660017496
:10053000C66100F095FF002CBED12878697888420A
:10054000BED17968414502D00120BDE8F08100208C
:10055000FBE7000044210020FFFF7F00002000F0A7
:1005600093FD08B1FFF7E6FC1AA1032000F032FD6D
:1005700000F08EFC0028FBD100F0C4FEFFF7C4FEA3
:1005800001218807C0F80810D0F804110029FBD019
:1005900000231A4A05211846FFF7F0FC08B1FFF7BF
:1005A000C9FC174A01211748FFF7D6FC08B1FFF72D
:1005B000C1FC1448002240F233310068FFF71EFDF1
:1005C00008B1FFF7B7FC20BF00F062FC0028FBD1A8
:1005D000F9E700004150503A494E464F3A534141E5
:1005E00044432048414C2073696D706C65206578E8
:1005F000616D706C652E0D0A0000000088240020DB
:100600009D1402001C18020000283ED01F49204AF9
:10061000096800BF00BF00BF00BF00BF00BF00BF30
:1006200000BF91422FD000BF00BF00BF00BF00BF7E
:1006300000BF00BF00BF00BF00BF00BF00BF00BFC2
:1006400000BF00BF00BF00BF00BF00BF00BF00BFB2
:1006500000BF00BF00BF00BF00BF00BF00BF00BFA2
:1006600000BF00BF00BF00BF00BF00BF00BF00BF92
:1006700000BF00BF00BF00BF00BF00BF00BF00BF82
:1006800000BF00BF00BF401EC3D1704764210020DF
:100690000024F40000F01F02012191404009800075
:1006A00000F1E020C0F8801170474907090E0028CA
:1006B00006DA00F00F0202F1E02282F8141D03E0D6
:1006C00000F1E02282F8001400F01F0201219140A5
:1006D0004009800000F1E020C0F88012C0F800114D
:1006E0007047000B40B270470121B1EB507F01D140
:1006F00001207047002070472DE9F041254C064647
:1007000012200D46C4F80803234890F82920022A35
:1007100018D001464FF4807891F82B10012A13D09D
:100720000222C4F80423012780F82970466005815D
:100730000022C26021B3C58290F82A10304600F032
:10074000B5FC25E0122002E0C2682AB10220C4F8FC
:1007500004031120BDE8F081C660858261B9474677
:10076000384600F0E9FC0028FAD0384600F0ECFCEE
:100770002946304600F09AFC0220C4F8040307E042
:100780002946304600F092FC404600F0DDFC276030
:100790000020DFE7007000400025002070B50F4A00
:1007A00005460C4692F8290008B1112070BD02EBF5
:1007B0004501087E18B912F82A0F401C1070E07924
:1007C0000876207A48762146284600F077FC227A7F
:1007D000E179284600F0A6FC002070BD002500202D
:1007E0002DE9F0411C4C054694F8280010B1082072
:1007F000BDE8F08109B115B102E00720F8E7174D17
:1008000044F8101B164928780860091D68780860AC
:10081000E878E0760127277600206076A0762060D1
:10082000104E20776FF00040C6F808034FF4827036
:1008300000F08AFCA9780720FFF737FF0220C6F8EE
:100840000403E07E10B10120C6F804030448F03828
:1008500007600020CCE70000002500203D180200C2
:10086000F0750040007000400849002091F82920F0
:10087000012A01D00820704791F82B30044A012149
:100880000BB111607047024A121DFAE700250020E3
:10089000007000402DE9F0412C4D80460B4695F844
:1008A000290010B11120BDE8F0810124284E85F8FF
:1008B00029400322C6F808232146184600F0F6FB1B
:1008C00095F82A00012809D9002700221146384648
:1008D00000F028FC7F1CFFB2082FF6D305EB480080
:1008E000427E017E404600F01DFC0027346018481F
:1008F000001D046042F210744FF4827800E0641E20
:10090000404600F019FC08B9002CF8D1404600F030
:100910001BFC95F82A0001280BD9002405EB4400A4
:10092000427E017E204600F0FDFB641CE4B2082CF0
:10093000F4D395F82B0008B1032000E00220C6F89C
:100940000403384685F82970ADE700000025002033
:10095000007000402DE9F04105460079164F9046A1
:1009600007EB40140E46E07E10B10820BDE8F08190
:10097000707F20772846FFF797FB5FEA08006060EA
:100980003169216003D0317F2846FFF7FBFC2879CD
:1009900007EB4010007F0028286801D0082100E004
:1009A0000421C0F800150020E0752076A075012113
:1009B000E176A076DAE700003C2500202DE9F0473B
:1009C000054600793F4E904606EB40140F46207FC7
:1009D00018B10846FFF788FE30B1284600F074F8D9
:1009E00020B11120BDE8F0871020FBE784F81680C5
:1009F000A7600027A78228794FF0010806EB401472
:100A00003E46207F0028286825D04FF4907949463B
:100A100000F0BAFB4FF4AC7A5146286800F0B4FB02
:100A20002868A17DA268C0F84425C0F84815286848
:100A3000C0F808806068F0B94946286800F09FFB5C
:100A400080465146286800F09AFB58EA0001F3D02E
:100A500058BBA7750FE04FF48E7A514600F083FB28
:100A60002868C0F808802146286800F091FD616878
:100A70004FF4807089B13046B4E75146286800F0E1
:100A80006DFB10B9A08A4845F7D1A08A484505D02A
:100A90002146286800F07CFD00E08146A08AA17D07
:100AA0008842EAD3A08A484501D10F26D1E75146B2
:100AB000286800F053FB0028F9D02868C0F80C80A3
:100AC000C7E700003C2500200079044901EB4010F5
:100AD000807D002800D00120704700003C250020C8
:100AE00070B5044600791149002601EB40152068D5
:100AF0002A7FC0F80065686888B1207901EB401052
:100B0000007F0028206801D0094901E008498C399C
:100B1000C0F808132068FFF7E4FDFFF7BBFD20468F
:100B200000F038FBEE766E6070BD00003C250020C2
:100B30001003020070B541EA4201DDE904564FF0AE
:100B4000A04441EA830141EA052104EB800041EA27
:100B50000641C0F8001770BD1CB5002100910B467E
:100B600001220191FFF7E6FF1CBD1CB500220B46D8
:100B7000009211460192FFF7DDFF1CBD1CB500215C
:100B800000910B46012201911146FFF7D3FF1CBDD6
:100B90004FF0A042D2F804350121814021EA030040
:100BA000C2F808051940C2F80C15704701224FF031
:100BB000A043824011B1C3F808257047C3F80C2543
:100BC00070470000004870473D0C020030B5184CDB
:100BD000054689B0207828B16078854202D100208E
:100BE00009B030BD202213496846FEF729FC0020D9
:100BF0008DF8140006200090082001900520039035
:100C0000072002904FF0EB7006900948001DFFF797
:100C100067FF0DB1002200E0074A05486946001D44
:100C2000FFF798FE0028DBD1012020706570D6E721
:100C30003421002044180200CD1502002DE9F04FA8
:100C4000C1B00D004FF0000140914D984B991C46EA
:100C5000174601EB000B01D00A2000E0002080467F
:100C600000F09CFB00287CD16E46BCB9409840AA9D
:100C70003118284600F072FC002872D03846FEF782
:100C8000F1FBC22800D9C220054640982A463044CC
:100C90003946FEF7D5FB4098284440904FF0200A93
:100CA000409901EB080231320DEB01050DEB020614
:100CB000002002E005F801AB401C4045FAD30027B4
:100CC0005C4508D305F801AB05F801AB05F801ABAD
:100CD00006F801AB2DE04B98844202D24A98005DA1
:100CE00002E0211A4C98405C2B46814602460121C5
:100CF000880022FA00F000F00F00092801D93730EF
:100D000000E03030C1F1010C491E03F80C00EFD2B5
:100D10009D1C05F801ABFEF78FFB016811F8090077
:100D200010F03E0F01D0484600E02E2006F8010BDF
:100D3000641C7F1C102FC3D30D2030700A207070EC
:100D400085F800A04099684641444331409100F045
:100D50002BFB30B100F022FB18B9002040905C451D
:100D60009ED341B02046BDE8F08F2DE9F043C7B0D7
:100D700000251C46904689464E9F459500F00EFB87
:100D800000287AD1459805AE311845AA484600F0AA
:100D9000E5FB002835D0072F27D2DFE807F0041243
:100DA0001B35424F5D004046FEF75CFB054645980B
:100DB0002918FF2919D830442A464146FEF740FB3E
:100DC00013E045982368C0F5807130444246FEF731
:100DD00025FE09E06068009045982368C0F58071A1
:100DE00030444246FEF71AFE0546294645A8FFF75D
:100DF000B7F9459978B3B1F5807F3ED805A800F0E2
:100E0000D3FA47B0BDE8F083D4E90101CDE9000190
:100E100045982368C0F5807130444246FEF7FEFDD8
:100E2000E2E7201D07C88DE8070045982368C0F554
:100E3000807130444246FEF7F1FDD5E7201D0FC812
:100E40008DE80F0045982368C0F580713044424614
:100E5000FEF7E4FDC8E710E004F1080001AD0FC89B
:100E600085E80F006068009045982368C0F58071A0
:100E700030444246FEF7D2FDB6E70020C1E700004D
:100E8000004870476B0D02000120FFF79FBE000075
:100E90002DE9F04F87B0FFF79DF918B1002007B09A
:100EA000BDE8F08F454ED6E9014704EA070006EB9E
:100EB0008000A146641CC5680CE000BFC5F3891022
:100EC00000EB9550044404EA070006EB8000A146BD
:100ED000C568641CA807F1D005F003004FF0000BB3
:100EE000022805D0AA0A01A8C5F38313002153E004
:100EF00004EA070006EB800004F1010A0AEA07048D
:100F0000C268381B80004FEA9558001DC5F389134D
:100F1000804521D929490C3138B106EB840400F011
:100F2000FF0CA8EB00000C3404E00C46002108F094
:100F3000FF0C0846C0B2CDE90210CDE9004CD6F84E
:100F40001444C5F3C2005946A047404511D108F1E9
:100F500003080AEB98042AE0002106EB84000C3019
:100F60000090CDE901810391C5F3C200D6F8144485
:100F7000EAE760F38F1509EA070006EB8000C56019
:100F800016E000BF04EA070C06EB8C0C491CDCF8E9
:100F90000CC040F804CB641C9942F3D3C5F3C200E3
:100FA0000093D6F8105401AB5946A84700B17460BD
:100FB000FFF710F980F0010071E700005C260020C7
:100FC000034AFF23936000231360536000F054B87A
:100FD0005C2600202DE9F8430F4F88460446002583
:100FE00069462846BE68FFF7C5F8002812D00B48AE
:100FF0000021406861F38200009964F3C50001EAB2
:10100000060265F3891007EB820268F39F20491CF2
:10101000D0600091BDE8F8835C26002064180200CF
:101020002DE9F843124D884604460127914669464A
:101030003846AE68FFF79EF8002817D00D4800210B
:10104000806861F38200009964F3C50001EA06023A
:1010500067F3891005EB820268F39F20491CD0607A
:101060000091314005EB8101C1F80C90BDE8F88397
:101070005C26002064180200024A02F5826203C264
:10108000704700005C26002070B506460020FFF780
:101090009DFD040008D1FFF795FD0546FFF7F0FE22
:1010A00032462946FFF78CFF204670BD024A106089
:1010B000101D0160704700002C76004010B50A78C2
:1010C0004B78302402F0030204EA03131A438B78AE
:1010D0004FF4E06404EA03231A43CB784FF48054BE
:1010E00004EA03331A430B794FF4E02404EA034380
:1010F0001A434B794FF4801404EA03531A438B7953
:10110000240104EA03631A43030105481844C0F8A4
:101110001825CA79097AC0F81415C0F8102510BD31
:1011200000700040030103481844C0F81425C0F8BB
:10113000101570470070004002494058002800D048
:101140000120704700700040034908B508440022A0
:1011500002600068009008BD007000404058002800
:1011600000D00120704708B500224250405800903E
:1011700008BDD0F80403084000D001207047405853
:10118000002800D00120704708B500224250405886
:10119000009008BD70B5034600791B4901EB401073
:1011A0001968027F4FF0FF30002AD1F80C25D1F8E2
:1011B0001465D1F80855D1F8104504D0C1F80C05D4
:1011C000C1F8140503E0C1F81405C1F80C0519684D
:1011D000C1F80805C1F81005501C02D01046FFF7F1
:1011E000BBFC701C02D03046FFF7B6FC601C02D07E
:1011F0002046FFF7B1FC681C04D02846BDE87040CB
:10120000FFF7AABC70BD00003C25002070B5012688
:1012100070044FF0E0210025C1F88001084C401017
:10122000C4F84803C4F8080366602F20FFF7ECF900
:10123000A660044C2F20A560FFF7E6F9A57070BDED
:10124000001001404421002070B50546C87D0C46C1
:1012500000284FF4847128460AD0FFF784FFD5F8A0
:101260001805627EE1688854607E401C607670BD1F
:10127000FFF779FFD5F8180570BD1FB501238DF86C
:1012800000308DF808100192D0E9001268469047AE
:101290001FBD000070B504460078002816D101215A
:1012A0006068FFF729FA08B1FEF744FE084D09A16E
:1012B00003206A68FFF7B4FE60680EA1B0F9002051
:1012C0000320FFF7ADFE6868401C686070BD000039
:1012D000282100204150503A494E464F3A4144435C
:1012E000206576656E74206E756D6265723A202594
:1012F000640D0A004150503A494E464F3A25640D5C
:101300000A0000007FB50E4C02250E49606803906C
:101310008DF80C5003A8FFF763FA08B1FEF70AFE38
:10132000183494E807008DE807008DF802506946EC
:101330000020FFF733FA002801D0FEF7FBFD7FBD48
:101340001C18020095120200F8B5FEF7FFFD124FBF
:10135000002400252046FEF7E8FF07EB441600BFF7
:10136000FFF782FA69460020FFF794FABDF8000003
:101370005F3800B2ADF80000002800DA002026F83F
:10138000150012210F20FEF7A5FF6D1C102DE7DBC5
:10139000641C182CDDDBF8BD882100200148FFF714
:1013A00093BB00003821002070B50D460A46014667
:1013B00001240648FEF744F8EAB204490448FFF75E
:1013C000FDFA00B10024204670BD00005C2500201D
:1013D000382100202DE9F84F204C00256846D4E93B
:1013E00001B6FEF757FF8046FFF708F80746A94603
:1013F000B8F1000F25D00023009ACC46606819E0B0
:1014000007680146974202D9BA1A026014E0C1F88F
:1014100000C0D1F80C80D21BC8693B448A46B8F1A1
:10142000000F07D0F71827F07F47C1E90178CAF805
:101430001C500D460028E3D160602846FFF732F8C3
:1014400004E02846FFF72EF800B917B15846FEF71A
:10145000CBFE84F80390BDE8F88F00004421002003
:101460000D4B10B5596831B102680C68A24204D81E
:10147000A21A0A60C161586010BD0B4603E00B461A
:10148000C969121B21B10C689442F8D3A41A0C60EC
:101490000260C161D86110BD4421002010B5FFF782
:1014A00053FF05484288511C4180BDE8104003A10C
:1014B0000320FFF7B5BD0000282100204150503A1D
:1014C000494E464F3A5363616E2074696D657320CF
:1014D0003D2025640D0A00002DE9F0411D4D6C688A
:1014E000002C35D01C4800270068A968B846401A6F
:1014F00020F07F462068B04215D82246361A0744AD
:10150000E469107C68B182F81080EB6833B1D2E9ED
:101510000501984728B1FEF70DFD02E0D2E905105C
:101520008847002CE6D129786878814206D1401C92
:10153000C0B26870022801D185F801800548697839
:10154000183040F82170BDE8F0411420FEF709B8CA
:10155000BDE8F081442100200415014010B5144677
:1015600002004FF001000CD00846136806A24FF4A9
:101570008071FEF753FA01462046BDE81040FEF7A1
:10158000EFBD0021216010BD5B253038645D000097
:1015900070B50C4605464FF48E71FFF7E4FDA18A45
:1015A000A068415CA08A401CA082C5F81C1570BDD3
:1015B0001FB500228DF800208DF808108168019178
:1015C0008275D0E90012684690471FBD0078012857
:1015D00001D1014988707047342100202DE9FF476F
:1015E0000C4605464FF40071FFF7C3FD01274FF489
:1015F0000178002618B34FF4927949462846FFF740
:10160000ADFDE0B149462846FFF7ADFDC5F80883BA
:10161000A07E00B96F6002208DF80000D5F880042C
:10162000C5F880040390E07D8DF80800E068019023
:10163000E6752676D4E900126846904727E0042133
:101640002846FFF796FD10B34FF484712846FFF744
:1016500085FDE0B121462846FFF7F6FDE07D617E7D
:10166000884214D1207E38B1617EE268E07520693D
:10167000E0602676667607E0A07E00B96F60C5F868
:101680000883E675617EE2682046FFF7F6FD4FF4B9
:101690008E7841462846FFF761FD88B1A08AA17D7A
:1016A000884204D221462846FFF772FF08E04146EF
:1016B0002846FFF758FDA17D11B12046FFF778FFBE
:1016C0004FF4A27841462846FFF748FD002812D083
:1016D00041462846FFF747FDA07E00B12F60E07D20
:1016E000002808D0E675617EE26804B02046BDE8B7
:1016F000F047FFF7C2BDBDE8FF872DE9FF410C466B
:101700004FF4927705463946FFF739FD0026C0B100
:1017100039462846FFF738FD02208DF80000D5F83D
:101720008004C5F880040390D5F83C058DF80800C6
:10173000E0680190E6752676D4E900126846904785
:1017400024E04FF4887739462846FFF718FDE8B1C2
:1017500039462846FFF718FDD5F83C05C1B2E07DB3
:10176000884213D1207E60B1E268D5F8000220F0F3
:101770002000C5F80002207EE0752069E060267632
:1017800001E0E675E2682046FFF777FD4FF4A277A7
:1017900039462846FFF7F3FC68B139462846FFF77B
:1017A000F3FCE07D38B1E675D5F83C05E268C1B2DE
:1017B0002046FFF762FD4FF4907631462846FFF74A
:1017C000DEFC00280FD031462846FFF7DDFCA07D67
:1017D000002808D0D5F84C0504B0C1B22046BDE8B9
:1017E000F041FFF7E5BEBDE8FF8100000A4A10B5F1
:1017F00053789478591CC9B28C4200D100211478D6
:101800008C4201D1002010BD0170506803EB4301F0
:1018100000EBC10010BD0000542100206821002011
:1018200001000700008000400004000000000007E5
:10183000000000000000000002000003000100079B
:1018400000000000FFFFFFFFFFFFFFFFFFFFFFFFA4
:10185000FFFFFFFF00000000000000000000D601B5
:101860000701000029000000010000000100000045
:101870000100000001000000010000000100000064
:101880000100000002000000004040404040404095
:101890004040414141414140404040404040404043
:1018A00040404040404040404005020202020202E7
:1018B0000202020202020202022020202020202036
:1018C000202020020202020202029090909090904A
:1018D0001010101010101010101010101010101008
:1018E000101010100202020202028888888888887C
:1018F0000808080808080808080808080808080868
:1019000008080808020202024000000089180200CC
:101910004F766572666C6F770D0A00003C19020005
:1019200028210020400000004CFA01007C19020030
:1019300068210020102900005CFA0100000000006E
:101940000000000000000000000000000020004037
:10195000000000001019020000000000000000005C
:101960000000000000000000000000000000000077
:0C19700000000000000000000090D00308
:040000050001F40101
:00000001FF
