:020000021000EC
:10F0000000000120558E02007D8E02007F8E0200DE
:10F01000818E0200838E0200858E020000000000B7
:10F02000000000000000000000000000878E0200C9
:10F03000898E0200000000008B8E02008D8E02007F
:10F04000492002008F8E0200AD2902008F8E02003F
:10F050008F8E02008F8E0200852402008F8E0200A8
:10F060008F8E02008F8E02008F8E02008F8E020024
:10F070008F8E02008F8E02008F8E02008F8E020014
:10F080008F8E020091F701008F8E02008F8E02009A
:10F0900055F801008F8E0200219302008F8E02002E
:10F0A0008F8E02008F8E02008F8E02008F8E0200E4
:10F0B0008F8E02008F8E0200000000000000000012
:10F0C0008F8E02008F8E02008F8E02008F8E0200C4
:10F0D0008F8E02008F8E02008F8E020000000000D3
:10F0E0000000000000000000000000000000000020
:10F0F0000000000000000000000000000000000010
:10F1000000000000000000000000000000000000FF
:10F1100000000000000000000000000000000000EF
:10F4000010B5054C237833B9044B13B10448AFF35E
:10F4100000800123237010BDB821002000000000EF
:10F42000909402000C4B43B10C480D4910B5AFF35A
:10F4300000800C48036823B910BD0A48036833B93B
:10F440007047094B002BF7D0BDE810401847064B1A
:10F45000002BF5D0184700BF000000009094020078
:10F46000BC210020A421002000000000154B002B2F
:10F4700008BF134B9D46A3F5803A00218B460F46EB
:10F480001348144A121A00F063F80F4B002B00D0F7
:10F4900098470E4B002B00D0984700200021040015
:10F4A0000D000D48002802D00C48AFF3008000F09A
:10F4B0002BF82000290004F005F900F011F800BF36
:10F4C0000000080000000120000000000000000013
:10F4D000B82100209C2B002000000000000000004C
:10F4E00008B5074B044613B10021AFF30080054B6C
:10F4F0001868836A03B19847204600F031F800BFCE
:10F5000000000000FC93020070B50D4E0D4CA41BD2
:10F51000A4100025A54209D10B4E0C4C09F062FF46
:10F52000A41BA4100025A54205D170BD56F82530B6
:10F5300098470135EEE756F8253098470135F2E750
:10F540009C2100209C2100209C210020A021002043
:10F5500002440346934200D1704703F8011BF9E7C8
:10F56000FEE700BF2DE9F84F254B93F800E0BEF110
:10F57000000F31D0DFF88CB0DFF88CA0DFF88C9072
:10F580000024012703E00134E4B2744524D226B2FA
:10F59000DBF80050DAF8003015F8360007FA00F111
:10F5A000194205EBC608EED023EA0103CAF8003081
:10F5B00002F05EFF15F83660D9F8003007FA06F55C
:10F5C0002B4000FA06F18B4208D00D4B013493F822
:10F5D00000E0E4B27445DAD3BDE8F88FD8F804301F
:10F5E000002BF2D098F80110A1F10101B1FA81F1DC
:10F5F0004909091AB1FA81F1490930469847E4E707
:10F60000D42100200422002000220020FC21002020
:10F6100070B50646114800F081FD40B9104D012437
:10F620002B68B4401C4203D023EA04042C6070BD54
:10F63000304602F01DFF0B4E326860B122432B684A
:10F64000094932601C432C60044809680022BDE867
:10F65000704000F00BBD22EA0402F0E7DC2100203C
:10F6600000220020FC210020D8210020042A01D8FB
:10F67000072070472DE9F04182B0884605461746BD
:10F6800002F0CAFD002836D01D4C1E481E491F4AF4
:10F690001F4B2560002608F1FF3480F800800F60C2
:10F6A00016601E60E4B2B8F1000F1ED0DFF86C8067
:10F6B000032701E0FF2C18D023B205EBC30215F895
:10F6C000330093788DF80470424601A98DF80660E6
:10F6D0008DF807608DF8053002F0A8FD013CE4B21A
:10F6E0000028E7D002B0BDE8F0810A4A0A480021AC
:10F6F00000F0AAFCF6E702F04DFD0028C4D0F1E7C7
:10F7000004220020D4210020D8210020FC21002048
:10F710000022002065F501000094020011F60100AE
:10F7200070B5084D2B785BB1074E0024336801217A
:10F7300013F8340002F03AFE2B780134A342F5D8D6
:10F74000002070BDD42100200422002000B585B027
:10F7500000230390194601AA44F20100ADF80430D9
:10F76000029300F003F805B05DF804FBBFF34F8F80
:10F770000549064BCA6802F4E0621343CB60BFF34D
:10F780004F8F00BFFDE700BF00ED00E00400FA0569
:10F790002DE9F843274A284B0025C2F84051C2F80A
:10F7A0004451C2F84851C2F84C51C2F80051C2F855
:10F7B00004511B681BB32149D2F804450A68204F45
:10F7C000A41A1A6824F07F44A242A84609D8197CDA
:10F7D000DE69A41A1544A1B91EB133461A68A242C3
:10F7E000F5D91849184A0B7812789A421BD0174954
:10F7F000174A41F823504FF48013C2F80031BDE896
:10F80000F883D3F8149083F810803A689B694846CF
:10F8100019462AB190470028DED0FFF797FFDBE7B3
:10F820001846C847D8E7531CDBB2022B08BF002399
:10F830000B70DCE700100140282200202422002069
:10F84000082200202122002020220020182200204F
:10F8500000E100E02DE9F04FA04AA14913780978B2
:10F86000A048994289B0D0F800B000F0E880013398
:10F87000DBB2022B08BF002313709B4A52F82360AF
:10F88000984A0BEB060323F07F4313600123059393
:10F89000964B009693F80090954BD3F800A0934BAD
:10F8A0005C785B680393914B9B780293914B1B7838
:10F8B00004938C4B00271B680693CC465546D646CE
:10F8C0000197B8463B46A44526D00CEB4C02039862
:10F8D000029E10F832100CF1010C5FFA8CFCB4455A
:10F8E00008BF4FF0000C022900EBC2027ED00329B2
:10F8F000E9D1BEF1000FE6D0009E00E09646DEF8AA
:10F900001C208EF81030002AF8D1A44500969646A7
:10F9100015464FF00108D8D1009EB8F1000F40F015
:10F920009E80019B13B16F4B069A1A601FB1714BF9
:10F930009DF810201A70059B002B40F0B881BAEB9F
:10F940000E0318BF012305930025002301930493A0
:10F950001F46684BDFF8A0B11B780693614BD3F8C4
:10F960000080634B1B68009376464FF0010A2DB36D
:10F970006A68A9682B46ED69A2EB080020F07F4079
:10F9800058456FD8014419605F609F6083F810A0EC
:10F99000DF61002E00F08680306888427AD23446DB
:10F9A00003E01068884266D21446E269091A002A08
:10F9B000F7D11960DA61E361002DD9D1039909EB20
:10F9C000490309F10102CC4501EBC3045FFA82F956
:10F9D00000F0948011F83300029B4B4508BF4FF0B4
:10F9E0000009012863D001230493E8E75068BEF1C1
:10F9F000000F3FF468AF7045714617D0009E02E0DB
:10FA0000904205D01146CA69002AF9D100965AE7FA
:10FA1000884200960BD0C2690068CA61002A3FF490
:10FA200052AF116801441160AE464CE77046DEF8F3
:10FA30001C20964632B115464FF00108EBE7002630
:10FA4000059625E702F1804202F58832012797608A
:10FA50007546CDF818E004970197B846DBE7244BCC
:10FA60001D605EE7A8EB020222F07F428A4208D2C4
:10FA7000891A196088E7401A10601960DA61E36139
:10FA80009AE71F605F609F6083F810A0DF614EB14E
:10FA900030680021411A31600093DE611E46012367
:10FAA000019364E700931E46012301935FE76368B7
:10FAB0001A7C0492002A82D1A2685A60E168996097
:10FAC00007902069D86064699C61069C002C00F056
:10FAD000EB80049A5A60049400224DE72022002013
:10FAE0002122002024220020182200200C220020A5
:10FAF0002822002014220020FEFF7F00049B002B00
:10FB000040F0A681019B13B1804B009A1A607645A4
:10FB100000F0C080002E00F007817D4A7D49D2F8B8
:10FB200004050C783668A0EB080323F07F43033309
:10FB3000002C50D1784CDFF8E8E1784F4FF4803555
:10FB4000C2F84453C2F804534FF40035C4F880514E
:10FB5000256001241460DEF800502F2200BF00BF92
:10FB600000BF00BF00BF00BF00BF00BFBD422FD01D
:10FB700000BF00BF00BF00BF00BF00BF00BF00BF8D
:10FB800000BF00BF00BF00BF00BF00BF00BF00BF7D
:10FB900000BF00BF00BF00BF00BF00BF00BF00BF6D
:10FBA00000BF00BF00BF00BF00BF00BF00BF00BF5D
:10FBB00000BF00BF00BF00BF00BF00BF00BF00BF4D
:10FBC00000BF00BF00BF00BF00BF00BF00BF00BF3D
:10FBD000013AC3D10C709E422CBF08EB060343448C
:10FBE0004B4923F07F43C1F84035D1F80425121A60
:10FBF0001B1A22F07F4223F07F4303329A424DD9F1
:10FC0000D1F80435464AC1F84035126843492F23DC
:10FC100000BF00BF00BF00BF00BF00BF00BF00BFEC
:10FC20008A422FD000BF00BF00BF00BF00BF00BF8F
:10FC300000BF00BF00BF00BF00BF00BF00BF00BFCC
:10FC400000BF00BF00BF00BF00BF00BF00BF00BFBC
:10FC500000BF00BF00BF00BF00BF00BF00BF00BFAC
:10FC600000BF00BF00BF00BF00BF00BF00BF00BF9C
:10FC700000BF00BF00BF00BF00BF00BF00BF00BF8C
:10FC800000BF00BF013BC3D1234B4FF40032C3F888
:10FC9000002103E0059B002B7FF43CAF214A0023A9
:10FCA000137009B0BDE8F08F0798049064E6174B15
:10FCB000002477462546214620461B68DDF814E0DF
:10FCC000A7B13A68B24218D8FC683860B61A114435
:10FCD000FB693CB10BEB010222F07F42FD61BC608D
:10FCE0007A603D461F467446002FEAD1BE46002C7E
:10FCF0003FF42BAE054A136027E6BE46002C40F0C9
:10FD0000A480921BCEF800201FE600BF282200200E
:10FD1000001001401522002000E100E00024F40062
:10FD200098210020142200204B4A4C4B4C4D4D484A
:10FD30004FF480314FF400370124C3F88070C2F8CB
:10FD400048132F23C2F80813546029681D4600BFCA
:10FD500000BF00BF00BF00BF00BF00BF00BF8142A7
:10FD60002FD000BF00BF00BF00BF00BF00BF00BF5B
:10FD700000BF00BF00BF00BF00BF00BF00BF00BF8B
:10FD800000BF00BF00BF00BF00BF00BF00BF00BF7B
:10FD900000BF00BF00BF00BF00BF00BF00BF00BF6B
:10FDA00000BF00BF00BF00BF00BF00BF00BF00BF5B
:10FDB00000BF00BF00BF00BF00BF00BF00BF00BF4B
:10FDC00000BF013DC3D19460274A166000BF00BF49
:10FDD00000BF00BF00BF00BF00BF00BF81422FD0E7
:10FDE00000BF00BF00BF00BF00BF00BF00BF00BF1B
:10FDF00000BF00BF00BF00BF00BF00BF00BF00BF0B
:10FE000000BF00BF00BF00BF00BF00BF00BF00BFFA
:10FE100000BF00BF00BF00BF00BF00BF00BF00BFEA
:10FE200000BF00BF00BF00BF00BF00BF00BF00BFDA
:10FE300000BF00BF00BF00BF00BF00BF00BF00BFCA
:10FE4000013BC3D1094B1E7028E709490B6058E7F5
:10FE5000084B83F800C055E60010014000E100E0C7
:10FE6000982100200024F4002422002015220020E4
:10FE7000282200200C2200202DE9F0474FF0804579
:10FE80000124AC60D5F80441002CFBD012F003042F
:10FE900002D00720BDE8F087002AFAD05F4D604EFF
:10FEA000DFF88891DFF888C14FF4803E4FF40037C7
:10FEB0004FF00108C6F88070C5F848E32F27C5F851
:10FEC00008E3C5F80480D9F800E0B94600BF00BFD8
:10FED00000BF00BF00BF00BF00BF00BFE6452FD07E
:10FEE00000BF00BF00BF00BF00BF00BF00BF00BF1A
:10FEF00000BF00BF00BF00BF00BF00BF00BF00BF0A
:10FF000000BF00BF00BF00BF00BF00BF00BF00BFF9
:10FF100000BF00BF00BF00BF00BF00BF00BF00BFE9
:10FF200000BF00BF00BF00BF00BF00BF00BF00BFD9
:10FF300000BF00BF00BF00BF00BF00BF00BF00BFC9
:10FF4000B9F10109C2D1C5F8088000BF00BF00BFE8
:10FF500000BF00BF00BF00BF00BFE6452FD000BFFD
:10FF600000BF00BF00BF00BF00BF00BF00BF00BF99
:10FF700000BF00BF00BF00BF00BF00BF00BF00BF89
:10FF800000BF00BF00BF00BF00BF00BF00BF00BF79
:10FF900000BF00BF00BF00BF00BF00BF00BF00BF69
:10FFA00000BF00BF00BF00BF00BF00BF00BF00BF59
:10FFB00000BF00BF00BF00BF00BF00BF00BF013FC8
:10FFC000C3D1DFF870E0DFF870A0164FDFF86C9057
:10FFD000DFF86C80DFF86CC08EF80040CAF80030A3
:10FFE0004FF4801EE023B9703C707C70C9F800406B
:10FFF00088F800408CF800400B49C6F880E186F88C
:020000022000DC
:100000001433C6F800E0C5F8080586F81133D5F8B2
:1000100004350B607A602046BDE8F087001001408F
:1000200000E100E00C220020242200209821002082
:100030000024F4001522002008220020282200209D
:100040002022002021220020074B5B6823B12AB127
:1000500020B10368187C18B108207047072070474A
:1000600059745A61704700BF0C2200202DE9F043FB
:10007000274C636883B033B128B1042907D807201F
:1000800003B0BDE8F083082003B0BDE8F083436906
:10009000002BF8D0054602A86B7C0026012B00F847
:1000A000016D0CBF8946B14690460F4600F074F8CA
:1000B0006378A07821785A1CD2B2904208BF3246A9
:1000C00091421FD003EB43036068DB00C11819D0D5
:1000D0004FF0010E00F803E00E4B4D60D3F80435ED
:1000E0008B609DF80700CF60C1F81090C1F81480B4
:1000F000627000F077F8084B4FF480123046C3F876
:100100000021C1E79DF8070000F06CF80420BBE770
:100110000C2200200010014000E100E0F0B51C4E70
:10012000736883B053B348B343693BB3054602A831
:10013000002400F8014D2C7400F02EF87378B0788C
:1001400031785A1CD2B2904208BF2246914218D050
:1001500003EB43037168DB00CF1812D00220C854B0
:100160007D609DF80700727000F03CF8094B4FF479
:1001700080122046C3F8002103B0F0BD082003B070
:10018000F0BD9DF8070000F02DF80420F7E700BF50
:100190000C22002000E100E070B4EFF3108472B68E
:1001A0000D4B9A68AAB90D490D4E01259D60D1F8F5
:1001B000805035401D60C1F88060D1F884505D608A
:1001C0004FF0FF33C1F88430027004B962B670BCDE
:1001D000704701230370F8E7902B002000E100E056
:1001E000FC06FFBC094B9A6872B168B910B4EFF312
:1001F000108272B606491C680C605C684C6098609E
:1002000002B962B65DF8044B704700BF902B002026
:1002100000E100E0F0B52B4C2B4F6268668883B09C
:10022000002A48D036015388B9190333496802EBD4
:10023000830201F58050824225D21368013318BF32
:100240004FF6FF751FD09388AB4213D013888BB144
:1002500062601E485388868801681D480025033364
:1002600000959BB201EB86010325257001F048FA49
:1002700003B0F0BD5388033302EB8302824202D203
:1002800013680133DFD13E44B38963B10F4D104889
:1002900029680227052600230122AF80267001F07D
:1002A00085FA03B0F0BD0122094801F07FFA04236A
:1002B000237003B0F0BD3601BB19596801F1080283
:1002C000B7E700BFA42200203023002050230020E5
:1002D000A8210020F0B543688E464BB1324A14681D
:1002E000A34205D35268934202D813F003023AD0D6
:1002F00000232E4EAEF800304FF0010C4FF6FF7584
:100300007768002307F5805453B35A88033203EB10
:1003100082039C4217D91A68013214D09A88AA42E3
:100320000BD01A884AB1026899689142ECD1204AF0
:100330004360138903810120F0BD5A88033203EB27
:100340008203A342E7D30CF10103AEF800C01FFA09
:1003500083FCBCF1030F06F11006D1D10020F0BDE3
:1003600007F10803D5E7124C05892489A542BFD1BE
:1003700005689C68A542BBD10C4C6068834205D9D6
:1003800000F58050834201D2134608E0626993422F
:10039000E4D902F58052934238BF0123DED2AEF891
:1003A00000300120F0BD00BFA82100203023002034
:1003B000A4220020B3F804C0BCF1010F53D82DE9EA
:1003C000F0419046294A4FF6FF7702EB0C1E0022BF
:1003D0009EF80040002C33D11C68002C3ED065886C
:1003E000DEF80460033504EB850406F58056B4425C
:1003F00025D22568013522D0A588BD4219D025888F
:10040000BDB11C6018B1A6880588AE42E5D119B10E
:1004100026880D88AE42E0D1A268C8F800201A688C
:10042000134BC8F804201B89A8F808300020BDE849
:10043000F0816588033504EB8504B442D9D31A6092
:100440000CF1010C1FFA8CFCBCF1020FA3F804C0E4
:100450000EF1100EBCD10A20BDE8F081DEF8046078
:1004600006F10804C1E70A20704700BF30230020CE
:10047000A42200202DE9F04FA94C256FEF007E1B30
:10048000B6008BB0A25D013A824604EB0609052A4C
:1004900031D8DFE802F05C3E3E1D1D03002840F02D
:1004A000D580DFF8908298F80C30002B00F00A839A
:1004B00098F8003088F80C00013B062B1BD8DFE8C9
:1004C00013F00601BC02CE01AF011A00ED02C80212
:1004D000002840F0BB80A7EB050B04EB8B0B9BF8CF
:1004E0000480B8F1010F00F04883C0F03183B8F107
:1004F000020F00F011810F23A15D06938B1E012BCB
:1005000040F2AB80052A33D8DFE802F02F80695D26
:10051000938F7B1B04EB83038249B3F8128001EBBA
:100520000818002840F0AA80B8F808A0D8F80410ED
:100530001B7C01EB8A0A062B00F28C83DFE813F0A8
:10054000A701EA01D30130021902070204020028C0
:1005500040F08D8099F80430032B00F20681DFE82B
:1005600013F03F014C012F010B0100238DF81430D3
:100570006D4D05F1200655F8043F0BB105A89847CD
:10058000B542F8D1206FC0EBC00004EB80001C2204
:100590000021FEF7DDFF636F3BB1226F0132013BAB
:1005A00002F00302636722673BB9604A137823F0C5
:1005B000040313700BB0BDE8F08F0020FFF75AFF63
:1005C0000BB0BDE8F08F7B1B04EB83030322D3F851
:1005D0000610DB68089107938DF81420C8E77B1B91
:1005E00004EB830302211A7C1E899D88D868ADF82C
:1005F0002060A2F10603B3FA83F35B098DF824307F
:10060000ADF8225007908DF81410B1E77B1B04EB76
:100610008303012218899988DB68ADF82000ADF8C2
:10062000221007938DF81420A2E705238DF81430CB
:100630009EE77B1B04EB83030422DB88ADF82030AC
:1006400000238DF81420ADF8223091E7A15D01233D
:1006500006938B1E012B3FF655AF354B99F816606C
:10066000186C596C3044891B186459644AE72F4947
:100670000B7823F001030B7001233DE7DB88B8F80A
:100680000AE0B8F80800C3F57F41FD3103330344A5
:100690007144A8F80830A8F80A1001232CE7214B70
:1006A000B8F808101A781B7CB2FA82F2B3FA83F316
:1006B00052095B09013188F80A2088F80B300022C2
:1006C0000123A8F8081088F80C2088F8003098F862
:1006D0000A304BB1134A9389002188F80A101BB9DC
:1006E000927B002A40F0AD8298F80B304BB10D4B55
:1006F0009A8B002188F80B101AB99B7F002B40F0D1
:100700009F827A1B002314F8222088F80030013AD7
:10071000A8F80230C8F8043000230693F2E600BFC0
:10072000B82200203023002034220020A022002004
:1007300058220020A42200204FF001084FEA081898
:100740000AEB08034FF0000B5968CA4ACDF800B015
:100750000223C94800F0D4FF0AF808B000283FF48B
:1007600029AF7B1B14F82320013AC4490B7823F0EE
:1007700001030B700E23BFE6DFF80C83BD4AD8F8E7
:100780000010BD484FF0000A0223CDF800A000F091
:10079000B7FFBB4BBB495B88D8F800E089F804A0E1
:1007A0001B01CA1801F803A05368B8F80410C8F870
:1007B00000300223C2F804E01181A8F80430CDE72C
:1007C000DFF8C482AC48D8F800100023012200F002
:1007D000EDFF02220023A8F8042089F80430BDE7C9
:1007E000A94BAA4A1968A44800230093022300F0E9
:1007F00087FF012389F80430B0E7DFF888A29AF870
:100800000030022B00F023829AF81030022B93D094
:100810009A490B7843F0020323F001030B707BE746
:10082000B8F80230974A02EB03129389002B00F0CC
:10083000E281954B9048196802229A800522002394
:1008400088F80020012200F0B1FF0346002B3FF49E
:10085000B1AE1C2202FB05F2A25C013A4CE68A48CA
:10086000D8F80420D0F800E08188538882480EEB45
:1008700081014FF0000ECDF800E003334FF0030E7E
:100880009BB288F800E000F03BFF0346DEE7002360
:10089000321D5146224400937748012300F030FF77
:1008A0007B1B9B00E2180221117400283FF482AEEA
:1008B000E25C0E23013A791B04EB8101B8F80AC00F
:1008C000C988B8F808E0C1F57F40FD3003316044C5
:1008D0007144A8F80A00A8F8081041F61D518B428F
:1008E0003FF41AAF08E6002306F10C020AF10801F2
:1008F000224400936048012300F002FF7B1B9B0011
:10090000E218917D00290CBF0121032111740028F8
:10091000CED14FE6002306F108020AF10401224479
:1009200000935548012300F0EBFE7B1B9B00E11870
:10093000E25C032A0CBF052306230B7400283FF456
:1009400039AE013A0E23B6E741F61D53B3E7504BDB
:10095000504A5968484800230093012300F0D0FE14
:10096000002840F03F817D1B04EB8504062323749F
:1009700020E6A7EB050B4FEA8B0B04EB0B02444B75
:1009800092691A601846002205A95A60FFF7A2FC76
:1009900000287FF47CAF14F80B200A23013AABE562
:1009A000DFF8F4E0DEF844C0BCF1000F00F0F9809D
:1009B000DEF8401030485EF83120A7EB050B04EB61
:1009C0008B0B0EEBC103013101F00701CEF8401093
:1009D0000CF1FF3CBBF81410CEF844C04FF0000EF1
:1009E00003930AEB81019B88CDF800E000F088FEBC
:1009F000039A9BF816309188BBF81420013B0A44F7
:100A0000DBB2ABF814208BF8163013B901238BF846
:100A1000103000283FF4CEAD7A1B0E2314F82220AC
:100A2000013A48E7184AD8F80410938849880333F4
:100A30000B440221938088F80010FFF7EBFB03467C
:100A4000002B3FF4B7AD1C2202FB05F2A25C013A79
:100A500043E70D4B0D4A1968074800230093C8F877
:100A60000430072388F80030022300F049FE0346D3
:100A7000ECE600BF08940200A8210020A02200207C
:100A8000A4220020302300205023002010940200D4
:100A90002C2200200494020058220020B8F80230D2
:100AA000DFF8CCA11B019A4406200023DAF80410D9
:100AB000694A0093022388F80000684800F020FE8D
:100AC0000346C3E698F80030072B2CD801A151F853
:100AD00023F000BF9F060200270B0200270B020035
:100AE000250A0200FD0A0200530A0200530A02000E
:100AF000F50A0200012388F80030E8E5B8F8023072
:100B0000DFF86CA1564A1B010AEB03011068D1F80B
:100B100004C0B2F804E048600220C2F800C0A1F8A6
:100B200008E09080BFE7013B062B3FF6E4AC01A153
:100B300051F823F0CF0602003B0A02005F080200D2
:100B400021080200F70402009D0A0200530A020075
:100B5000DBF80C30CDF818A005A80DF11201CDF886
:100B60001CA00593FFF7B6FB00284ED10A237A1B81
:100B700004EB82020221117168E63A4B1B789B0755
:100B800012D402230822002137480393FEF7E0FC29
:100B9000039B0A2B7FF454AF7B1B14F82320013AEC
:100BA000BAE5DCF80030FFDEB01D2F4B204405AA6B
:100BB0005146FFF7FFFB03460028E3D143462B4A8B
:100BC0000699CDF800A0254800F09AFD264B284A4A
:100BD0009B8802EB031200280CBF53460E2382F8B9
:100BE0000E80D6E77B1B9B00E118E25C06230B74AA
:100BF000013A0E235FE651681848012200F0D6FD45
:100C00000422034688F8002020E60699174A8B88BC
:100C1000ABF806300888CDF800A00123ABF8080037
:100C20000E4800F06DFDBDF81230114A02EB0312C0
:100C300000284FF0010114BF0E230023917396E7A3
:100C40000123A8F80230FFF7E5FA0346F8E64FF073
:100C5000000873E50F232EE608940200A821002067
:100C600050230020A02200205C23002004940200D6
:100C7000302300200846FFF7FDBB00BF2DE9F04FF1
:100C80000D894C6885B00646002D00F0AB802068C9
:100C900010F0030005D091E054F83070BF0740F029
:100CA0008D8001308542F7D1002A00F08B80B2F8A8
:100CB00000A05288644FDFF8A0813868D8F874909B
:100CC000032B00F1010E03BF306803904FF0040BBB
:100CD0004FF0000BB9F1030FC7F800E05FD8DFF861
:100CE0007CC1DCF84400C5F10807B84257D8D8F8F1
:100CF000707002970F8849880191029900974944C2
:100D000001F00301C1EBC101890008EB010708F8FC
:100D10000130FA80BDF800203A81039ABA6109F1E6
:100D200001090023BDF80410B9804FF00302C7F891
:100D30000CE087F810B0A7F812A0BD75BA827B81CD
:100D4000C8F87490DDB1DCF84020024402F00702DC
:100D50000CEBC2020CF1380804EBC30103C90133E8
:100D600002F1080782E80300424514BF3A46624692
:100D70009D42F1D1DCF844302B44CCF844303EB1F4
:100D80000023324AC6F800E073601289B3723281E0
:100D90002F4A137813F0040442D000200BE02D4BAF
:100DA00003EB0A1AC2F57F42BAF80A30FD321A4440
:100DB000AAF80A20082005B0BDE8F08F032005B08E
:100DC000BDE8F08F04EBC505A08808340244A542B5
:100DD00092B2F9D1D01C80B240F2FD34A04205D9C4
:100DE0000920E8E7002A7FF462AF0320194C94F849
:100DF00000A0BAF1000F07D1678925893D44054459
:100E0000ADB2B5F5806F1DD3257C3DB9678B258BC1
:100E10003D440544ADB2B5F5806F09D30720CAE75C
:100E200043F0040320461370FFF724FB2046C2E77B
:100E30004FF0010A554604EB0514384460810D89D2
:100E40004C6837E75546F6E7B4220020A42200207C
:100E5000A022002030230020B822002058220020A9
:100E6000074A1378082B09D010B4591C054C11708F
:100E700044F8230000205DF8044B70470C207047B5
:100E800058230020382200202DE9F04FB04B8BB0C2
:100E90001A78002306930593079308930993930701
:100EA0000DD5AC4C04F1200554F8043F05A803B15E
:100EB0009847A542F8D100200BB0BDE8F08F12F0A2
:100EC0000106F8D1A24B42F001021A7000F0BCFBFF
:100ED000A14BDFF8A4C21968A04B01961D6801F56B
:100EE0004053083301F5805000930831B046B346B3
:100EF00051F8083C9A4A9342A1F1080428D0A1F184
:100F00000C0301F6F47E02E0734500F0FD8053F817
:100F1000042F0132F8D04FEA0813924A4FF003042D
:100F200008F10108D4541FFA88F8009B01F580519C
:100F3000994200F58050DBD1DA46002E40F0058161
:100F4000BAF1000F40F08A800B200BB0BDE8F08FA3
:100F500051F8043C844A934243D001329342CED1AB
:100F6000019B93B17F4B7F4F4FEA081903EB0902B6
:100F70004FF0020E08F10108DCF8003007F809E034
:100F80001FFA88F85360A2F808E00222CCF800406B
:100F9000ACF804200B68013300F0B48014464FF61F
:100FA000FF7E0A4602E01368013313D0938873452D
:100FB00006D0138823B19368AB4201D91D460126A0
:100FC000538803331C4402EB8302A4B29042ACF872
:100FD0000440E8D8022C00F0958008234BEA030B6C
:100FE000A3E7604F4FEA081307EB030E4FF0000929
:100FF000022207F80390CEF80440AEF808200293CE
:101000000B6801331ED00B464FF6FF7A11E09C6847
:10101000AC4201D9254601265C880334224403EB07
:10102000840392B29842AEF808200BD91C680134B0
:1010300008D09C88544502D01C88002CE7D14FF082
:101040000109E9E7029B474A134408F1010883F8C4
:101050000E901FFA88F84BF0020B66E7BAF1060F04
:101060005FFA8AF30AD0013B0A2B1CD8DFE803F0B1
:10107000191B191B441B441B41474100344B354C81
:101080001B78334A43F0020323F00103137004F189
:10109000200554F8043F05A803B19847A542F8D1AC
:1010A00009E700230393314A516F032912D8304BCB
:1010B0005B6C082B0ED8136F0B4403F00303C3EBD8
:1010C000C3039B00D0180124D45401319DF80C3087
:1010D000037151671E4B1B7813F004047FF4EBAED1
:1010E0001B4A43F0040320461370FFF7C3F9204660
:1010F000E2E603230393D6E701230393D3E7022316
:101100000393D0E7042369E7DCF80030ABB1154A5C
:101110004FEA081302EB030E164ACEF80440114CB6
:10112000A2F80280022208F10109E2541FFA89F8AC
:10113000AEF808204BF0010BF7E60223ACF80430C0
:101140000123CCF800400193F4E7044B1D60F7E65F
:10115000A022002034220020A8210020B422002058
:10116000DEC0ADDE30230020FE011EF1B8220020DB
:1011700058220020A42200205023002060B159B141
:1011800030B583B00C460DF106010546FFF7A2F815
:1011900020B90A2003B030BD05207047BDF80620F5
:1011A000074B686803EB021301219A890A449A816C
:1011B00020606B6800200C336360A97203B030BDFF
:1011C0003023002050B110B582B00DF10601044665
:1011D000FFF780F820B90A2002B010BD0520704743
:1011E000BDF80620084B03EB02139A8912B90620BA
:1011F00002B010BDA17A0029F9D00021013A9A81EC
:101200000846A172E8E700BF302300201D4B1B7881
:101210009B0702D402231846704740B1CB1C9BB2F7
:1012200040F2FD32934205D9092318467047052341
:101230001846704770B4144A157895B956891489C0
:1012400034441C44A4B2B4F5806F0AD22C4602EB9D
:10125000041233445381058041800023184670BC3A
:101260007047147C54B9568B148B34441C44A4B27C
:10127000B4F5806F02D201252C46E8E70723184613
:1012800070BC7047A022002030230020134B1B7835
:101290009B0702D4022318467047D0B10388022B63
:1012A00002D904231846704710B40D49428801EB57
:1012B000031359898C1A032C0DD4C2F57F42FD32D9
:1012C0000A4400215A810B46016018465DF8044B20
:1012D00070470523DFE70423F7E700BFA0220020C3
:1012E000302300200D4B1B789B0701D40220704750
:1012F00059B110B40C884FF6FF739C4201D04B8853
:101300002BB904205DF8044B704705207047022379
:1013100000225DF8044BFFF7B1BC00BFA022002003
:101320003AB130B40C4C2478A30704D4022030BC6A
:1013300070470520704769B10D884FF6FF74A542CC
:1013400001D04B8813B9042030BC7047022330BC55
:10135000FFF794BC0520EAE7A022002028B10E4A3E
:101360001278930703D402207047052070470029A4
:10137000FBD010B40C884FF6FF72944201D04B881A
:101380001BB904205DF8044B7047032300225DF86D
:10139000044BFFF773BC00BFA0220020F8B5194A28
:1013A0001378990701D40220F8BD4FF6FF718842E7
:1013B0001BD0154C656F032D19D81449496C0829A9
:1013C00015D8216F294401F00301C1EBC101890047
:1013D00066180527675401350121F0803171656772
:1013E00013F0040405D00020F8BD0420F8BD082047
:1013F000F8BD43F0040320461370FFF73BF8204686
:10140000F8BD00BFA0220020B822002058220020F2
:10141000F8B5164A1378990701D40220F8BD14488C
:10142000416F032918D8134C646C082C14D8046F2E
:10143000114D0C4404F00304C4EBC4042E780131B4
:10144000062700F8247041670EB10121297313F0BB
:10145000040403D00020F8BD0820F8BD43F00403C5
:1014600020461370FFF706F82046F8BDA0220020A2
:10147000B822002058220020A422002010B50C4CD5
:1014800082B0ADF806002078ADF80410810702D4D0
:10149000022002B010BD3AB133B101A90DF106002E
:1014A000FEF788FF02B010BD052002B010BD00BFDE
:1014B000A022002000B50D4B83B0ADF806001878CF
:1014C000830703D4022003B05DF804FB51B14AB195
:1014D000134600200A460DF10601FEF76BFF03B02C
:1014E0005DF804FB052003B05DF804FBA02200209A
:1014F00000B50D4B83B0ADF806001878830703D410
:10150000022003B05DF804FB51B14AB113460DF15E
:1015100006000A460021FEF74DFF03B05DF804FB0C
:10152000052003B05DF804FBA022002020B119B112
:1015300003680B60002070470520704729DF704763
:1015400028DF704770B50C4D696E042911D02B6EE1
:101550000B44032B88BF043B182202FB03540646AE
:101560004B1C204600216B66FDF7F2FF3460012022
:1015700070BD002070BD00BF6823002070B5304CE6
:10158000636E84B07BB1266E7500AB1904EBC303A8
:101590001A7A012A09D0022A26D19889FFF7D0FFAA
:1015A000112818D000BB04B070BDA8199A8ADB8A34
:1015B00004EBC000D21AC1680069B2F5806F4FEA2F
:1015C0008303B4BF92B24FF4806219441844FFF70A
:1015D000B5FF1128E6D11B4A137823F0020343F02C
:1015E0000403137004B070BD102268460021FDF79B
:1015F000AFFFAB1904EBC3031A7A012A17D0022AF2
:1016000009D19A89DB89ADF80A20D21A0123ADF8F5
:1016100008208DF800303544ED0062196359526896
:10162000019268469B680921984704B070BD1A6909
:101630009B8A029200218DF80010ADF80C30EAE789
:1016400068230020642300202DE9F0434FF010238D
:101650005D696B1C48D0DFF8A48098F800C01CF0CE
:10166000010F3ED1234F2448C01B000935D007EBA2
:1016700000113B4686461A681AB15A680AB10EF143
:10168000FF3E10339942F6D1BEF1000F25D000265F
:1016900000229146F4B23B4606E0596839B1013266
:1016A000904203F110030ED019680029F5D1597B3F
:1016B000494588BFD4B202F1010288BF89469042F1
:1016C00003F11003F0D12401E31901361A7B5D60A8
:1016D000B645A5EB0235E551DAD14CF0010C88F89E
:1016E00000C00020BDE8F0834FF080535D692D03FA
:1016F000B1E700BFA8210020B8210020642300200A
:101700002DE9F041264D2C78E60782B012D510B1B4
:10171000244CA04203D2022002B0BDE8F081224C4A
:10172000A042F8D252B149B142EA0104A40707D05D
:101730000620F1E7012002B0BDE8F0810320EBE7CD
:101740000468A14201D20520E6E7466801EB830464
:10175000A642F8D30BB90420DEE7804601A81E4656
:1017600014460F46FFF7EEFE08B90720D4E70199AB
:101770002B78C1F80080019A089848600121D46054
:1017800013F0060417619682117201D00020C3E79E
:1017900043F002032B70FFF7F1FE2046BCE700BFC9
:1017A00064230020A8210020B82100202DE9F04169
:1017B000244D2C78E40782B010D510B1224CA04201
:1017C00003D2022002B0BDE8F081204CA042F8D242
:1017D00041B1C1F30B043CB10620F3E7012002B094
:1017E000BDE8F0810320EDE70468A14201D20520A5
:1017F000E8E7466801EB0234A642F8D30AB90420B0
:10180000E0E7804601A81E4614460F46FFF79AFE01
:1018100008B90720D6E701992B78C1F80080019A12
:101820004E600220390B148213F00604918110726D
:1018300001D00020C6E703432B70FFF79FFE204630
:10184000C0E700BF64230020A8210020B8210020A9
:1018500020B1034B5B6E036000207047032070478C
:10186000682300202DE9F047B44FB54C3B78256E36
:10187000990784B040F18180022800F0DD800328C0
:1018800040F0D480AF4E33780133DBB2032B33709A
:1018900040F2AF804FF0000A1022514668464FEAEE
:1018A000450886F800A0FDF753FE08EB050304EB9E
:1018B000C303E9461A7A012A00F0F080022A09D10E
:1018C0009A89DB89ADF80A20D21A0123ADF80820E5
:1018D0008DF800304544ED00621963595268019259
:1018E0009B68484608219847626E013A6266002A62
:1018F00040F00D81236E3978013321F00201042B71
:101900003970236640F08F80002525668C4C234675
:10191000002A00F088804FEA450808EB050204EB36
:10192000C202117A012940D0022975D010226846DE
:101930000021FDF70DFE08EB050304EBC303E946A8
:101940001A7A012A00F08B80022A09D19A89DB8950
:10195000ADF80A20D21A0123ADF808208DF8003026
:101960004544ED00621963595268019248469B68EC
:101970000921984704B0BDE8F0875A0739D5626E4F
:1019800003F0FB033B70002A4DD043F002024FEA04
:1019900045083A7008EB050204EBC20208EB0503A8
:1019A000117A012904EBC303BED1D08A08EB0503E9
:1019B00004EBC3039A8A08EB050304EBC303121A72
:1019C000D9681B69B2F5806F4FEA8000B4BF92B24C
:1019D0004FF4806201441844FFF7B0FD112820D174
:1019E0003B7823F0020343F004033B7004B0BDE8EE
:1019F000F08705EB450304EBC303626E88E7F389C8
:101A0000B289318A01339BB201329942F381B281AA
:101A10006CD0636E3BB133469889FFF791FD112876
:101A2000DED0002882D104B0BDE8F08705EB450385
:101A3000626E04EBC3036BE74FEA450808EB05034E
:101A400004EBC3063F4A337A4FF0000A012B82F8B9
:101A500000A00DD0022BD2D03346626E58E71A692F
:101A60009B8A029200218DF80010ADF80C3077E7C8
:101A7000F08AB18A0B1AB3F5806FB4BF9BB24FF4F2
:101A8000806308EB0502184480B204EBC206814271
:101A9000F0820BD0636E002B88D1C4E71A699B8A51
:101AA0008DF800A00292ADF80C3013E768461022C2
:101AB0000021FDF74DFD337A012BE94634D0022B8E
:101AC00009D1F289B389ADF80A309B1A0122ADF829
:101AD00008308DF8002008EB0503DB00E218E3581E
:101AE0005268019248469B680021FCE66846102235
:101AF0005146FDF72DFD337A012BE946DFD13269DE
:101B0000B38A8DF800A00292ADF80C30E3E7256EA1
:101B10000135042D25663FF4F7AE4FEA450808EB82
:101B2000050304EBC303F8E63269B38AADF80C3061
:101B300000218DF800100292CDE700BF6423002041
:101B400068230020D0230020C30711D4810711D4BB
:101B5000420711D4030711D4C10611D4820611D44F
:101B6000430611D4C3094FF6FF7018BF0720704712
:101B70000020704701207047022070470320704703
:101B8000042070470520704706207047E8B1E1B196
:101B900010B40488944227D04488944226D0848884
:101BA000944225D0C488944224D00489944223D0FE
:101BB0004489944222D08489944207D0C0899042BB
:101BC00008BF072003D05DF8044B704706200122B0
:101BD00023B10B78824013430B70F4E70B788240FB
:101BE00023EA02030B70EEE70020F0E70120EEE7A6
:101BF0000220ECE70320EAE70420E8E70520E6E717
:101C00002DE9F0439DF81C4008B301B3FAB10588F3
:101C10009D4200F0E88045889D4200F0EA8085887A
:101C20009D4200F0E880C5889D4200F0E68005896D
:101C30009D4200F0E48045899D4200F0E280858964
:101C40009D4206D0C089984208BF072002D0BDE857
:101C5000F083062001238340DBB2002C5FD14E428B
:101C600006F00306964228BF1646042A00F2B28008
:101C700014460878DD43EDB22840012C087000F0CE
:101C8000B6804878022C00EA0500487000F0AF806A
:101C90008878042C00EA0500887040F0B880C87885
:101CA0000540CD702646A242D1D0A2EB040EAEF183
:101CB0000407551EBF082D1B0137022D4FEA870C64
:101CC0001AD9002563F3070563F30F2563F317455E
:101CD000081963F31F65ED43A0F104094FF00008F4
:101CE00059F8044F08F101082C40B84540F8044B5E
:101CF000F6D3E6456644AAD0D8438B5DC0B2741CC7
:101D00000340A2428B55A2D90D5DB31C05409A42F7
:101D10000D557ED9CA5C1040C854BDE8F0834842D6
:101D200000F00300904228BF1046042A57D81446FA
:101D30000878012C40EA0300087056D04878022C3D
:101D400040EA0300487050D08878042C40EA030031
:101D500088705AD1C8781843C8702046A24252D021
:101D6000A2EB040EAEF10406551EB6082D1B01367B
:101D7000022D4FEA86081AD94FF0000C63F3070CC6
:101D800063F30F2C0C4463F3174C63F31F6CA4F143
:101D90000409002759F8045F01374CEA0505BE42E3
:101DA00044F8045BF6D8C64540443FF450AF0D5CA0
:101DB000441C1D43A2420D547FF649AF0D5D023015
:101DC0001D4382420D557FF642AF0A5C13430B540C
:101DD000BDE8F083002E3FF468AF344649E704467F
:101DE0000028BDD0A4E7002034E72046B6E7264609
:101DF00059E701202EE702202CE703202AE70420E0
:101E000028E7052026E7BDE8F0830320A6E70326A0
:101E100049E7BDE8F08300BFD0B1038893421ED0EC
:101E2000438893421DD0838893421CD0C388934239
:101E30001BD0038993421AD04389934219D08389D6
:101E4000934206D0C389934208BF072002D00020E6
:101E50007047062041FA00F000F0010070470020B2
:101E6000F8E70120F6E70220F4E70320F2E7042078
:101E7000F0E70520EEE700BF00293AD012F0010399
:101E800030B402D00B8883800123950704D500EB82
:101E900043044D88A5800133540704D500EB430467
:101EA0008D88A5800133150704D500EB4304CD8848
:101EB000A5800133D40604D500EB43040D89A58029
:101EC0000133950604D500EB43044D89A580013309
:101ED000540604D500EB43048D89A5800133D20953
:101EE00004D000EB4302C98991800133036030BC08
:101EF00070470160704700BF054A4FF0A043105C77
:101F0000D3F8043523FA00F0C04300F00100704715
:101F10001C940200044B195C4FF0A04201238B403B
:101F2000C2F80C35704700BF1C940200044B195CCA
:101F30004FF0A04201238B40C2F80835704700BF24
:101F40001C9402004FF0A04310B44FF480204FF4D3
:101F500000344FF400214FF48012C3F80845C3F851
:101F60000805C3F80815C3F808255DF8044B704749
:101F70004FF0A04310B44FF480204FF400344FF4DE
:101F800000214FF48012C3F80C45C3F80C05C3F8C8
:101F90000C15C3F80C255DF8044B7047074B4FF048
:101FA000A041185CD1F804350122824022EA0300E6
:101FB0001340C1F80805C1F80C3570471C940200A5
:101FC00030B44FF0A04303224FF400354FF4802487
:101FD0004FF400204FF48011C3F84427C3F848277A
:101FE000C3F84C27C3F85027C3F80855C3F8084571
:101FF000C3F80805C3F8081530BC7047054A4FF010
:10200000A043105CD3F8103523FA00F0C04300F071
:1020100001007047189402000D2809D00E2809D03D
:102020000F2809D010280CBF03204FF0FF30704755
:10203000002070470120704702207047014B185C58
:10204000704700BF1894020010B51A4B1A6882B08E
:10205000A2B100221A601B6800934FF08043012256
:10206000154C0099C3F80823A368627033B10CCBF8
:102070000020A2609847A368002BF8D10F4B1A6884
:10208000AAB100221A601B6801934FF0804302221C
:10209000094C0199C3F8082323690122A27033B1C6
:1020A0000CCB0120226198472369002BF8D102B0A4
:1020B00010BD00BF00010040D423002004010040F7
:1020C00058B910B5054CA36833B10CCB0020A26001
:1020D0009847A368002BF8D110BD7047D423002087
:1020E00010B582B002A80023144C00F8013DFEF7A1
:1020F00053F8237853B1E3689DF8070001330122B8
:10210000E360A270FEF76EF802B010BD0C4A636087
:10211000E3601068A36010F0010023610AD007F0AB
:102120009BF820B94FF080430122C3F81825012302
:102130002370E0E7072100F005F8F0E7D423002042
:1021400000E100E0002810B418DB00F1604303F563
:1021500061434901C9B283F80013C3B2400980004A
:1021600000F1604000F5614003F01F02012393403D
:10217000C0F8803103605DF8044B7047C3B2044A75
:1021800003F00F0449012244C9B21176E6E700BF0B
:10219000FCEC00E030B51D4C94F8545083B015B100
:1021A000082003B030BD4FF0FF33FF220721062087
:1021B00023636363A363E36323646364A364E364EB
:1021C00023606360A360E36023616361A361E361F3
:1021D000236284F850306362A36284F85230E36271
:1021E00084F8533084F85120FFF7ACFF084B094ABC
:1021F0001D601B68019301984FF0004301212846A0
:1022000084F85410C2F8043303B030BDE823002032
:102210007C61004000600040034B93F854000030A4
:1022200018BF0120704700BFE8230020F0B55E4CC6
:10223000251895F93030002B01DB0820F0BD91F80E
:1022400003E0BEF1000F50D02368013300F0A680F8
:102250000826012554F8253001334CD06B1C54F866
:102260002370013748D0AB1CB3423CD254F82370E2
:10227000013741D0EB1CB34235D254F823700137FB
:102280003AD02B1DB3422ED254F82370013733D0ED
:102290006B1DB34227D254F8237001372CD0AB1DED
:1022A000B34220D254F82370013725D0EB1DB3423E
:1022B00019D254F8237001371ED005F10803B34238
:1022C00011D254F82370013716D005F10903B34237
:1022D00009D254F8237001370ED00A35B54202D224
:1022E000E36A013358D00420F0BD236A01332DD0B6
:1022F0000C260925AEE72B4626185DB244F82320AC
:1023000086F83050BEF1000F26D08B78A3B94A78FA
:102310004FF0A04600F5E073920046F82320CB78FA
:10232000F3B9083D2C44097894F8502042EA811210
:1023300084F850201846F0BD830003F1A043D3F881
:10234000002722F00202C3F80027E8E7082685F8F4
:102350003060334622623546234483F84800D4E790
:10236000AB0003F1804303F5C0430978D3F810456F
:1023700024F4473424F44074C3F8104502020904DD
:10238000D3F8100501F4403102F4F8520A43024335
:10239000C3F810250020F0BD0B23ADE7002385F81E
:1023A000303022601D46B0E7E8230020F0B42E4D07
:1023B0002E1882B096F93030072B1CDD2B4493F891
:1023C00048309B09032B41D0012B14BF4FF44031FF
:1023D0004FF40031800000F1A040D0F8002722F433
:1023E0004032C0F80027D0F800370B43C0F8003760
:1023F00002B0F0BC7047DAB2072AF9D8980000F1B1
:10240000804000F5C04003F140029200D0F8104532
:1024100092B202F18042002744F0010402F5C0426A
:10242000C0F810450197019817600029E0D096F98F
:10243000302055F82220002ADAD001220B4902FA76
:1024400003F3C1F8043302B0F0BC70474FF0A0436F
:10245000D3F81035C34013F0010F0CBF4FF4003117
:102460004FF44031B6E700BFE82300200060004091
:102470004FF0A043D3F8103523FA00F000F001002C
:10248000704700BF2DE9F04F87B00023CC4A01937D
:102490001168012900F00A821E46CA4B1A68012AF7
:1024A00000F0F681C84B1A68012A00F0E381C74B9F
:1024B0001A68012A00F0D081C54B1A68012A00F081
:1024C000BD81C44B1A68012A00F0AA81C24B1A6868
:1024D000012A00F09781C14B1A68012A00F084811B
:1024E000BF4B1A68012A00F05E8116F0FF0F1AD068
:1024F000BC4F01250024A30003F180432E4203F5C5
:10250000C0434FEA45050BD0D3F8100557F82420F7
:10251000D3F81015C0F30420C1F3014102B1904774
:102520000134082CE7D1002E02DB07B0BDE8F08FA4
:1025300000224FF0FF33AB4C02920393012502AE11
:1025400094F950104F1C2DD0C9B221F0C00006AB39
:102550004FEAD00E03EB0E0701F0070317F80C2C1F
:1025600005FA03F31A421DD02218890992F9302086
:1025700054F82220002A00F0F080032900F0F080B7
:102580004FEA800E0EF1A04E17F814CCDEF800775B
:102590001CEA0303C7F3014940F0B880B9F1030F07
:1025A00000F0D7814FF0030A4FF002094FF0010805
:1025B000002794F95110481C2DD0C9B221F0C00059
:1025C00006AB4FEAD00C03EB0C0E01F007031EF82C
:1025D0000C2C05FA03F31A421DD02218890992F92E
:1025E000302054F82220002A00F0CA80032900F08D
:1025F000CA804FEA800C0CF1A04C1EF814BCDCF829
:1026000000E71BEA030FCEF3014E40F09080BEF1CD
:10261000030F00F08A8194F952104A1C2CD0C9B2E1
:1026200021F0C00006AB4FEAD00C03EB0C0E01F01A
:1026300007031EF80C2C05FA03F31A421CD02218CB
:10264000890992F9302054F82220002A00F08F8066
:10265000032900F08E804FEA800C0CF1A04C1EF88C
:1026600014ACDCF800E71AEA030FCEF3014E6AD18E
:10267000BEF1030F00F0468194F953104B1C2CD08F
:10268000C9B221F0C00006AB4FEAD00E03EB0E0238
:1026900001F0070312F80CCC05FA03F31CEA030F50
:1026A0001BD004EB000C89099CF930C054F82C9025
:1026B000B9F1000F6ED003296ED04FEA800E0EF1F3
:1026C000A04E12F814CCDEF800271CEA030FC2F368
:1026D000014211D1032A00F0F580002F3FF425AF0D
:1026E0004FF0A043019AD3F810359A423FF41DAF42
:1026F000029A0193039223E7022AEED1032900F004
:102700004681B9F1000FE8D0C847E6E7B9F1020FFA
:102710007FF448AF032900F043814FF0030A4FF0E4
:1027200001080027002A3FF444AF904741E7BEF17B
:10273000020F7FF470AF032900F02C81002A3FF4D0
:102740006AAF904767E7BEF1020F95D1032900F009
:102750002481002A90D090478EE703297FF422AF8E
:1027600016F80EC04CEA030C06F80EC008E7032961
:1027700082D116F80CA04AEA030A06F80CA06AE710
:1027800003297FF448AF16F80CB04BEA030B06F8A8
:102790000CB02EE70329A0D116F80EC04CEA030CAA
:1027A00006F80EC089E700221A601B6805934FF0F7
:1027B000A043059AD3F81035019346F0004694E6FD
:1027C0000061004004610040086100400C6100406D
:1027D0001061004014610040186100401C6100401D
:1027E0007C610040E82300206F4AD2F804231206DF
:1027F0007FF576AE00221A601B680493049B46F0B6
:1028000080066DE6684AD2F8042351067FF563AE70
:1028100000221A601B680493049B46F040065AE6A7
:10282000614AD2F8042390067FF550AE00221A6068
:102830001B680493049B46F0200647E65A4AD2F8E8
:102840000423D4067FF53DAE00221A601B68049372
:10285000049B46F0100634E6534AD2F804231507C9
:102860007FF52AAE00221A601B680493049B46F091
:10287000080621E64C4AD2F8042357077FF517AE25
:1028800000221A601B680493049B46F004060EE6BF
:10289000454AD2F8042392077FF504AE00221A605D
:1028A0001B680493049B46F00206FBE53E49D1F801
:1028B000046316F001063FF4F0AD1360136804934F
:1028C000049BEAE503297FF41CAF4FF40032DEF8E5
:1028D000003723F44033CEF80037DEF800371343D7
:1028E000CEF80037B9F1000F01D047460CE74FF0A2
:1028F000A043019AD3F8103593427FF4F9AE07B0A4
:10290000BDE8F08F03297FF424AF4FF40037DCF8E3
:10291000003723F44033CCF80037DCF800373B4372
:10292000CCF800374746C84613E703297FF406AFC3
:102930004FF40037DCF8003723F44033CCF800378D
:10294000DCF800373B43CCF800374746C846D14651
:10295000F4E6032906D0CA461F464FF002094FF09D
:102960000108DFE64FF40037DEF8003723F4403388
:10297000CEF80037DEF800373B43CEF800374FF093
:10298000040A4FF003094FF002080127CAE64FF48A
:1029900040329CE74FF44037CCE74FF44037B6E77E
:1029A0004FF44037E0E700BF0060004070B5A54C31
:1029B000237F8EB0002B73D1A34AD2F8041389056C
:1029C00046D4A14BD3F80423520704D5D3F80821E9
:1029D000002A40F0C9809C4BD3F81C21BAB1A28ACE
:1029E000A17D92B28A424FF00002C3F81C2180F010
:1029F000A880D3F81C210692069AA18AA28AA06810
:102A000089B20132415C92B2A282C3F81C158E4B8E
:102A1000D3F84421D2B10022C3F84421D3F84411A1
:102A2000A27E04910499002A40F08880E37D6BB176
:102A30000023617EE268E37501238DF830108DF884
:102A400028300B9294E80A000AA898470EB070BD8F
:102A5000D2F824110029B4D0C2F82431D2F82411BC
:102A6000A37E07914FF401710798C2F808130BB9C0
:102A700001235360744A02238DF82830D2F8803441
:102A8000C2F88034E07DE2680D9300238DF83000B9
:102A9000E375237621680B9263680AA898479AE742
:102AA000694BD3F82421002A40F09280D3F810110A
:102AB00061B1C3F81021D3F8101103910399D3F831
:102AC0003C15E07DC9B2884200F0A4805E4BD3F88B
:102AD0004421B2B10022C3F84421D3F84401E17D7E
:102AE0000190019869B1D3F83C35E1688DF8303038
:102AF00001230B918DF82830E27594E80A000AA8AA
:102B00009847514BD3F82021002A9FD00022C3F8C8
:102B10002021D3F82001A17D00900098002995D0B4
:102B2000D3F84C15A3688DF830100B938DF828203E
:102B3000A27594E80A000AA8984787E701221A605C
:102B400074E7D3F81C310593059B00293FF45FAF70
:102B5000A3688DF830100B938DF82820A27594E8A7
:102B60000A000AA8984752E7E27D002A6ED00022A8
:102B7000C3F80821D3F808210892089AE168627E18
:102B8000D3F818358B54637EE27D0133DBB2637674
:102B9000637E93427FF41FAF237E002B6CD1A37E14
:102BA00013B9294B01225A60274AE06863684FF441
:102BB0000171C2F80813627E8DF8302000250122D1
:102BC0000B902168E5758DF828200AA8984702E740
:102BD0000022C3F82421D3F82411029102218DF898
:102BE00028100299D3F88014C3F880140D91D3F8FB
:102BF0003C15E368E27522768DF830100B9321685E
:102C000063680AA89847104BD3F84421002A3FF480
:102C100078AF5FE7217E11B3D3F80062E568E17514
:102C200026F02006C3F8006226698DF830000123E3
:102C30008DF82830227621680B95E66063680AA833
:102C4000984743E74024002000200040C3F80821B3
:102C5000D3F8081109910999D3F8183598E7E26873
:102C6000E17501238DF830008DF828300B9294E83F
:102C70000A000AA8984729E7607EE5682169E3759C
:102C8000012200238DF83000E160237663760B95F6
:102C90008DF8282094E80A000AA898479BE600BF10
:102CA0000220FFF77BB900BF2DE9F0470D4606462D
:102CB000FFF7B2F903281ED8012D04461FD00ED30A
:102CC000022D1AD11D4B00EB40041C44657895B1D0
:102CD0001B4B1B687BB12846BDE8F04718471948D5
:102CE000FDF71CFA154B184A04EB44010B44125D26
:102CF0009D78AA42EBD0BDE8F087BDE8F0870F4F82
:102D00004FEA400808EB0003FA18FD5C53782BB932
:102D1000A04447440C4BBA781A55D8E70B4BDFF860
:102D200030901968074801EB810149004A46FDF7D8
:102D30009DF90028ECD189F80060E9E7A82400207B
:102D4000DC24002088240020E424002084240020A7
:102D5000602400207F4B1B68DB0700D4704770B5F0
:102D60007D4E7E4D33782C789BB9172C10D8DFE838
:102D700004F0666B6B879CB0C2AA241524158231BF
:102D80003131313151565ECF0C0CFFF7F1F82C7018
:102D900070BD00233370FFF7D5F8E6E7012318462E
:102DA0003370FFF7FBF86E4B6E481968002201EB99
:102DB0008101BDE87040FDF759B901231846337011
:102DC000FFF7ECF8664B674819680022BDE87040D1
:102DD000FDF74CB96448FDF7A1F9D4F1110402469E
:102DE00000F0A180002840F09E80012C0DD0C82367
:102DF0005E4D5B495C48096803FB04F3A5FB034394
:102E00005B0901FB03F1FDF731F90220BDE87040D9
:102E1000FFF780B8FFF796F812232B7070BDFFF70D
:102E200091F80020FFF776F813232B7070BDFFF7A1
:102E300089F80120FFF76EF814232B7070BDFFF79F
:102E400081F800232B7070BD0020FFF755F8002893
:102E500079D00020FFF76AF8022C14BF2823122330
:102E60003F4A2C7011683F4801FB03F10022BDE886
:102E70007040FDF7FBB8FFF77BF80C232B7070BD9B
:102E80000020FFF739F8002856D00020FFF74EF851
:102E90000822334B3348196803232B7001FB02F1DE
:102EA000BDE870400022FDF7E1B80020FFF724F8EC
:102EB00000283DD00020FFF739F82822284B294868
:102EC00019680423E9E70020FFF724F807232B7093
:102ED00070BD0020FFF710F890B30020FFF726F830
:102EE0001F4B2048196805232B7049000022BDE8BC
:102EF0007040FDF7BBB80020FFF750F8184B194899
:102F0000196806232B700022BDE87040FDF7AEB8AB
:102F1000FFF718F80020FEF7FDFF0120FEF7FAFF8B
:102F200015232B7070BD0220BDE87040FEF7FEBF78
:102F3000FEF7F0FF0422C1E7FEF7ECFF0222A8E74C
:102F4000FEF7E8FFCCE7FEF7E5FF022C14BF0423F1
:102F5000022385E7B4240020B8240020E0240020C8
:102F600084240020BC240020642400201F85EB5111
:102F700010B50078FFF750F803280BD8064B00EB8C
:102F800040001844407828B1044B1B6813B1BDE8D9
:102F90001040184710BD00BFA8240020DC240020EA
:102FA000FFF72CB8904B1A6812F0010201D11046BD
:102FB000704730B58D4D2B7883B00446E3B9172C9C
:102FC00000F20F81DFE814F0DB00E100E1005400C3
:102FD00068007C008E003F002D001D002D001D00AC
:102FE0009900A000A000A000A000A000C000C700A1
:102FF000D10047003700370000232B70FEF7A2FFF7
:10300000DDE7012318462B70FEF7C8FF784B79489F
:103010001968002201EB810103B0BDE83040FDF7E3
:1030200025B8012318462B70FEF7B8FF704B714886
:1030300019680022F0E7FEF79BFF6F4B00221C701F
:10304000104603B030BD0020FEF764FF6A4B072234
:103050001A700022F4E7FEF775FF0020FEF75AFF12
:103060000120FEF757FF644B15221A700022E7E794
:103070000020FEF741FF002800F0AF800020FEF79F
:1030800055FF08225A495C4B09685A48032401FB42
:1030900002F11C700022BFE70020FEF72DFF002880
:1030A00000F094800020FEF741FF28225049524B47
:1030B00009685048042401FB02F11C700022ABE7B0
:1030C0000020FEF719FF002800F084800020FEF7A2
:1030D0002DFF474A484B1168464805244900002205
:1030E0001C7099E70020FEF759FF414A424B1168D6
:1030F0004048062400221C708EE7FEF739FF3E4B45
:103100000C221A7000229BE73C48FDF707F8D4F127
:10311000110402464DD000284BD1012C0ED0C823FB
:10312000374D33493548096803FB04F3A5FB0343D6
:103130005B0901FB03F1FCF799FF024602200192B3
:10314000FEF7E8FE019A7BE7FEF7FCFE2A4B12220F
:103150001A70002274E7FEF7F5FE0020FEF7DAFE93
:10316000254B13221A7000226AE7FEF7EBFE0120BE
:10317000FEF7D0FE204B14221A70002260E7FEF703
:10318000E1FE1D4B00221A705AE70020FEF7B4FE44
:10319000A8B10020FEF7CAFE022C14BF2823122378
:1031A0001349154A09681470124801FB03F1002203
:1031B00032E702200192FEF7B9FE019A40E7FEF7DE
:1031C000A9FE022C14BF04230223E9E7FEF7A2FEA6
:1031D00004226BE7FEF79EFE7BE7FEF79BFE0222D2
:1031E00050E700222CE700BFB4240020B8240020C0
:1031F00084240020BC240020E0240020642400203B
:103200001F85EB51F0B5214D214E224B286004461D
:1032100010F0020083B031601A6012D01E4B1F48BC
:103220004A080F270E21102611251970DF7004217E
:103230009E715D72FCF71AFAA0B1E3071DD403B0CA
:10324000F0BDE20719D4164A16480021FCF7FCFE2F
:103250000028F4D1144A1548012103B0BDE8F0401C
:10326000FCF7F2BEFCF75CFA0028E6D10146104AF2
:103270001048FCF7E9FEE10703D50190FEF7A0FE38
:1032800001980028DFD003B0F0BD00BFB4240020B7
:1032900084240020DC240020A824002020940200A4
:1032A000552D020048940200A12C02004094020017
:1032B000712F020044940200032801D907207047AF
:1032C000012A12D0012917D008D30229F6D10D4BBB
:1032D00000EB4000034400205A707047094B00EB9C
:1032E0004000034400209A707047012901D0002259
:1032F000E8E700F10E02D2B200EB400301490020E2
:10330000CA547047A824002008B5FEF797FE800035
:1033100000F1A0430020D3F8002722F44032C3F884
:103320000027D3F8002742F44032C3F8002708BD35
:1033300008B50020FFF7E8FF10B1062800D008BD4F
:103340000120FFF7E1FF0028F9D0062808BF002080
:1033500008BD00BF10B50388102B08D0112B05D174
:10336000264B18680138186038B110BD10BD234CC9
:10337000216881B10131216010BD01220221FFF7D6
:103380009BFF48B3072827D01D4B1B68002BECD0B0
:10339000BDE81040184701220846FFF78DFF48B1ED
:1033A000072807D0164B1B6803B1984721680131E5
:1033B000216010BD072202210120FFF77DFF08B127
:1033C0000728EFD1042202210020FFF775FF002813
:1033D000ECD00728E6D1E9E7072202210120FFF718
:1033E0006BFF08B10728CFD1002108460A22FFF75A
:1033F00063FF0028B9D00728C6D110BDEC240020F7
:10340000E8240020194B10B5186031B101200C469A
:10341000FFF7C6FD30B102232370154B186848B181
:10342000002010BDFFF7BCFDE8B9114B20701868F3
:103430000028F5D101220221FFF73EFF08B107283D
:10344000EFD1072202210120FFF736FF08B107283C
:10345000E7D1002108460A22FFF72EFF0028DFD01F
:103460000728DED1DCE70B232370D6E7E824002011
:10347000EC24002076DF70477ADF70477CDF7047EE
:10348000A8DF7047ADDF704767DF704732DF7047F6
:103490003EDF7047FCF75AB910B50446FEF7E2F973
:1034A0002046BDE8104001F05DB900BF10B50446EC
:1034B00084B001F0E9FA204604F01EFB204601F03A
:1034C00087FA2046FFF746FF23883B2B24D010D9EC
:1034D000552B50D0562B1FD0512B05D1A3791BB1A2
:1034E000A27B043A022A28D9204601F0DBF804B076
:1034F00010BD102B31D0112B19D0022BF4D100218B
:10350000A088FFF7C1FF0028EED0FCF71FF9204686
:1035100001F0C8F804B010BD1321A088FFF7AAFF7E
:103520000028F2D1204601F0BDF804B010BD002003
:10353000FFF738FD0028D7D0E7E7022B18BF01239B
:103540004FF4C1726946A0888DF80030ADF80420B0
:10355000FFF796FF0028C7D0D7E70720FFF722FD27
:1035600008B1FCF7F3F8074BA2881A80204601F057
:1035700099F804B010BD1721A088FFF783FF002839
:10358000B2D0C2E78C21002000B50378043B83B0A1
:103590000A2B0DD8DFE803F027150F0C230C0F06BC
:1035A0000F0C1E00032001F05DF808B1FCF7CEF807
:1035B00003B05DF804FB80680028F7D103B05DF824
:1035C00004FBFDF725FF0E280346F1D033F0080376
:1035D000EED0EBE704F012FB03B05DF804FB0069EA
:1035E0000028E5D0E2E702A9002301F8043D408865
:1035F00004F002FB03B05DF804FB00BF08B50378DC
:1036000003B108BD054B3B211888FFF733FF0028A5
:10361000F7D0BDE80840FCF799B800BF8C21002026
:10362000072808B51CD00A280ED0042800D008BDF1
:10363000144B13211888FFF71DFF30F00803F6D054
:10364000BDE80840FCF782B80020FFF7ABFCB0B93A
:10365000FFF76EFE80B9FFF719FF0028F0D108BD13
:10366000084B1A884FF6FF739A42E0D101F0AAF88E
:1036700030F00803DBD0E3E7FCF768F8EBE7FCF792
:1036800065F8E5E78C21002008B530B1032803D1A7
:103690000220FFF787FC50B908BDFFF783FC50B943
:1036A000FFF746FE50B9FFF7F1FE0028F4D0BDE861
:1036B0000840FCF74BB8FCF749F8F1E7FCF746F88F
:1036C000F1E700BF70B500239AB018467B4A052188
:1036D000FCF7D2FB08B1FCF739F8794A40F6CD4146
:1036E0000320FFF78FFD08B1FCF730F80BA900208D
:1036F000FFF788FE08B1FCF729F8724B72491A6887
:103700009DF82C501AAC002344F85C2D5022204622
:1037100005F0A8FD08B1FCF719F80BAA012100205B
:1037200005F016FE08B1FCF711F817230BA8ADF849
:103730003C3005F025FE08B1FCF708F8634805F0B9
:10374000DBFD08B1FCF702F8614805F0DFFD08B1C8
:10375000FBF7FCFF04F0E2F908B1FBF7F7FF022DDD
:1037600000F0A380052200210BA8FBF7F1FE9DF8D5
:103770002C309DF82F109DF8302043F001030320DA
:1037800003F0F10360F30613014302436FF3C71321
:10379000072610250BA88DF82C308DF82F108DF8EA
:1037A00030208DF82D608DF82E5004F01BFA08B1F2
:1037B000FBF7CCFF474804F0F9F908B1FBF7C6FF67
:1037C0009DF80C304448012262F3030362F30713AF
:1037D0008DF80C3005F0FEFD3F4982B22046FFF720
:1037E0004DFE08B1FBF7B2FF082200210BA8FBF742
:1037F000AFFE3A4B0B930BA84FF0C8730C93FFF737
:103800003BFE08B1FBF7A2FF3C2200210BA8FBF70F
:103810009FFE02220125324B8DF82C200626202205
:10382000002120468DF82F6010938DF82E50ADF8B2
:103830003C50FBF78DFE002122464FF49676B424CF
:103840000091284B8DF80F500BA80796089400F0B4
:103850004DFE08B1FBF77AFF1C2200210BA8FBF7F5
:1038600077FE4FF4203600234FF4702503241E49C1
:103870001E4A0B930BA8ADF83A308DF83C300C96ED
:103880000D958DF838401091119201F067F808B14C
:10389000FBF75CFF032000F0E5FE18B9FFF7F8FD29
:1038A0000028FBD0FBF752FFF8E704F0AFF900283F
:1038B0003FF458AFFBF74AFF54E700BFF024002065
:1038C000213602004C94020068250020AD3402002D
:1038D0009934020089350200509402005000A00083
:1038E0008821002089360200FD350200953402004F
:1038F0006DDF704772DF704779DF70477DDF70479B
:1039000065DF70472DE9F04F85B00488DDF8388019
:10391000BDF83CA0B8F800500195002C57D099464E
:10392000002317468B4605461C4603E02A880134CF
:10393000A24228DD6A6852F82400039000220DF1AB
:103940000B0103A8FFF7DCFF064630BB9DF80B20F8
:10395000BA42EBD12BB3B8F80020D31953451BDC86
:103960004A440DF10B0103A80123FFF7C9FF98BBDF
:10397000B8F800109DF80B200A44A8F800202A8807
:103980000134A242D6DC13B3B8F80030019A013BEF
:103990009B1A9BB2FF2B17D90C26304605B0BDE809
:1039A000F08FB8F800305A1C3B440233534592B2B2
:1039B000F2DCA8F8002009F802B0B8F800200132C3
:1039C00092B2A8F80020CBE709F80230E5E700261C
:1039D000304605B0BDE8F08F0646304605B0BDE87C
:1039E000F08F00BF2DE9F04700231788138090F86F
:1039F0002D3084B0144605460E46002B49D1AA78D6
:103A0000002A70D1EA78002A2ED16A68A2B1D91CA6
:103A1000B94225D8022192F90020F15423880133BC
:103A20009BB20A212380F154238801339BB2238067
:103A3000F2542388013323802B89002B40F02A8104
:103A40002B8A002B40F03F812B8B002B40F05481C0
:103A50002A6A002A00F0A78021888B1DBB4262D908
:103A60000C2004B0BDE8F087D91CB942F8D8022177
:103A7000F154238801339BB201212380F154238820
:103A80000B449BB22380F25423880B449BB22380C7
:103A9000BBE7082FE4D902A8FFF72AFF0028E0D1EE
:103AA00013880822CA54238801339BB21B22238027
:103AB000CA542088013080B22080062208440DF1CB
:103AC000090105F07CFC23889DF8082006339BB291
:103AD00012F0FE0218BF01222380F2542388013322
:103AE0009BB223808BE70433BB42B9D802A8FFF70F
:103AF00003FF0028B5D12388BDF808200321F15425
:103B0000238801339BB219212380F1542388013388
:103B10009BB2F1182380F254120A4A7023880233B0
:103B20009BB223806EE71388052B40F2AF806FF4C1
:103B3000486803EB080080B24FF27D3E704540F2CA
:103B4000A5805088052840F2A1806FF4486C844419
:103B50001FFA8CFCF44540F299804FF6FF7E7345C6
:103B600004D0704502D0834200F290800523735444
:103B7000238801339BB212212380F154238801331F
:103B80009BB223801188F1543344090A5970238869
:103B900002339BB223805288F2543344120A5A7083
:103BA000238802332380D5F82480B8F1000F30D069
:103BB000B8F8041020888A1C831C1344BB423FF6CB
:103BC0004FAFFE2A3FF64CAF033131542388013307
:103BD0009BB2FF222380F254238801339BB22380BF
:103BE000B8F80020F2543344120A5A702088023088
:103BF00080B22080B8F804205AB1D8F80810002903
:103C000044D0304405F0DBFBB8F80420238813448B
:103C1000238095F82C30002B40F0878028780028EE
:103C20003FF41FAF2B88012B30D023889A1CBA4257
:103C30003FF616AF012805D16978023119448F4249
:103C4000FFF40EAF023FFB1A04A99BB221F8083D16
:103C5000B018FFF753FE00287FF403AF2A78022A3A
:103C600000F0AF80012A00F0B4800821FE2B3FF65F
:103C7000F7AE22885D1CB5542288013292B22280B0
:103C8000B1542288013213442380EAE6072004B0AD
:103C9000BDE8F08705F1080802228DE89000404653
:103CA00011463346FFF72EFE00287FF4DAAE8DE88A
:103CB00090004046334610220621FFF723FE0028DD
:103CC0003FF4BEAECDE605F110088DE89000404609
:103CD000334602220321FFF715FE00287FF4C1AE10
:103CE0008DE890004046334610220721FFF70AFE78
:103CF00000283FF4A9AEB4E605F118088DE890005D
:103D00004046334602221421FFF7FCFD00287FF4D1
:103D1000A8AE8DE890004046334610221521FFF7EB
:103D2000F1FD00283FF494AE9BE6D5F82880B8F169
:103D3000000FABD0B8F804200232FE2A3FF690AE56
:103D400023884FF000094FF0160A0132F2542388FD
:103D500001339BB2238006F803A0238801339BB272
:103D60002380B8F80020F2543344120A5A70238892
:103D700002339BB22380B8F80410F0180A4661B1F0
:103D8000D8F808301946002B80D005F018FBB8F899
:103D90000420238813449BB2238009F1010995F87C
:103DA0002C205FFA89F94A4509EB49087FF636AFBE
:103DB000AA6A02EB8808B8F804200232FE2AC4D9A5
:103DC0004EE6BDF808209342FFF44FAF1346092199
:103DD0004CE76A789342FFF448AF1346082145E761
:103DE0002DE9F04395B01F230D46ADF80E30044683
:103DF000002800F08480C27853077CD590F82D30DD
:103E00000021ADF80C10002B40F0DB8183780CAF63
:103E1000002B40F017821946032014AE31445F1C7A
:103E2000023316FA87F74FF0020E16FA83F601F8FE
:103E300040EC83B2012107F8401CADF80C3006F8C5
:103E4000402C6668002E00F08C80D81C1F2874D986
:103E50000C2015B0BDE8F083A76A002F4BD0BA88BC
:103E60000232FE2AF4D8BDF80C304FF0000804AE40
:103E70004FF016091AE005F0A2FABDF80C30BA8826
:103E800094F82C1013449BB2ADF80C3008F10108E3
:103E90005FFA88F8884508EB480280F0F080A76A4E
:103EA00007EB8207BA880232FE2AD1D80DF1500EF4
:103EB0009E44581C01320DF1500C0EF8402C1CFA97
:103EC00080F09A1C92B200F8409CADF80C20388823
:103ED000B0543244000A50700433B7F804E09BB287
:103EE0007246F018ADF80C30BEF1000FCED0BB68B2
:103EF0001946002BBFD1072015B0BDE8F083ADF8FF
:103F00000C00ADB1EB78002BF5D128460CA90DF1D2
:103F10000E02FFF767FD0028EED19DF80E300CAAC7
:103F200020469DF80C10FFF7E5FC15B0BDE8F083C6
:103F30002B46ADF80E502A46F2E714AF591C9A1CD6
:103F400017FA81F13B4417FA82F296F90060ADF856
:103F50000C0002270A2003F8407C01F8400C02F80C
:103F6000406C2389002B40F08F80238A002B40F087
:103F7000AB80238B002B40F0C780226A002A42D0FE
:103F8000BDF80C30991D1F293FF662AF1088052837
:103F9000B1D96FF4486C00EB0C06B6B24FF27D3726
:103FA000BE42A8D95688052EA5D96FF4486EB644EE
:103FB0001FFA8EFEBE459ED94FF6FF77B84203D05A
:103FC000BE4201D0B04296D814A8C7185E1C10FAA1
:103FD00086F64FF0050E981C07F840EC80B21227C9
:103FE00006F8407CADF80C001788ADF80C1004AE54
:103FF0003118375404333F0A4F709BB25288F25441
:104000001E44120A7270676AA7B3B888BDF80C30F4
:10401000811C9A1C56181F2E3FF61AAFFE293FF638
:1040200017AF14AE1E44591C0DF1500E1EFA81F14B
:10403000033006F8400C92B2FF2001F8400CADF8B6
:104040000C20398804AEB018B154090A4170043309
:10405000BA8898B2ADF80C0062B1B96800293FF493
:104060004AAF304405F0ABF9BDF80C30BA881344C0
:10407000ADF80C3094F82C1000297FF4EDAE2378C5
:10408000002B61D104AC3CE703A904F1080704AE9E
:104090004FF01F080222009138463346CDF80480C5
:1040A0001146FFF72FFC00287FF426AF03AB0093E7
:1040B000CDF804803346384610220621FFF722FC53
:1040C00000283FF452AF17E703AA04F1100704AE2B
:1040D0004FF01F08009238463346CDF80480022284
:1040E0000321FFF70FFC00287FF406AF03AB00931A
:1040F000CDF804803346384610220721FFF702FC32
:1041000000283FF436AFF7E603AA04F1180704AE1F
:104110004FF01F08009238463346CDF80480022243
:104120001421FFF7EFFB00287FF4E6AE03AB00930A
:10413000CDF804803346384610221521FFF7E2FB04
:1041400000283FF41AAFD7E62288012A3FF4D3AE05
:10415000BDF80C20901C1F283FF67AAE012B04D12D
:10416000637803441F2B3FF673AEC2F11D0314A9FD
:104170009BB204AE21F8203D3044FFF7BFFB00287E
:104180007FF4BAAE2278022A00F08680012A00F07D
:104190008B80ADF830300820FE2B3FF659AEBDF8CD
:1041A0000C2014AC511CA71814FA81F102321A44E5
:1041B000013307F8403C3446ADF80C2001F8400CC0
:1041C0009FE60CAF3846FFF793FB00287FF494AED0
:1041D000BDF80C3014A903F1010E9A1C11FA8EFEE1
:1041E0000B4492B204AEB01808211B2603F8401C01
:1041F000ADF80C200DF1310106220EF8406C05F0EF
:10420000DEF8BDF80C209DF83010931D11F0FE0172
:104210009BB23BD114A8034403F8401CD31DA278E1
:104220009BB2ADF80C304AB9E278002A3FF409AEEF
:10423000D81C1F2819463FF60BAEEEE504331F2BA2
:104240003FF606AE3846FFF757FB00287FF454AE22
:10425000BDF80C30BDF83010E278581C14AE16FAD8
:1042600080F01E449F1C4FF0030E06F840ECBFB2D6
:1042700004AE4FF0190E00F840EC0433F019F1557C
:104280009BB2090AADF80C304170CEE714A90B447B
:10429000012103F8401CC1E7BDF830209342FFF430
:1042A00078AF1346092077E762789342FFF471AF45
:1042B000ADF83020134608206EE700BF73DF70476B
:1042C00074DF7047F0B57F4D7F4E85B007460722FB
:1042D00000217E48FBF73CF92B6823F07F4323F055
:1042E000FF0313B13378012B20D0AB78DBB9774CC7
:1042F0006378002B65D1A378002B62D1E378002B83
:104300005FD12379002B5CD16379002B59D1A3793C
:104310001A1C18BF01227B1E032B00F2CF80DFE89E
:1043200003F0104815313378022BE0D1684B694A0D
:104330001B68002B00F0B480012108201170984701
:10434000D5E76B78002B34D0002A38D1EB78CBB18D
:104350005F4B1B6803223270E3B95F4B00221A7077
:10436000102268460021FBF7F3F8337800228DF81D
:1043700000208DF80820042B45D8DFE803F08D835A
:10438000694724002F79D7B1514B1B680422327042
:10439000002BE2D02A78002ADFD0504A1278002A77
:1043A000DBD14F484C490270012207200A70984720
:1043B000D6E7AB78002BC9D0002AC7D002273770C8
:1043C000CBE70122A7E72B78A969EA69ADF80A10C3
:1043D000ADF80C20002B65D0404B1978002961D135
:1043E0003F4B1B78002B5DD03E4B04240222184625
:1043F000DC708DF80820FFF7F3FC00285AD13A4A08
:10440000337806211170002B33D02EE02B782969E8
:104410006A69ADF80A10ADF80C20002B46D02F4B7E
:104420001978002942D12E4B1B78002B3ED02D4B02
:10443000042402221846DC708DF80820FFF7D0FC17
:10444000002837D1284A3378052111708BB10CE050
:104450002548EA68AB6801940121022404708DF8B4
:104460000010ADF80C20ADF80A306846FFF726FFC3
:1044700030B9174B1B6813B11B4A107898470020BE
:1044800005B0F0BD18490194012300220B708DF88E
:104490000030CDF80A20E8E7134B00221A70E8E755
:1044A000137024E7104B04221A70DEE70E4B032230
:1044B0001A70DAE73378002BDBD0D6E700273770A5
:1044C0004BE700BFBC250020B9250020582600205E
:1044D000202600205426002091260020922600202D
:1044E00090260020DC250020B82500202DE9F84F7B
:1044F000DDF828E0002800F09880002A00F0958080
:10450000144605469C460E460FCC494FDFF84491B1
:10451000DFF844A1DFF84481DFF844B1C8F800C0F7
:104520000FC794E80F00002487E80F00414F424B6B
:104530004248CBF800E0012289F8002021460722FA
:104540004FF6FF79A3F800908AF80040FBF700F8D7
:1045500021463C223846FAF7FBFF05F1100393E8A9
:104560000300AA78EB7895F800E0BA70FB7007F1C9
:10457000100395F801C087F800E083E8030005F117
:10458000080393E8030007F1080E05F118038EE80D
:10459000030093E803006A6A87F801C007F1180373
:1045A00083E80300B2B1264B7B62686A254A9A60B1
:1045B000B0F804E001881980A3F804E0BEF1000F10
:1045C00008D0013A23468168C95C02F8011F013313
:1045D0007345F8D1AB6AB3B11B4BBB62A86A1B4AE7
:1045E0009A6084889C800188198044B1013A002334
:1045F0008168C95C02F8011F0133A342F8D195F824
:104600002C3087F82C302B6A33B1114B3B622A6A6D
:104610005188598012881A806B6803B17B603146DB
:104620000448BDE8F84FFFF7DBBB0E20BDE8F88F6C
:10463000BC250020DC2500201A260020582600205A
:104640004826002028260020602600206C26002016
:104650008C26002024260020B925002020260020BA
:104660001C2600200C4B1B780BB90820704710B596
:104670000A4B82B0044601A81C70FDF7E9F8019BC3
:104680002BB1074B01221A70002002B010BD20464A
:10469000FFF718FEF9E700BF24260020B925002007
:1046A0001826002010B50388112B82B019D01B2BBF
:1046B0000AD0102B01D002B010BDC37B012BFAD160
:1046C000214B82881A80F6E7037A002BF3D11F4B27
:1046D0001B78F3B908201E4B1B68002BEBD09847C2
:1046E000E9E7194A838812881A4900209A4208701B
:1046F000E1D1164B1B78002BECD0174B012401A8FD
:104700001C70FDF7A5F8019BBBB1144B01221A7078
:10471000D1E71149124A0B78013382FB0302DC17FF
:10472000C4EB620404EB84041B1BDCB201A80C7014
:10473000FDF78EF8019B002BE7D12046FFF7C2FD65
:104740000028B8D0C7E700BF1A2600202426002082
:104750001C26002092260020B925002018260020C3
:10476000676666660238012813D830B5114C237885
:1047700083B00BB903B030BD0F4B1B780022227001
:1047800043B908200D4B1B68002BF3D0984703B0AA
:1047900030BD70470A4B01A81D78FDF759F8019B01
:1047A00013B101232370E5E72846FFF78BFD0028AE
:1047B000E0D0E7E718260020242600201C26002051
:1047C000B9250020F0B583B0FFF77AFD164A174CE3
:1047D000174E002306271046012519462370D7706F
:1047E0003570FFF7FDFA044610B1204603B0F0BD66
:1047F000104B1B7843B908200F4B1B68002BF4D0DB
:104800009847204603B0F0BD0C4B01A81E78FDF779
:104810001FF8019B13B10A4B1D70E6E73046FFF706
:1048200051FD0028E1D0E7E7DC250020902600209C
:1048300092260020242600201C260020B9250020D6
:104840001826002075DF704776DF70477ADF7047E3
:104850007BDF7047184B18884FF6FF7398422AD0B9
:1048600010B5164A164C1378217B0133DBB29942FE
:1048700082B013700CD2237C002111708BB9636954
:1048800023B102A8002200F8042D984702B010BD01
:104890000C49FFF7D7FF0028F8D0A369002BF4D10B
:1048A000F4E73B21FFF7D0FF0028E8D0A369002BF5
:1048B000E5D09847E3E7704794260020E4260020DF
:1048C00098260020DC26002070B51E4B1E4A5B880F
:1048D0001188994282B00FD852889A420CD31B4B50
:1048E0005B6923B102A8012200F8042D9847184CF7
:1048F0000023237002B070BD154C227862B1134BB7
:104900005B69002BF4D002A8002200F8042D984720
:104910000023237002B070BD0C4D0E486968067804
:10492000AB680D48002E18BF1946FBF79FFB002807
:10493000DED0AB69002BDBD098470023237002B098
:1049400070BD00BFD4260020DC2600209826002061
:1049500093260020E4260020B4260020F8B5054662
:104960000FCD144C144F0FC4064695E807000023E2
:1049700084E807003B70B6B13068104B716803C320
:10498000A3F10800FFF762FF90B90D4D0D4C0E4AE0
:104990000E4800234FF6FF762E8023701946BDE89F
:1049A000F840FBF751BB0548FFF752FF0028ECD059
:1049B000F8BD00BF9826002093260020DC260020AA
:1049C00094260020E426002055480200609402004E
:1049D00070B50388112B27D012D9122B07D0502B7A
:1049E00047D1244CC288E3899A4230D070BD083048
:1049F00003C8214B83E80300BDE87040FFF764BFA4
:104A0000102B35D11D491B4C1B4B1D4DE48900F16A
:104A100010028088088092E80300002283E80300E7
:104A20002A70002CE8D070BD1449154B15484FF67C
:104A3000FF7400220C801A70FBF770FB0028D5D0A1
:104A40000C4B9B69002BD1D0BDE870401847038AFE
:104A5000022BCBD1123000F023F90028CCD1094829
:104A6000FBF75CFB0028C1D0A369002BECD1BDE7AC
:104A700070BD70BD98260020D4260020942600200A
:104A8000E4260020B42600200388112B6FD02DE9E6
:104A9000F0471A2B88B0064650D0102B02D008B031
:104AA000BDE8F087DFF8F8A09AF815209AF81430DE
:104AB0000AF1040123EA020203A8FDF7DDF9039FCE
:104AC00087B10024A14604AD0AF1140835F8023B71
:104AD0002D48CDF8009001341D224146FDF790F895
:104AE000BC42F3D19AF81400B488C043C0B2FDF7B9
:104AF0002BF84FF6FF73984240D024490AEB400A46
:104B00002246A1F111000123AAF80440FDF73EF866
:104B10001F492246A1F110000123FDF737F8F37B6E
:104B20001C49B288A3F10203B3FA83F35B09A1F134
:104B3000120008B0BDE8F047FDF728B8037A16491F
:104B400082881F2B94BF00230123A1F11300FDF7DE
:104B50001DF8337A1149B2882F2B94BF002301230B
:104B6000A1F1140008B0BDE8F047FDF70FB8074900
:104B700082880023A1F11100FDF708B8042008B0D5
:104B8000BDE8F047FAF7E2BDEC260020FD26002044
:104B9000FC260020FE260020FF2600200027002003
:104BA000E826002038B5094C05460246217D201D27
:104BB000FDF732F940B12A46A17D201DFDF72CF901
:104BC000002814BF0220012038BD00BFE8260020C5
:104BD000024B0246D97D181DFDF71EB9E8260020BC
:104BE000024B0246197E181DFDF716B9E826002073
:104BF00010B5044904460A7D0431FDF73DF920460D
:104C000010BD00BFE826002030B40A4D00232968FB
:104C1000012401E0182B0AD004FA03F20A42D8B2A8
:104C200003F10103F6D10A432A6030BC70471846ED
:104C300030BC7047E826002030B4084D01232C68B2
:104C40008B40234002D1184630BC704729440246AD
:104C5000497E281D30BCFDF7DFB800BFE8260020E4
:104C600070B4084D01242E688C40344201D170BCD0
:104C700070471931294413460246281D70BCFCF7C1
:104C800085BF00BFE8260020044A01231168834045
:104C90000B401ABF1218507E18467047E8260020B5
:104CA000007800F00100704730B585B0054600F08F
:104CB00043FB112842D0044617D880B30C281CD1DE
:104CC000072328468DF80430ADF8085000F068FE40
:104CD000ADF8060001A802F079FE0022184B284624
:104CE0001978FFF7BDFF05B030BD862815D043F217
:104CF0000203984201D10022F0E7092328468DF8EB
:104D0000043000F04DFEADF8060001A8ADF80850E3
:104D1000039402F05BFE0022E0E70823D1E70123C1
:104D200028468DF80430ADF8085000F039FEADF893
:104D3000060001A802F04AFE2246CFE70122CDE795
:104D40001D27002030B585B0054600F041FB0B283B
:104D500031D004460FD911280BD043F202039842F8
:104D600019D100221B4B28461978FFF779FF05B0AF
:104D700030BD0122F6E770B9022328468DF80430D1
:104D800000F00EFEADF8060001A8ADF8085002F0E4
:104D90001DFE2246E6E7092328468DF8043000F080
:104DA000FFFDADF8060001A8ADF80850039402F02D
