:020000021000EC
:10F000000000012069AA020091AA020093AA02004E
:10F0100095AA020097AA020099AA02000000000027
:10F020000000000000000000000000009BAA020099
:10F030009DAA0200000000009FAA0200A1AA0200EF
:10F04000C12B0200A3AA020071390200A3AA020088
:10F05000A3AA0200A3AA0200FD2F0200A3AA020095
:10F06000A3AA0200A3AA0200A3AA0200A3AA020064
:10F07000A3AA0200A3AA0200A3AA0200A3AA020054
:10F08000A3AA02006D020200A3AA0200A3AA020022
:10F0900031030200A3AA0200D5C60200A3AA0200FF
:10F0A000A3AA0200A3AA0200A3AA0200A3AA020024
:10F0B000A3AA0200A3AA02000000000000000000B2
:10F0C000A3AA0200A3AA0200A3AA0200A3AA020004
:10F0D000A3AA0200A3AA0200A3AA02000000000043
:10F0E0000000000000000000000000000000000020
:10F0F0000000000000000000000000000000000010
:10F1000000000000000000000000000000000000FF
:10F1100000000000000000000000000000000000EF
:10F4000010B5054C237833B9044B13B10448AFF35E
:10F4100000800123237010BDBC23002000000000E9
:10F4200060D602000C4B43B10C480D4910B5AFF348
:10F4300000800C48036823B910BD0A48036833B93B
:10F440007047094B002BF7D0BDE810401847064B1A
:10F45000002BF5D0184700BF0000000060D6020066
:10F46000C0230020A823002000000000154B002B23
:10F4700008BF134B9D46A3F5803A00218B460F46EB
:10F480001348144A121A00F063F80F4B002B00D0F7
:10F4900098470E4B002B00D0984700200021040015
:10F4A0000D000D48002802D00C48AFF3008000F09A
:10F4B0002BF82000290005F0D9FA00F011F800BF60
:10F4C0000000080000000120000000000000000013
:10F4D000BC230020D4350020000000000000000004
:10F4E00008B5074B044613B10021AFF30080054B6C
:10F4F0001868836A03B19847204600F031F800BFCE
:10F500000000000084D1020070B50D4E0D4CA41B0C
:10F51000A4100025A54209D10B4E0C4C0DF026FE7F
:10F52000A41BA4100025A54205D170BD56F82530B6
:10F5300098470135EEE756F8253098470135F2E750
:10F54000A0230020A0230020A0230020A42300202B
:10F5500002440346934200D1704703F8011BF9E7C8
:10F56000FEE700BF0378012B04BF014A1370704708
:10F57000DA2300202DE9F04FC7B01C46914800293E
:10F5800014BF0A23002316460D46009304F0E4F945
:10F59000002840F0E380002C00F0E48006AB8346B6
:10F5A0000293519B539A9E18202501960099029A26
:10F5B0000B465B4404933133D318039302EB0B07E0
:10F5C00000295DD07B4203F003038B4228BF0B462A
:10F5D000062900F2EB800A463946012A01F8015B50
:10F5E00000F0E280022A7D7007F1020100F0DC8069
:10F5F000032ABD7007F1030100F0D680042AFD70D4
:10F6000007F1040100F0D080062A3D7107F10501E1
:10F6100040F0D2807D71B91D1346009890422DD0E4
:10F62000009EA6EB020CACF1040006F1FF3A800844
:10F63000AAEB020A0130BAF1020F4FEA800E13D989
:10F640005A44029E4FF0203A012806EB020B46F87E
:10F6500002A005D00228CBF804A001D0CBF808A066
:10F66000E6457144734409D0009E0D705A1CB242A5
:10F6700004D202339E424D7000D98D70009B1F440E
:10F68000039B059707F1330907F1030A264603F1A7
:10F6900001084C46019FDDF844910DE00AF8035C37
:10F6A0000AF8025C0AF8015C0AF1030AA24508F8AC
:10F6B000015C08F101082FD0B742EFD9B1456DD9EF
:10F6C000509B13F806B00AF8015C4FEA2B105FFA62
:10F6D00080FE09280BF00F00D4BF0EF1300E0EF1A2
:10F6E000370E092894BF303037300AF803EC0AF897
:10F6F000020C0DF06BF858440AF1030A407810F040
:10F70000970F08BF4FF02E0BA24508F801BC06F179
:10F71000010608F10108CFD1049B03980197059FCA
:10F72000029903F1430A0D220A23027443745246DC
:10F73000254887F830500DF078F85FFA8AF22249B0
:10F74000204804F05FF83446834638B91D4804F079
:10F7500003F918B9019B9C42FFF428AF204647B03B
:10F76000BDE8F08F55B306A902912B68174A0846E9
:10F770000D464FF480710DF063F8B0F1000BEDDB36
:10F780005D4430460DF090F8C2280246314628BF4D
:10F79000C222284693440DF048F802E7A6EB090080
:10F7A000529B13F800B08EE7134636E71A463946E7
:10F7B000002B3FF435AF0FE705232EE706AD02958A
:10F7C000A346DEE78C210020DC230020A8D1020024
:10F7D000F0B56548C7B00C4616461D4604F0BCF8A7
:10F7E000A0B9B4B14FF480712368604A06A80DF047
:10F7F00027F8011E0ADB4C9B0C46062B00F2B28058
:10F80000DFE803F012626C2E783C4E00002047B017
:10F81000F0BD4C9B062B00F2A280DFE803F00494BD
:10F820008F8A807B85004C9C30460DF03DF8031993
:10F83000FF2B054640F28C80002DE7DB6219B2F504
:10F84000807FE3D8D4B206A949480CF0EEFF2246E7
:10F850004749454803F0D6FFB0FA80F04009D6E7A3
:10F8600006AB5818C1F58071AA682B686D680095C1
:10F87000019232460CF0E4FF0546DDE706AB58186E
:10F88000C1F580712F69EA682B680397AF686D68CE
:10F8900002928DE8A00032460CF0D2FF0546CBE77D
:10F8A00006AB5818C1F580716A692F692B680492FC
:10F8B000EA680397AF686D6802928DE8A00032464F
:10F8C0000CF0BEFF0546B7E706AB5818C1F58071CE
:10F8D0002B6832460CF0B4FF0546ADE706AB58186E
:10F8E000C1F580716A682B68009232460CF0A8FF5F
:10F8F0000546A1E706AB5818C1F58071EA682B6888
:10F90000AF686D6802928DE8A00032460CF098FF57
:10F91000054691E74FF4807106A80024B2E74FF442
:10F92000807106A80024E9E74FF4807106A800243E
:10F93000BAE74FF4807106A8002495E74FF4807170
:10F9400006A80024CEE74FF4807106A80024BFE784
:10F9500006AB314618192A460CF067FF6CE7002405
:10F96000224670E7002569E78C210020A8D102001B
:10F97000DC230020F0B5174F3B7889B01BB1164B44
:10F980001B78834222D0154D06460FCD6C460FC41E
:10F9900095E80F00062584E80F00082105220723BB
:10F9A0000F48019103920095029303F0A7FE002EE9
:10F9B0000C4A0B4818BF0022694603F0B3FD18B982
:10F9C000054A012316703B7009B0F0BD002009B054
:10F9D000F0BD00BFD9230020D823002088D1020029
:10F9E0008C21002065F5010000487047D1F7010027
:10F9F0000048704775F5010038B50020FFF7BAFFE1
:10FA0000044668B9FFF7F0FF0546FFF7F1FF054B25
:10FA1000FF22C3F810541C605C60C3F814049A60A1
:10FA2000204638BDDC2400200120FFF7A3BF00BF23
:10FA30002DE9F04383B002AB4FF0000803F8018DCD
:10FA4000254C074618460E46A56801F02DF9A26818
:10FA50006368D4F8009013440133A3EB0903012B2E
:10FA600007D80BBB9DF8070001F044F903B0BDE8CF
:10FA7000F08309F101039DF80700236001F03AF9D2
:10FA80000122002362F3010368F3820305EA0905FA
:10FA900067F3C50304EB850468F3891366F39F23BA
:10FAA000E36003B0BDE8F0830121434661F3010345
:10FAB00068F38203052161F3C50309EA02020749DD
:10FAC00004EB820268F3891309F1010561F39F23B6
:10FAD0002560D360C6E700BFDC240020B0D102005F
:10FAE0002DE9F04782B002AB002503F8015D294CF7
:10FAF0008146184617468846A66801F0D5F8A268E0
:10FB00006368D4F800A013440133A3EB0A03022B6B
:10FB100007D843BB9DF8070001F0ECF802B0BDE840
:10FB2000F0870AF102039DF80700236001F0E2F874
:10FB30000121002361F301030AEB010265F3820353
:10FB400069F3C50306EA0A0A164004EB8A0A61F360
:10FB5000891304EB860468F39F23CAF80C30E7602E
:10FB600002B0BDE8F08701212B4661F3010365F384
:10FB70008203052161F3C5030AEA0202064804EB89
:10FB8000820265F389130AF1010160F39F2321606A
:10FB9000D360BFE7DC240020B0D102002DE9F04F94
:10FBA00083B002AE002506F8015D2D4C824630463A
:10FBB00090461F468946A66801F076F8A2686368F9
:10FBC000D4F800B013440133A3EB0B03032B07D885
:10FBD0007BBB9DF8070001F08DF803B0BDE8F08F06
:10FBE0000BF103039DF80700236001F083F8012265
:10FBF000002362F301030BF1020165F382035A440F
:10FC00006AF3C503022006EA0B0B32400E4004EBF8
:10FC10008B0B04EB820260F3891304EB860469F317
:10FC20009F23CBF80C30C2F80C80E76003B0BDE82E
:10FC3000F08F01212B4661F3010365F38203052157
:10FC400061F3C5030BEA0202064804EB820265F386
:10FC500089130BF1010160F39F232160D360B8E7A2
:10FC6000DC240020B0D102002DE9F04F83B002AFB8
:10FC7000002607F8016D314C8246384690461F46F3
:10FC8000A568894601F010F8A2686368D4F800B04E
:10FC900013440133A3EB0B03042B07D8BBBB9DF824
:10FCA000070001F027F803B0BDE8F08F0BF1040363
:10FCB0009DF80700236001F01DF80122002362F384
:10FCC000010366F382030BEB02010BF103000BF15E
:10FCD00002026AF3C503032605EA0B0B04EB8B0B48
:10FCE00066F3891369F39F2329402A400540CBF826
:10FCF0000C3004EB810104EB82020C9BC1F80C80F8
:10FD000004EB8504D760E36003B0BDE8F08F012108
:10FD1000334661F3010366F38203052161F3C503F2
:10FD20000BEA0202064804EB820266F389130BF128
:10FD3000010160F39F232160D360B0E7DC24002041
:10FD4000B0D102002DE9F0434F4E716832688A420B
:10FD50008BB078D0B76807EA0105023506EB85025B
:10FD60000131546814F003030ED1C4F3891303EB7B
:10FD700094530B4407EA0305023506EB8502591C30
:10FD8000546814F00303F0D0022B2CD0C4F3831377
:10FD9000C4F39522002B73D00DF1100C604601EBDB
:10FDA000030E07EA010506EB850501F10108F045A0
:10FDB000E96840F8041B4146F3D10093C4F3C20044
:10FDC0006346D6F810440021A04748B1C6F8048025
:10FDD0003068B0EB080018BF01200BB0BDE8F0831D
:10FDE000D6F80480F4E701F1010827EA080001EAE7
:10FDF0000703013006EB830380004FEA94598145E5
:10FE0000DA68C4F3891322D988B307EA0801C7B2B4
:10FE10000331A9EB0700DFF874E006EB8101C0B203
:10FE20008DE882400390D6F814740021C4F3C20018
:10FE3000B847484520D006EB850560F38F146C6009
:10FE4000D6F80480C4E700200BB0BDE8F08307EAD1
:10FE50000800033006EB800000218DE801020391C9
:10FE60000291D6F81474C4F3C200B847E1E786469D
:10FE70005FFA89F70549D3E7033008EB9008A5E757
:10FE800088460DF1100C98E7DC240020E8240020BF
:10FE90002DE9F84F254B93F800E0BEF1000F31D06B
:10FEA000DFF88CB0DFF88CA0DFF88C9000240127FD
:10FEB00003E00134E4B2744524D226B2DBF80050EA
:10FEC000DAF8003015F8360007FA00F1194205EBB0
:10FED000C608EED023EA0103CAF8003003F084F824
:10FEE00015F83660D9F8003007FA06F52B4000FA0D
:10FEF00006F18B4208D00D4B013493F800E0E4B2D8
:10FF00007445DAD3BDE8F88FD8F80430002BF2D06E
:10FF100098F80110A1F10101B1FA81F14909091A1A
:10FF2000B1FA81F1490930469847E4E7F428002006
:10FF300024290020202900201C29002070B5064615
:10FF4000114800F059FE40B9104D01242B68B4400F
:10FF50001C4203D023EA04042C6070BD304603F039
:10FF600043F80B4E326860B122432B680949326076
:10FF70001C432C60044809680022BDE8704000F072
:10FF8000E3BD22EA0402F0E7FC280020202900203B
:10FF90001C290020F8280020042A01D807207047D7
:10FFA0002DE9F04182B088460546174602F0F0FE82
:10FFB000002836D01D4C1E481E491F4A1F4B256085
:10FFC000002608F1FF3480F800800F6016601E6084
:10FFD000E4B2B8F1000F1ED0DFF86C80032701E017
:10FFE000FF2C18D023B205EBC30215F83300937829
:10FFF0008DF80470424601A98DF806608DF80760FF
:020000022000DC
:100000008DF8053002F0CEFE013CE4B20028E7D0C6
:1000100002B0BDE8F0810A4A0A48002100F082FDE2
:10002000F6E702F073FE0028C4D0F1E7242900208F
:10003000F4280020F82800201C2900202029002076
:1000400091FE0100BCD102003DFF010070B5084DDA
:100050002B785BB1074E00243368012113F834007C
:1000600002F060FF2B780134A342F5D8002070BD68
:10007000F42800202429002000B585B00023039037
:10008000194601AA44F20100ADF80430029300F0D1
:1000900003F805B05DF804FB08B50B490120FFF734
:1000A000C7FCFFF7C1FCFFF74DFE0028FBD1BFF3F3
:1000B0004F8F0649064BCA6802F4E0621343CB60D7
:1000C000BFF34F8F00BFFDE7C0D1020000ED00E09D
:1000D0000400FA0512F0030301D007207047F0B4C2
:1000E000094D0A4F2B700A4D3A604C1C2B70094F7A
:1000F000094D0A4E3880E400A4B2224429803260BF
:100100001846F0BC704700BF282900203029002085
:100110003829002034290020362900202C290020ED
:100120002DE9F0472C4D2B888B4282B003D2092059
:1001300002B0BDE8F087064602A84FF0000800F8BC
:10014000018D17460C4600F0AFFD244B244A25488C
:10015000197813780088DBB2834238BF0133C9B203
:1001600038BF5FFA83F841451FD092F800801378BA
:10017000DFF87890DBB2984286BF0133DBB2002310
:100180005FFA88F89DF80700137000F0B3FDD9F806
:1001900000300FFA88F24FEAC20A43F83270534433
:1001A00006B144B900209880C2E79DF8070000F02E
:1001B000A1FD0420BCE70C4B28881B68314608FBD6
:1001C000003022460CF031FBD9F800309A44002070
:1001D000AAF80440ACE700BF3429002038290020E9
:1001E00028290020362900202C2900203029002031
:1001F0002DE9F047174C184D22782B789A4226D0DB
:10020000DFF85C90DFF85C80144FDFF85CA02378A7
:10021000D9F800203888D8F80060DBB20FFA83FCE8
:1002200002EBCC0103FB0060898852F83C30984710
:100230002378BAF80020DBB29A4203F101038CBFA5
:10024000DBB20023237022782B789A42DFD1BDE8FD
:10025000F08700BF382900202829002034290020F9
:10026000302900202C290020362900202DE9F843D0
:10027000274A284B0025C2F84051C2F84451C2F821
:100280004851C2F84C51C2F80051C2F804511B68E1
:100290001BB32149D2F804450A68204FA41A1A68F2
:1002A00024F07F44A242A84609D8197CDE69A41A2A
:1002B0001544A1B91EB133461A68A242F5D91849AE
:1002C000184A0B7812789A421BD01749174A41F8FE
:1002D00023504FF48013C2F80031BDE8F883D3F8FF
:1002E000149083F810803A689B69484619462AB1F1
:1002F00090470028DED0FFF7BFFEDBE71846C8476F
:10030000D8E7531CDBB2022B08BF00230B70DCE7DD
:10031000001001405C290020582900203C290020C1
:1003200055290020542900204C29002000E100E03C
:100330002DE9F04FA04AA14913780978A0489942C5
:1003400089B0D0F800B000F0E8800133DBB2022BB6
:1003500008BF002313709B4A52F82360984A0BEBA6
:10036000060323F07F43136001230593964B009609
:1003700093F80090954BD3F800A0934B5C785B68A2
:100380000393914B9B780293914B1B7804938C4B76
:1003900000271B680693CC465546D6460197B846BB
:1003A0003B46A44526D00CEB4C020398029E10F865
:1003B00032100CF1010C5FFA8CFCB44508BF4FF011
:1003C000000C022900EBC2027ED00329E9D1BEF164
:1003D000000FE6D0009E00E09646DEF81C208EF866
:1003E0001030002AF8D1A4450096964615464FF0E5
:1003F0000108D8D1009EB8F1000F40F09E80019B0B
:1004000013B16F4B069A1A601FB1714B9DF8102003
:100410001A70059B002B40F0B881BAEB0E0318BF91
:100420000123059300250023019304931F46684B85
:10043000DFF8A0B11B780693614BD3F80080634BC3
:100440001B68009376464FF0010A2DB36A68A968CD
:100450002B46ED69A2EB080020F07F4058456FD88D
:10046000014419605F609F6083F810A0DF61002E77
:1004700000F08680306888427AD2344603E0106803
:10048000884266D21446E269091A002AF7D1196037
:10049000DA61E361002DD9D1039909EB490309F130
:1004A0000102CC4501EBC3045FFA82F900F09480AD
:1004B00011F83300029B4B4508BF4FF0000901289B
:1004C00063D001230493E8E75068BEF1000F3FF4C6
:1004D00068AF7045714617D0009E02E0904205D08B
:1004E0001146CA69002AF9D100965AE78842009657
:1004F0000BD0C2690068CA61002A3FF452AF11688C
:1005000001441160AE464CE77046DEF81C2096466A
:1005100032B115464FF00108EBE70026059625E7B6
:1005200002F1804202F58832012797607546CDF8C6
:1005300018E004970197B846DBE7244B1D605EE79F
:10054000A8EB020222F07F428A4208D2891A19607F
:1005500088E7401A10601960DA61E3619AE71F606A
:100560005F609F6083F810A0DF614EB130680021AA
:10057000411A31600093DE611E460123019364E756
:1005800000931E46012301935FE763681A7C04927F
:10059000002A82D1A2685A60E168996007902069B8
:1005A000D86064699C61069C002C00F0EB80049A82
:1005B0005A60049400224DE7542900205529002058
:1005C000582900204C290020402900205C290020C7
:1005D00048290020FEFF7F00049B002B40F0A681ED
:1005E000019B13B1804B009A1A60764500F0C080E1
:1005F000002E00F007817D4A7D49D2F804050C7871
:100600003668A0EB080323F07F430333002C50D15E
:10061000784CDFF8E8E1784F4FF48035C2F8445366
:10062000C2F804534FF40035C4F88051256001240A
:100630001460DEF800502F2200BF00BF00BF00BFD3
:1006400000BF00BF00BF00BFBD422FD000BF00BF32
:1006500000BF00BF00BF00BF00BF00BF00BF00BFA2
:1006600000BF00BF00BF00BF00BF00BF00BF00BF92
:1006700000BF00BF00BF00BF00BF00BF00BF00BF82
:1006800000BF00BF00BF00BF00BF00BF00BF00BF72
:1006900000BF00BF00BF00BF00BF00BF00BF00BF62
:1006A00000BF00BF00BF00BF00BF00BF013AC3D101
:1006B0000C709E422CBF08EB060343444B4923F0C9
:1006C0007F43C1F84035D1F80425121A1B1A22F0D5
:1006D0007F4223F07F4303329A424DD9D1F804354B
:1006E000464AC1F84035126843492F2300BF00BF76
:1006F00000BF00BF00BF00BF00BF00BF8A422FD0B5
:1007000000BF00BF00BF00BF00BF00BF00BF00BFF1
:1007100000BF00BF00BF00BF00BF00BF00BF00BFE1
:1007200000BF00BF00BF00BF00BF00BF00BF00BFD1
:1007300000BF00BF00BF00BF00BF00BF00BF00BFC1
:1007400000BF00BF00BF00BF00BF00BF00BF00BFB1
:1007500000BF00BF00BF00BF00BF00BF00BF00BFA1
:10076000013BC3D1234B4FF40032C3F8002103E017
:10077000059B002B7FF43CAF214A0023137009B086
:10078000BDE8F08F0798049064E6174B0024774685
:100790002546214620461B68DDF814E0A7B13A68DB
:1007A000B24218D8FC683860B61A1144FB693CB1F3
:1007B0000BEB010222F07F42FD61BC607A603D4696
:1007C0001F467446002FEAD1BE46002C3FF42BAEE4
:1007D000054A136027E6BE46002C40F0A480921B19
:1007E000CEF800201FE600BF5C2900200010014069
:1007F0004929002000E100E00024F400302200201C
:10080000482900204B4A4C4B4C4D4D484FF4803109
:100810004FF400370124C3F88070C2F848132F2327
:10082000C2F80813546029681D4600BF00BF00BF0E
:1008300000BF00BF00BF00BF00BF81422FD000BF7C
:1008400000BF00BF00BF00BF00BF00BF00BF00BFB0
:1008500000BF00BF00BF00BF00BF00BF00BF00BFA0
:1008600000BF00BF00BF00BF00BF00BF00BF00BF90
:1008700000BF00BF00BF00BF00BF00BF00BF00BF80
:1008800000BF00BF00BF00BF00BF00BF00BF00BF70
:1008900000BF00BF00BF00BF00BF00BF00BF013DE1
:1008A000C3D19460274A166000BF00BF00BF00BFDD
:1008B00000BF00BF00BF00BF81422FD000BF00BFFC
:1008C00000BF00BF00BF00BF00BF00BF00BF00BF30
:1008D00000BF00BF00BF00BF00BF00BF00BF00BF20
:1008E00000BF00BF00BF00BF00BF00BF00BF00BF10
:1008F00000BF00BF00BF00BF00BF00BF00BF00BF00
:1009000000BF00BF00BF00BF00BF00BF00BF00BFEF
:1009100000BF00BF00BF00BF00BF00BF013BC3D18D
:10092000094B1E7028E709490B6058E7084B83F80C
:1009300000C055E60010014000E100E03022002038
:100940000024F40058290020492900205C290020B7
:10095000402900202DE9F0474FF080450124AC608C
:10096000D5F80441002CFBD012F0030402D007207C
:10097000BDE8F087002AFAD05F4D604EDFF888911D
:10098000DFF888C14FF4803E4FF400374FF0010884
:10099000C6F88070C5F848E32F27C5F808E3C5F806
:1009A0000480D9F800E0B94600BF00BF00BF00BF17
:1009B00000BF00BF00BF00BFE6452FD000BF00BF93
:1009C00000BF00BF00BF00BF00BF00BF00BF00BF2F
:1009D00000BF00BF00BF00BF00BF00BF00BF00BF1F
:1009E00000BF00BF00BF00BF00BF00BF00BF00BF0F
:1009F00000BF00BF00BF00BF00BF00BF00BF00BFFF
:100A000000BF00BF00BF00BF00BF00BF00BF00BFEE
:100A100000BF00BF00BF00BF00BF00BFB9F10109A8
:100A2000C2D1C5F8088000BF00BF00BF00BF00BF33
:100A300000BF00BF00BFE6452FD000BF00BF00BF12
:100A400000BF00BF00BF00BF00BF00BF00BF00BFAE
:100A500000BF00BF00BF00BF00BF00BF00BF00BF9E
:100A600000BF00BF00BF00BF00BF00BF00BF00BF8E
:100A700000BF00BF00BF00BF00BF00BF00BF00BF7E
:100A800000BF00BF00BF00BF00BF00BF00BF00BF6E
:100A900000BF00BF00BF00BF00BF013FC3D1DFF8F0
:100AA00070E0DFF870A0164FDFF86C90DFF86C8014
:100AB000DFF86CC08EF80040CAF800304FF4801E9A
:100AC000E023B9703C707C70C9F8004088F80040A1
:100AD0008CF800400B49C6F880E186F81433C6F85C
:100AE00000E0C5F8080586F81133D5F804350B6029
:100AF0007A602046BDE8F0870010014000E100E088
:100B00004029002058290020302200200024F40031
:100B1000492900203C2900205C290020542900207C
:100B200055290020074B5B6823B12AB120B1036827
:100B3000187C18B1082070470720704759745A6113
:100B4000704700BF402900202DE9F043274C63681F
:100B500083B033B128B1042907D8072003B0BDE81A
:100B6000F083082003B0BDE8F0834369002BF8D080
:100B7000054602A86B7C0026012B00F8016D0CBF16
:100B80008946B14690460F4600F08EF86378A0780B
:100B900021785A1CD2B2904208BF324691421FD0EF
:100BA00003EB43036068DB00C11819D04FF0010E5E
:100BB00000F803E00E4B4D60D3F804358B609DF8D0
:100BC0000700CF60C1F81090C1F81480627000F087
:100BD00091F8084B4FF480123046C3F80021C1E76A
:100BE0009DF8070000F086F80420BBE740290020AC
:100BF0000010014000E100E0F0B51C4E736883B0C6
:100C000053B348B343693BB3054602A8002400F838
:100C1000014D2C7400F048F87378B07831785A1C84
:100C2000D2B2904208BF2246914218D003EB430350
:100C30007168DB00CF1812D00220C8547D609DF887
:100C40000700727000F056F8094B4FF480122046EE
:100C5000C3F8002103B0F0BD082003B0F0BD9DF83B
:100C6000070000F047F80420F7E700BF4029002004
:100C700000E100E0082910B5044602D00020FFF78B
:100C8000FBF923686068BDE81040184700B583B0E1
:100C90008DE80300034A08216846FFF741FA03B0D4
:100CA0005DF804FB750C020070B4EFF3108472B6AB
:100CB0000D4B9A68AAB90D490D4E01259D60D1F8DA
:100CC000805035401D60C1F88060D1F884505D606F
:100CD0004FF0FF33C1F88430027004B962B670BCC3
:100CE000704701230370F8E7C435002000E100E0FD
:100CF000FC06FFBC094B9A6872B168B910B4EFF3F7
:100D0000108272B606491C680C605C684C60986082
:100D100002B962B65DF8044B704700BFC4350020CD
:100D200000E100E0F0B52B4C2B4F6268668883B081
:100D3000002A48D036015388B9190333496802EBB9
:100D4000830201F58050824225D21368013318BF17
:100D50004FF6FF751FD09388AB4213D013888BB129
:100D600062601E485388868801681D480025033349
:100D700000959BB201EB86010325257001F048FA2E
:100D800003B0F0BD5388033302EB8302824202D2E8
:100D900013680133DFD13E44B38963B10F4D10486E
:100DA00029680227052600230122AF80267001F062
:100DB00085FA03B0F0BD0122094801F07FFA04234F
:100DC000237003B0F0BD3601BB19596801F1080268
:100DD000B7E700BFD8290020642A0020842A002019
:100DE000AC230020F0B543688E464BB1324A1468FC
:100DF000A34205D35268934202D813F003023AD0BB
:100E000000232E4EAEF800304FF0010C4FF6FF7568
:100E10007768002307F5805453B35A88033203EBF5
:100E200082039C4217D91A68013214D09A88AA42C8
:100E30000BD01A884AB1026899689142ECD1204AD5
:100E40004360138903810120F0BD5A88033203EB0C
:100E50008203A342E7D30CF10103AEF800C01FFAEE
:100E600083FCBCF1030F06F11006D1D10020F0BDC8
:100E700007F10803D5E7124C05892489A542BFD1A3
:100E800005689C68A542BBD10C4C6068834205D9BB
:100E900000F58050834201D2134608E06269934214
:100EA000E4D902F58052934238BF0123DED2AEF876
:100EB00000300120F0BD00BFAC230020642A0020D8
:100EC000D8290020B3F804C0BCF1010F53D82DE994
:100ED000F0419046294A4FF6FF7702EB0C1E0022A4
:100EE0009EF80040002C33D11C68002C3ED0658851
:100EF000DEF80460033504EB850406F58056B44241
:100F000025D22568013522D0A588BD4219D0258873
:100F1000BDB11C6018B1A6880588AE42E5D119B1F3
:100F200026880D88AE42E0D1A268C8F800201A6871
:100F3000134BC8F804201B89A8F808300020BDE82E
:100F4000F0816588033504EB8504B442D9D31A6077
:100F50000CF1010C1FFA8CFCBCF1020FA3F804C0C9
:100F60000EF1100EBCD10A20BDE8F081DEF804605D
:100F700006F10804C1E70A20704700BF642A002078
:100F8000D82900202DE9F04FA94C256FEF007E1BDA
:100F9000B6008BB0A25D013A824604EB0609052A31
:100FA00031D8DFE802F05C3E3E1D1D03002840F012
:100FB000D580DFF8908298F80C30002B00F00A837F
:100FC00098F8003088F80C00013B062B1BD8DFE8AE
:100FD00013F00601BC02CE01AF011A00ED02C802F7
:100FE000002840F0BB80A7EB050B04EB8B0B9BF8B4
:100FF0000480B8F1010F00F04883C0F03183B8F1EC
:10100000020F00F011810F23A15D06938B1E012BAF
:1010100040F2AB80052A33D8DFE802F02F80695D0B
:10102000938F7B1B04EB83038249B3F8128001EB9F
:101030000818002840F0AA80B8F808A0D8F80410D2
:101040001B7C01EB8A0A062B00F28C83DFE813F08D
:10105000A701EA01D30130021902070204020028A5
:1010600040F08D8099F80430032B00F20681DFE810
:1010700013F03F014C012F010B0100238DF81430B8
:101080006D4D05F1200655F8043F0BB105A89847B2
:10109000B542F8D1206FC0EBC00004EB80001C22E9
:1010A0000021FEF755FA636F3BB1226F0132013B1D
:1010B00002F00302636722673BB9604A137823F0AA
:1010C000040313700BB0BDE8F08F0020FFF75AFF48
:1010D0000BB0BDE8F08F7B1B04EB83030322D3F836
:1010E0000610DB68089107938DF81420C8E77B1B76
:1010F00004EB830302211A7C1E899D88D868ADF811
:101100002060A2F10603B3FA83F35B098DF8243063
:10111000ADF8225007908DF81410B1E77B1B04EB5B
:101120008303012218899988DB68ADF82000ADF8A7
:10113000221007938DF81420A2E705238DF81430B0
:101140009EE77B1B04EB83030422DB88ADF8203091
:1011500000238DF81420ADF8223091E7A15D012322
:1011600006938B1E012B3FF655AF354B99F8166051
:10117000186C596C3044891B186459644AE72F492C
:101180000B7823F001030B7001233DE7DB88B8F8EF
:101190000AE0B8F80800C3F57F41FD31033303448A
:1011A0007144A8F80830A8F80A1001232CE7214B55
:1011B000B8F808101A781B7CB2FA82F2B3FA83F3FB
:1011C00052095B09013188F80A2088F80B300022A7
:1011D0000123A8F8081088F80C2088F8003098F847
:1011E0000A304BB1134A9389002188F80A101BB9C1
:1011F000927B002A40F0AD8298F80B304BB10D4B3A
:101200009A8B002188F80B101AB99B7F002B40F0B5
:101210009F827A1B002314F8222088F80030013ABC
:10122000A8F80230C8F8043000230693F2E600BFA5
:10123000EC290020642A002068290020D4290020FD
:101240008C290020D82900204FF001084FEA081807
:101250000AEB08034FF0000B5968CA4ACDF800B0FA
:101260000223C94800F0D4FF0AF808B000283FF470
:1012700029AF7B1B14F82320013AC4490B7823F0D3
:1012800001030B700E23BFE6DFF80C83BD4AD8F8CC
:101290000010BD484FF0000A0223CDF800A000F076
:1012A000B7FFBB4BBB495B88D8F800E089F804A0C6
:1012B0001B01CA1801F803A05368B8F80410C8F855
:1012C00000300223C2F804E01181A8F80430CDE711
:1012D000DFF8C482AC48D8F800100023012200F0E7
:1012E000EDFF02220023A8F8042089F80430BDE7AE
:1012F000A94BAA4A1968A44800230093022300F0CE
:1013000087FF012389F80430B0E7DFF888A29AF854
:101310000030022B00F023829AF81030022B93D079
:101320009A490B7843F0020323F001030B707BE72B
:10133000B8F80230974A02EB03129389002B00F0B1
:10134000E281954B9048196802229A800522002379
:1013500088F80020012200F0B1FF0346002B3FF483
:10136000B1AE1C2202FB05F2A25C013A4CE68A48AF
:10137000D8F80420D0F800E08188538882480EEB2A
:1013800081014FF0000ECDF800E003334FF0030E63
:101390009BB288F800E000F03BFF0346DEE7002345
:1013A000321D5146224400937748012300F030FF5C
:1013B0007B1B9B00E2180221117400283FF482AECF
:1013C000E25C0E23013A791B04EB8101B8F80AC0F4
:1013D000C988B8F808E0C1F57F40FD3003316044AA
:1013E0007144A8F80A00A8F8081041F61D518B4274
:1013F0003FF41AAF08E6002306F10C020AF10801D7
:10140000224400936048012300F002FF7B1B9B00F5
:10141000E218917D00290CBF0121032111740028DD
:10142000CED14FE6002306F108020AF1040122445E
:1014300000935548012300F0EBFE7B1B9B00E11855
:10144000E25C032A0CBF052306230B7400283FF43B
:1014500039AE013A0E23B6E741F61D53B3E7504BC0
:10146000504A5968484800230093012300F0D0FEF9
:10147000002840F03F817D1B04EB85040623237484
:1014800020E6A7EB050B4FEA8B0B04EB0B02444B5A
:1014900092691A601846002205A95A60FFF7A2FC5B
:1014A00000287FF47CAF14F80B200A23013AABE547
:1014B000DFF8F4E0DEF844C0BCF1000F00F0F98082
:1014C000DEF8401030485EF83120A7EB050B04EB46
:1014D0008B0B0EEBC103013101F00701CEF8401078
:1014E0000CF1FF3CBBF81410CEF844C04FF0000ED6
:1014F00003930AEB81019B88CDF800E000F088FEA1
:10150000039A9BF816309188BBF81420013B0A44DB
:10151000DBB2ABF814208BF8163013B901238BF82B
:10152000103000283FF4CEAD7A1B0E2314F8222091
:10153000013A48E7184AD8F80410938849880333D9
:101540000B440221938088F80010FFF7EBFB034661
:10155000002B3FF4B7AD1C2202FB05F2A25C013A5E
:1015600043E70D4B0D4A1968074800230093C8F85C
:101570000430072388F80030022300F049FE0346B8
:10158000ECE600BFDCD10200AC230020D42900200F
:10159000D8290020642A0020842A0020E4D10200F7
:1015A00060290020D8D102008C290020B8F8023030
:1015B000DFF8CCA11B019A4406200023DAF80410BE
:1015C000694A0093022388F80000684800F020FE72
:1015D0000346C3E698F80030072B2CD801A151F838
:1015E00023F000BFAF1102003716020037160200C9
:1015F000351502000D160200631502006315020086
:1016000005160200012388F80030E8E5B8F802303A
:10161000DFF86CA1564A1B010AEB03011068D1F8F0
:1016200004C0B2F804E048600220C2F800C0A1F88B
:1016300008E09080BFE7013B062B3FF6E4AC01A138
:1016400051F823F0DF1102004B1502006F13020066
:101650003113020007100200AD15020063150200ED
:10166000DBF80C30CDF818A005A80DF11201CDF86B
:101670001CA00593FFF7B6FB00284ED10A237A1B66
:1016800004EB82020221117168E63A4B1B789B073A
:1016900012D402230822002137480393FDF758FF94
:1016A000039B0A2B7FF454AF7B1B14F82320013AD1
:1016B000BAE5DCF80030FFDEB01D2F4B204405AA50
:1016C0005146FFF7FFFB03460028E3D143462B4A70
:1016D0000699CDF800A0254800F09AFD264B284A2F
:1016E0009B8802EB031200280CBF53460E2382F89E
:1016F0000E80D6E77B1B9B00E118E25C06230B748F
:10170000013A0E235FE651681848012200F0D6FD29
:101710000422034688F8002020E60699174A8B88A1
:10172000ABF806300888CDF800A00123ABF808001C
:101730000E4800F06DFDBDF81230114A02EB0312A5
:1017400000284FF0010114BF0E230023917396E788
:101750000123A8F80230FFF7E5FA0346F8E64FF058
:10176000000873E50F232EE6DCD10200AC23002035
:10177000842A0020D4290020902A0020D8D10200F9
:10178000642A00200846FFF7FDBB00BF2DE9F04F9B
:101790000D894C6885B00646002D00F0AB802068AE
:1017A00010F0030005D091E054F83070BF0740F00E
:1017B0008D8001308542F7D1002A00F08B80B2F88D
:1017C00000A05288644FDFF8A0813868D8F8749080
:1017D000032B00F1010E03BF306803904FF0040BA0
:1017E0004FF0000BB9F1030FC7F800E05FD8DFF846
:1017F0007CC1DCF84400C5F10807B84257D8D8F8D6
:10180000707002970F8849880191029900974944A6
:1018100001F00301C1EBC101890008EB010708F8E1
:101820000130FA80BDF800203A81039ABA6109F1CB
:1018300001090023BDF80410B9804FF00302C7F876
:101840000CE087F810B0A7F812A0BD75BA827B81B2
:10185000C8F87490DDB1DCF84020024402F00702C1
:101860000CEBC2020CF1380804EBC30103C90133CD
:1018700002F1080782E80300424514BF3A46624677
:101880009D42F1D1DCF844302B44CCF844303EB1D9
:101890000023324AC6F800E073601289B3723281C5
:1018A0002F4A137813F0040442D000200BE02D4B94
:1018B00003EB0A1AC2F57F42BAF80A30FD321A4425
:1018C000AAF80A20082005B0BDE8F08F032005B073
:1018D000BDE8F08F04EBC505A08808340244A5429A
:1018E00092B2F9D1D01C80B240F2FD34A04205D9A9
:1018F0000920E8E7002A7FF462AF0320194C94F82E
:1019000000A0BAF1000F07D1678925893D4405443D
:10191000ADB2B5F5806F1DD3257C3DB9678B258BA6
:101920003D440544ADB2B5F5806F09D30720CAE741
:1019300043F0040320461370FFF724FB2046C2E760
:101940004FF0010A554604EB0514384460810D89B7
:101950004C6837E75546F6E7E8290020D8290020EB
:10196000D4290020642A0020EC2900208C290020A2
:10197000074A1378082B09D010B4591C054C117074
:1019800044F8230000205DF8044B70470C2070479A
:101990008C2A00206C2900202DE9F04FB04B8BB031
:1019A0001A780023069305930793089309939307E6
:1019B0000DD5AC4C04F1200554F8043F05A803B143
:1019C0009847A542F8D100200BB0BDE8F08F12F087
:1019D0000106F8D1A24B42F001021A7000F0BCFBE4
:1019E000A14BDFF8A4C21968A04B01961D6801F550
:1019F0004053083301F5805000930831B046B34698
:101A000051F8083C9A4A9342A1F1080428D0A1F168
:101A10000C0301F6F47E02E0734500F0FD8053F8FC
:101A2000042F0132F8D04FEA0813924A4FF0030412
:101A300008F10108D4541FFA88F8009B01F5805181
:101A4000994200F58050DBD1DA46002E40F0058146
:101A5000BAF1000F40F08A800B200BB0BDE8F08F88
:101A600051F8043C844A934243D001329342CED190
:101A7000019B93B17F4B7F4F4FEA081903EB09029B
:101A80004FF0020E08F10108DCF8003007F809E019
:101A90001FFA88F85360A2F808E00222CCF8004050
:101AA000ACF804200B68013300F0B48014464FF604
:101AB000FF7E0A4602E01368013313D09388734512
:101AC00006D0138823B19368AB4201D91D46012685
:101AD000538803331C4402EB8302A4B29042ACF857
:101AE0000440E8D8022C00F0958008234BEA030B51
:101AF000A3E7604F4FEA081307EB030E4FF000090E
:101B0000022207F80390CEF80440AEF808200293B2
:101B10000B6801331ED00B464FF6FF7A11E09C682C
:101B2000AC4201D9254601265C880334224403EBEC
:101B3000840392B29842AEF808200BD91C68013495
:101B400008D09C88544502D01C88002CE7D14FF067
:101B50000109E9E7029B474A134408F1010883F8A9
:101B60000E901FFA88F84BF0020B66E7BAF1060FE9
:101B70005FFA8AF30AD0013B0A2B1CD8DFE803F096
:101B8000191B191B441B441B41474100344B354C66
:101B90001B78334A43F0020323F00103137004F16E
:101BA000200554F8043F05A803B19847A542F8D191
:101BB00009E700230393314A516F032912D8304BB0
:101BC0005B6C082B0ED8136F0B4403F00303C3EBBD
:101BD000C3039B00D0180124D45401319DF80C306C
:101BE000037151671E4B1B7813F004047FF4EBAEB6
:101BF0001B4A43F0040320461370FFF7C3F9204645
:101C0000E2E603230393D6E701230393D3E70223FA
:101C10000393D0E7042369E7DCF80030ABB1154A41
:101C20004FEA081302EB030E164ACEF80440114C9B
:101C3000A2F80280022208F10109E2541FFA89F891
:101C4000AEF808204BF0010BF7E60223ACF80430A5
:101C50000123CCF800400193F4E7044B1D60F7E644
:101C6000D429002068290020AC230020E829002086
:101C7000DEC0ADDE642A0020FE011EF1EC2900204A
:101C80008C290020D8290020842A002060B159B175
:101C900030B583B00C460DF106010546FFF7A2F8FA
:101CA00020B90A2003B030BD05207047BDF80620DA
:101CB000074B686803EB021301219A890A449A8151
:101CC00020606B6800200C336360A97203B030BDE4
:101CD000642A002050B110B582B00DF1060104460F
:101CE000FFF780F820B90A2002B010BD0520704728
:101CF000BDF80620084B03EB02139A8912B906209F
:101D000002B010BDA17A0029F9D00021013A9A81D0
:101D10000846A172E8E700BF642A00201D4B1B782B
:101D20009B0702D402231846704740B1CB1C9BB2DC
:101D300040F2FD32934205D9092318467047052326
:101D40001846704770B4144A157895B956891489A5
:101D500034441C44A4B2B4F5806F0AD22C4602EB82
:101D6000041233445381058041800023184670BC1F
:101D70007047147C54B9568B148B34441C44A4B261
:101D8000B4F5806F02D201252C46E8E707231846F8
:101D900070BC7047D4290020642A0020134B1B78A4
:101DA0009B0702D4022318467047D0B10388022B48
:101DB00002D904231846704710B40D49428801EB3C
:101DC000031359898C1A032C0DD4C2F57F42FD32BE
:101DD0000A4400215A810B46016018465DF8044B05
:101DE00070470523DFE70423F7E700BFD42900206D
:101DF000642A00200D4B1B789B0701D402207047FA
:101E000059B110B40C884FF6FF739C4201D04B8837
:101E10002BB904205DF8044B70470520704702235E
:101E200000225DF8044BFFF7B1BC00BFD4290020AD
:101E30003AB130B40C4C2478A30704D4022030BC4F
:101E400070470520704769B10D884FF6FF74A542B1
:101E500001D04B8813B9042030BC7047022330BC3A
:101E6000FFF794BC0520EAE7D429002028B10E4AE8
:101E70001278930703D40220704705207047002989
:101E8000FBD010B40C884FF6FF72944201D04B88FF
:101E90001BB904205DF8044B7047032300225DF852
:101EA000044BFFF773BC00BFD4290020F8B5194AD2
:101EB0001378990701D40220F8BD4FF6FF718842CC
:101EC0001BD0154C656F032D19D81449496C08298E
:101ED00015D8216F294401F00301C1EBC10189002C
:101EE00066180527675401350121F0803171656757
:101EF00013F0040405D00020F8BD0420F8BD08202C
:101F0000F8BD43F0040320461370FFF73BF820466A
:101F1000F8BD00BFD4290020EC2900208C29002026
:101F2000F8B5164A1378990701D40220F8BD144871
:101F3000416F032918D8134C646C082C14D8046F13
:101F4000114D0C4404F00304C4EBC4042E78013199
:101F5000062700F8247041670EB10121297313F0A0
:101F6000040403D00020F8BD0820F8BD43F00403AA
:101F700020461370FFF706F82046F8BDD42900204C
:101F8000EC2900208C290020D829002010B50C4C09
:101F900082B0ADF806002078ADF80410810702D4B5
:101FA000022002B010BD3AB133B101A90DF1060013
:101FB000FEF788FF02B010BD052002B010BD00BFC3
:101FC000D429002000B50D4B83B0ADF80600187879
:101FD000830703D4022003B05DF804FB51B14AB17A
:101FE000134600200A460DF10601FEF76BFF03B011
:101FF0005DF804FB052003B05DF804FBD429002044
:1020000000B50D4B83B0ADF806001878830703D4F4
:10201000022003B05DF804FB51B14AB113460DF143
:1020200006000A460021FEF74DFF03B05DF804FBF1
:10203000052003B05DF804FBD429002020B119B1BC
:1020400003680B60002070470520704729DF704748
:1020500028DF704770B50C4D696E042911D02B6EC6
:102060000B44032B88BF043B182202FB0354064693
:102070004B1C204600216B66FDF76AFA3460012094
:1020800070BD002070BD00BF9C2A002070B5304C90
:10209000636E84B07BB1266E7500AB1904EBC3038D
:1020A0001A7A012A09D0022A26D19889FFF7D0FF8F
:1020B000112818D000BB04B070BDA8199A8ADB8A19
:1020C00004EBC000D21AC1680069B2F5806F4FEA14
:1020D0008303B4BF92B24FF4806219441844FFF7EF
:1020E000B5FF1128E6D11B4A137823F0020343F011
:1020F0000403137004B070BD102268460021FDF780
:1021000027FAAB1904EBC3031A7A012A17D0022A63
:1021100009D19A89DB89ADF80A20D21A0123ADF8DA
:1021200008208DF800303544ED006219635952687B
:10213000019268469B680921984704B070BD1A69EE
:102140009B8A029200218DF80010ADF80C30EAE76E
:102150009C2A0020982A00202DE9F0434FF01023FC
:102160005D696B1C48D0DFF8A48098F800C01CF0B3
:10217000010F3ED1234F2448C01B000935D007EB87
:1021800000113B4686461A681AB15A680AB10EF128
:10219000FF3E10339942F6D1BEF1000F25D0002644
:1021A00000229146F4B23B4606E0596839B101324B
:1021B000904203F110030ED019680029F5D1597B24
:1021C000494588BFD4B202F1010288BF89469042D6
:1021D00003F11003F0D12401E31901361A7B5D608D
:1021E000B645A5EB0235E551DAD14CF0010C88F883
:1021F00000C00020BDE8F0834FF080535D692D03DF
:10220000B1E700BFAC230020BC230020982A0020A7
:102210002DE9F041264D2C78E60782B012D510B199
:10222000244CA04203D2022002B0BDE8F081224C2F
:10223000A042F8D252B149B142EA0104A40707D042
:102240000620F1E7012002B0BDE8F0810320EBE7B2
:102250000468A14201D20520E6E7466801EB830449
:10226000A642F8D30BB90420DEE7804601A81E463B
:1022700014460F46FFF7EEFE08B90720D4E7019990
:102280002B78C1F80080019A089848600121D46039
:1022900013F0060417619682117201D00020C3E783
:1022A00043F002032B70FFF7F1FE2046BCE700BFAE
:1022B000982A0020AC230020BC2300202DE9F04107
:1022C000244D2C78E40782B010D510B1224CA042E6
:1022D00003D2022002B0BDE8F081204CA042F8D227
:1022E00041B1C1F30B043CB10620F3E7012002B079
:1022F000BDE8F0810320EDE70468A14201D205208A
:10230000E8E7466801EB0234A642F8D30AB9042094
:10231000E0E7804601A81E4614460F46FFF79AFEE6
:1023200008B90720D6E701992B78C1F80080019AF7
:102330004E600220390B148213F006049181107252
:1023400001D00020C6E703432B70FFF79FFE204615
:10235000C0E700BF982A0020AC230020BC23002047
:1023600020B1034B5B6E0360002070470320704771
:102370009C2A00202DE9F047B44FB54C3B78256EE0
:10238000990784B040F18180022800F0DD800328A5
:1023900040F0D480AF4E33780133DBB2032B33707F
:1023A00040F2AF804FF0000A1022514668464FEAD3
:1023B000450886F800A0FDF7CBF808EB050304EB11
:1023C000C303E9461A7A012A00F0F080022A09D1F3
:1023D0009A89DB89ADF80A20D21A0123ADF80820CA
:1023E0008DF800304544ED0062196359526801923E
:1023F0009B68484608219847626E013A6266002A47
:1024000040F00D81236E3978013321F00201042B55
:102410003970236640F08F80002525668C4C23465A
:10242000002A00F088804FEA450808EB050204EB1B
:10243000C202117A012940D0022975D010226846C3
:102440000021FDF785F808EB050304EBC303E9461B
:102450001A7A012A00F08B80022A09D19A89DB8935
:10246000ADF80A20D21A0123ADF808208DF800300B
:102470004544ED00621963595268019248469B68D1
:102480000921984704B0BDE8F0875A0739D5626E34
:1024900003F0FB033B70002A4DD043F002024FEAE9
:1024A00045083A7008EB050204EBC20208EB05038D
:1024B000117A012904EBC303BED1D08A08EB0503CE
:1024C00004EBC3039A8A08EB050304EBC303121A57
:1024D000D9681B69B2F5806F4FEA8000B4BF92B231
:1024E0004FF4806201441844FFF7B0FD112820D159
:1024F0003B7823F0020343F004033B7004B0BDE8D3
:10250000F08705EB450304EBC303626E88E7F389AC
:10251000B289318A01339BB201329942F381B2818F
:102520006CD0636E3BB133469889FFF791FD11285B
:10253000DED0002882D104B0BDE8F08705EB45036A
:10254000626E04EBC3036BE74FEA450808EB050333
:1025500004EBC3063F4A337A4FF0000A012B82F89E
:1025600000A00DD0022BD2D03346626E58E71A6914
:102570009B8A029200218DF80010ADF80C3077E7AD
:10258000F08AB18A0B1AB3F5806FB4BF9BB24FF4D7
:10259000806308EB0502184480B204EBC206814256
:1025A000F0820BD0636E002B88D1C4E71A699B8A36
:1025B0008DF800A00292ADF80C3013E768461022A7
:1025C0000021FCF7C5FF337A012BE94634D0022BFA
:1025D00009D1F289B389ADF80A309B1A0122ADF80E
:1025E00008308DF8002008EB0503DB00E218E35803
:1025F0005268019248469B680021FCE6684610221A
:102600005146FCF7A5FF337A012BE946DFD1326949
:10261000B38A8DF800A00292ADF80C30E3E7256E86
:102620000135042D25663FF4F7AE4FEA450808EB67
:10263000050304EBC303F8E63269B38AADF80C3046
:1026400000218DF800100292CDE700BF982A0020EB
:102650009C2A0020042B0020C30711D4810711D429
:10266000420711D4030711D4C10611D4820611D434
:10267000430611D4C3094FF6FF7018BF07207047F7
:1026800000207047012070470220704703207047E8
:10269000042070470520704706207047E8B1E1B17B
:1026A00010B40488944227D04488944226D0848869
:1026B000944225D0C488944224D00489944223D0E3
:1026C0004489944222D08489944207D0C0899042A0
:1026D00008BF072003D05DF8044B70470620012295
:1026E00023B10B78824013430B70F4E70B788240E0
:1026F00023EA02030B70EEE70020F0E70120EEE78B
:102700000220ECE70320EAE70420E8E70520E6E7FB
:102710002DE9F0439DF81C4008B301B3FAB10588D8
:102720009D4200F0E88045889D4200F0EA8085885F
:102730009D4200F0E880C5889D4200F0E680058952
:102740009D4200F0E48045899D4200F0E280858949
:102750009D4206D0C089984208BF072002D0BDE83C
:10276000F083062001238340DBB2002C5FD14E4270
:1027700006F00306964228BF1646042A00F2B280ED
:1027800014460878DD43EDB22840012C087000F0B3
:10279000B6804878022C00EA0500487000F0AF804F
:1027A0008878042C00EA0500887040F0B880C8786A
:1027B0000540CD702646A242D1D0A2EB040EAEF168
:1027C0000407551EBF082D1B0137022D4FEA870C49
:1027D0001AD9002563F3070563F30F2563F3174543
:1027E000081963F31F65ED43A0F104094FF00008D9
:1027F00059F8044F08F101082C40B84540F8044B43
:10280000F6D3E6456644AAD0D8438B5DC0B2741CAB
:102810000340A2428B55A2D90D5DB31C05409A42DC
:102820000D557ED9CA5C1040C854BDE8F0834842BB
:1028300000F00300904228BF1046042A57D81446DF
:102840000878012C40EA0300087056D04878022C22
:1028500040EA0300487050D08878042C40EA030016
:1028600088705AD1C8781843C8702046A24252D006
:10287000A2EB040EAEF10406551EB6082D1B013660
:10288000022D4FEA86081AD94FF0000C63F3070CAB
:1028900063F30F2C0C4463F3174C63F31F6CA4F128
:1028A0000409002759F8045F01374CEA0505BE42C8
:1028B00044F8045BF6D8C64540443FF450AF0D5C85
:1028C000441C1D43A2420D547FF649AF0D5D0230FA
:1028D0001D4382420D557FF642AF0A5C13430B54F1
:1028E000BDE8F083002E3FF468AF344649E7044664
:1028F0000028BDD0A4E7002034E72046B6E72646EE
:1029000059E701202EE702202CE703202AE70420C4
:1029100028E7052026E7BDE8F0830320A6E7032685
:1029200049E7BDE8F08300BFD0B1038893421ED0D1
:10293000438893421DD0838893421CD0C38893421E
:102940001BD0038993421AD04389934219D08389BB
:10295000934206D0C389934208BF072002D00020CB
:102960007047062041FA00F000F001007047002097
:10297000F8E70120F6E70220F4E70320F2E704205D
:10298000F0E70520EEE700BF00293AD012F001037E
:1029900030B402D00B8883800123950704D500EB67
:1029A00043044D88A5800133540704D500EB43044C
:1029B0008D88A5800133150704D500EB4304CD882D
:1029C000A5800133D40604D500EB43040D89A5800E
:1029D0000133950604D500EB43044D89A5800133EE
:1029E000540604D500EB43048D89A5800133D20938
:1029F00004D000EB4302C98991800133036030BCED
:102A000070470160704700BF0A7B4B6810B40C68C8
:102A1000002A0ABF234600220122027103605DF8EA
:102A2000044B704710B40279034652B148681C68E1
:102A30008A68011B914210D9A01818605DF8044BF8
:102A40007047046808688A68211A91420BD80122ED
:102A500018601A715DF8044B7047002218601A71F3
:102A60005DF8044B7047A01A18605DF8044B70477E
:102A7000054A4FF0A043105CD3F8043523FA00F068
:102A8000C04300F001007047F0D10200044B195C14
:102A90004FF0A04201238B40C2F80C35704700BFB5
:102AA000F0D10200044B195C4FF0A04201238B408F
:102AB000C2F80835704700BFF0D102004FF0A043C4
:102AC00010B44FF480204FF400344FF400214FF441
:102AD0008012C3F80845C3F80805C3F80815C3F801
:102AE00008255DF8044B70474FF0A04310B44FF435
:102AF00080204FF400344FF400214FF48012C3F8CB
:102B00000C45C3F80C05C3F80C15C3F80C255DF88B
:102B1000044B7047074B4FF0A041185CD1F80435C7
:102B20000122824022EA03001340C1F80805C1F8DF
:102B30000C357047F0D1020030B44FF0A0430322AF
:102B40004FF400354FF480244FF400204FF48011EF
:102B5000C3F84427C3F84827C3F84C27C3F85027C5
:102B6000C3F80855C3F80845C3F80805C3F80815A5
:102B700030BC7047054A4FF0A043105CD3F81035C5
:102B800023FA00F0C04300F001007047ECD10200CE
:102B90000D2809D00E2809D00F2809D010280CBF05
:102BA00003204FF0FF30704700207047012070472E
:102BB00002207047014B185C704700BFECD1020047
:102BC00010B51A4B1A6882B0A2B100221A601B68B5
:102BD00000934FF080430122154C0099C3F808235D
:102BE000A368627033B10CCB0020A2609847A36841
:102BF000002BF8D10F4B1A68AAB100221A601B688B
:102C000001934FF080430222094C0199C3F8082335
:102C100023690122A27033B10CCB012022619847B5
:102C20002369002BF8D102B010BD00BF00010040A5
:102C3000082B00200401004058B910B5054CA368CA
:102C400033B10CCB0020A2609847A368002BF8D1C9
:102C500010BD7047082B002010B582B002A80023D9
:102C6000144C00F8013DFEF71FF8237853B1E368D8
:102C70009DF8070001330122E360A270FEF73AF8E5
:102C800002B010BD0C4A6360E3601068A36010F0EE
:102C9000010023610AD009F0B9FC20B94FF080434C
:102CA0000122C3F8182501232370E0E7072100F073
:102CB00005F8F0E7082B002000E100E0002810B440
:102CC00018DB00F1604303F561434901C9B283F8A1
:102CD0000013C3B24009800000F1604000F561407C
:102CE00003F01F0201239340C0F8803103605DF8B8
:102CF000044B7047C3B2044A03F00F044901224455
:102D0000C9B21176E6E700BFFCEC00E030B51D4C1F
:102D100094F8545083B015B1082003B030BD4FF083
:102D2000FF33FF220721062023636363A363E3636A
:102D300023646364A364E36423606360A360E3606B
:102D400023616361A361E361236284F850306362AD
:102D5000A36284F85230E36284F8533084F851203F
:102D6000FFF7ACFF084B094A1D601B6801930198EF
:102D70004FF000430121284684F85410C2F8043370
:102D800003B030BD1C2B00207C610040006000407F
:102D9000034B93F85400003018BF0120704700BF68
:102DA0001C2B0020F0B55E4C251895F93030002B17
:102DB00001DB0820F0BD91F803E0BEF1000F50D018
:102DC0002368013300F0A6800826012554F8253039
:102DD00001334CD06B1C54F82370013748D0AB1C26
:102DE000B3423CD254F82370013741D0EB1CB342BC
:102DF00035D254F8237001373AD02B1DB3422ED26E
:102E000054F82370013733D06B1DB34227D254F8E6
:102E1000237001372CD0AB1DB34220D254F823705D
:102E2000013725D0EB1DB34219D254F82370013776
:102E30001ED005F10803B34211D254F823700137B4
:102E400016D005F10903B34209D254F823700137B3
:102E50000ED00A35B54202D2E36A013358D00420BD
:102E6000F0BD236A01332DD00C260925AEE72B4691
:102E700026185DB244F8232086F83050BEF1000FCA
:102E800026D08B78A3B94A784FF0A04600F5E073BE
:102E9000920046F82320CB78F3B9083D2C440978FA
:102EA00094F8502042EA811284F850201846F0BD70
:102EB000830003F1A043D3F8002722F00202C3F8F5
:102EC0000027E8E7082685F8306033462262354659
:102ED000234483F84800D4E7AB0003F1804303F5B3
:102EE000C0430978D3F8104524F4473424F44074DF
:102EF000C3F8104502020904D3F8100501F440316B
:102F000002F4F8520A430243C3F810250020F0BD32
:102F10000B23ADE7002385F8303022601D46B0E773
:102F20001C2B0020F0B42E4D2E1882B096F93030B4
:102F3000072B1CDD2B4493F848309B09032B41D011
:102F4000012B14BF4FF440314FF40031800000F1E9
:102F5000A040D0F8002722F44032C0F80027D0F873
:102F600000370B43C0F8003702B0F0BC7047DAB24C
:102F7000072AF9D8980000F1804000F5C04003F11D
:102F800040029200D0F8104592B202F18042002730
:102F900044F0010402F5C042C0F8104501970198C1
:102FA00017600029E0D096F9302055F82220002A39
:102FB000DAD001220B4902FA03F3C1F8043302B05C
:102FC000F0BC70474FF0A043D3F81035C34013F066
:102FD000010F0CBF4FF400314FF44031B6E700BF92
:102FE0001C2B0020006000404FF0A043D3F81035A8
:102FF00023FA00F000F00100704700BF2DE9F04F08
:1030000087B00023CC4A01931168012900F00A829D
:103010001E46CA4B1A68012A00F0F681C84B1A688E
:10302000012A00F0E381C74B1A68012A00F0D08121
:10303000C54B1A68012A00F0BD81C44B1A68012AE9
:1030400000F0AA81C24B1A68012A00F09781C14B97
:103050001A68012A00F08481BF4B1A68012A00F027
:103060005E8116F0FF0F1AD0BC4F01250024A3008B
:1030700003F180432E4203F5C0434FEA45050BD0D0
:10308000D3F8100557F82420D3F81015C0F3042006
:10309000C1F3014102B190470134082CE7D1002E61
:1030A00002DB07B0BDE8F08F00224FF0FF33AB4CDE
:1030B00002920393012502AE94F950104F1C2DD0BB
:1030C000C9B221F0C00006AB4FEAD00E03EB0E07E9
:1030D00001F0070317F80C2C05FA03F31A421DD070
:1030E0002218890992F9302054F82220002A00F091
:1030F000F080032900F0F0804FEA800E0EF1A04E20
:1031000017F814CCDEF800771CEA0303C7F3014973
:1031100040F0B880B9F1030F00F0D7814FF0030AF7
:103120004FF002094FF00108002794F95110481C94
:103130002DD0C9B221F0C00006AB4FEAD00C03EB92
:103140000C0E01F007031EF80C2C05FA03F31A42CB
:103150001DD02218890992F9302054F82220002A23
:1031600000F0CA80032900F0CA804FEA800C0CF1FD
:10317000A04C1EF814BCDCF800E71BEA030FCEF3EA
:10318000014E40F09080BEF1030F00F08A8194F967
:1031900052104A1C2CD0C9B221F0C00006AB4FEA35
:1031A000D00C03EB0C0E01F007031EF80C2C05FAF3
:1031B00003F31A421CD02218890992F9302054F8DE
:1031C0002220002A00F08F80032900F08E804FEA31
:1031D000800C0CF1A04C1EF814ACDCF800E71AEAE5
:1031E000030FCEF3014E6AD1BEF1030F00F046810A
:1031F00094F953104B1C2CD0C9B221F0C00006AB7F
:103200004FEAD00E03EB0E0201F0070312F80CCCCC
:1032100005FA03F31CEA030F1BD004EB000C890929
:103220009CF930C054F82C90B9F1000F6ED00329EE
:103230006ED04FEA800E0EF1A04E12F814CCDEF8DC
:1032400000271CEA030FC2F3014211D1032A00F048
:10325000F580002F3FF425AF4FF0A043019AD3F83B
:1032600010359A423FF41DAF029A0193039223E76F
:10327000022AEED1032900F04681B9F1000FE8D00F
:10328000C847E6E7B9F1020F7FF448AF032900F021
:1032900043814FF0030A4FF001080027002A3FF452
:1032A00044AF904741E7BEF1020F7FF470AF0329AE
:1032B00000F02C81002A3FF46AAF904767E7BEF127
:1032C000020F95D1032900F02481002A90D0904765
:1032D0008EE703297FF422AF16F80EC04CEA030CE8
:1032E00006F80EC008E7032982D116F80CA04AEAB6
:1032F000030A06F80CA06AE703297FF448AF16F822
:103300000CB04BEA030B06F80CB02EE70329A0D152
:1033100016F80EC04CEA030C06F80EC089E700222E
:103320001A601B6805934FF0A043059AD3F8103537
:10333000019346F0004694E60061004004610040BD
:10334000086100400C6100401061004014610040C1
:10335000186100401C6100407C6100401C2B002073
:103360006F4AD2F8042312067FF576AE00221A6067
:103370001B680493049B46F080066DE6684AD2F809
:10338000042351067FF563AE00221A601B68049384
:10339000049B46F040065AE6614AD2F804239006A0
:1033A0007FF550AE00221A601B680493049B46F020
:1033B000200647E65A4AD2F80423D4067FF53DAEEC
:1033C00000221A601B680493049B46F0100634E642
:1033D000534AD2F8042315077FF52AAE00221A605B
:1033E0001B680493049B46F0080621E64C4AD2F879
:1033F000042357077FF517AE00221A601B68049359
:10340000049B46F004060EE6454AD2F804239207D0
:103410007FF504AE00221A601B680493049B46F0FB
:103420000206FBE53E49D1F8046316F001063FF4BD
:10343000F0AD136013680493049BEAE503297FF45D
:103440001CAF4FF40032DEF8003723F44033CEF8DF
:103450000037DEF800371343CEF80037B9F1000F1C
:1034600001D047460CE74FF0A043019AD3F810353E
:1034700093427FF4F9AE07B0BDE8F08F03297FF4E3
:1034800024AF4FF40037DCF8003723F44033CCF896
:103490000037DCF800373B43CCF800374746C846D6
:1034A00013E703297FF406AF4FF40037DCF8003749
:1034B00023F44033CCF80037DCF800373B43CCF83A
:1034C00000374746C846D146F4E6032906D0CA4627
:1034D0001F464FF002094FF00108DFE64FF40037B6
:1034E000DEF8003723F44033CEF80037DEF800373B
:1034F0003B43CEF800374FF0040A4FF003094FF07A
:1035000002080127CAE64FF440329CE74FF44037E7
:10351000CCE74FF44037B6E74FF44037E0E700BF61
:1035200000600040F0B50479714E6401331987B032
:10353000DD7E15B1082007B0F0BD4D7F1D770D6809
:103540006B1C0BD04FF0A0470123AB40C7F80835E8
:103550000B6803F5E073032547F823504B685F1CA5
:1035600006D003F5E0734FF0A045002745F823701F
:10357000037906EB43131B7F002B4CD003688D6946
:10358000C3F824550F7D4B7D05683B43C5F86C356A
:1035900003680F684D68C3F80C75C3F814550B7DAC
:1035A000012B00F09A80331905465A600B6933519C
:1035B000EAB10379097F026806EB43131B7F002BF6
:1035C00065D1C2F81C31D2F81C712A680097009F9F
:1035D000C2F84431D2F844212B6846480192019A3E
:1035E000C3F80403286840F30730FFF767FB2B7923
:1035F0002A6806EB43131B7F002B44D00823C2F834
:103600000035344400200123E376E0752076A07570
:10361000A07607B0F0BD05688F69C5F8247591F8EC
:1036200014E04D7D076845EA0E05C7F86C5505683E
:10363000D1F800E04F68C5F81475C5F80CE50D7DAC
:10364000012DB0D18D686F1C05D005F5E0754FF0E8
:10365000A04747F82530CB685D1C0DD001254FF001
:10366000A04705FA03F3C7F80835CB6803F5E07304
:10367000032547F82350CB6805688F68C5F80835DF
:10368000C5F810758FE70423C2F80035B9E70023A9
:10369000C2F81031D2F810712A680297029FC2F85E
:1036A0002031D2F820712A680397039FC2F8243191
:1036B000D2F824712A680497049FC2F84431D2F8E2
:1036C00044212B6805920C48059AC3F80403286826
:1036D00040F30730FFF7F2FA89E78B685D1CBAD038
:1036E00003F5E0734FF0A045002745F82370B2E7DB
:1036F000742B00208000020010030200F0B5027954
:103700003C4B046852019918097F00296CD00021B4
:10371000C4F8001599184968B1B1017903EB41115A
:10372000097F002963D10168334CC1F8084301685F
:10373000324E090B4CB26409203401F01F010125FF
:1037400005FA01F146F824100179076803EB4111ED
:10375000D7F80C65097FD7F814554FF0FF3EA9B391
:10376000D7F80815D7F81045C7F80CE5C7F814E5E1
:103770000068C0F808E5C0F810E5771C06D006F52B
:10378000E0764FF0A040022740F826706E1C06D06D
:1037900005F5E0754FF0A040022640F82560651C55
:1037A00006D004F5E0744FF0A040022540F8245004
:1037B000481C06D001F5E0714FF0A040022440F80B
:1037C000214013440022DA765A60F0BDD7F808157C
:1037D000D7F81045C7F814E5C7F80CE50068C0F83D
:1037E00008E5C0F810E5C8E7C4F8001592E70168DD
:1037F000034C9AE7742B00208402020000E100E0F1
:1038000010030200F0B50379524C5B01E51887B054
:103810002D7F3DB101F06045B5F1005F02D0102071
:1038200007B0F0BD23449E7D16B1112007B0F0BD56
:103830009A7599609E8205796D016219137F13BB99
:103840000168C1F81C31D1F81C6101680496012699
:10385000049F8E600168D2F808E0C1F81C31D1F8ED
:103860001C310593059B968A938A5768B6B201333B
:103870001EF806609BB29382C1F81C65002F2FD002
:10388000002007B0F0BD03689168C3F82061D3F849
:10389000207103680197019FC3F85861D3F85861FC
:1038A00003680296967D029FC3F84415C3F84865E5
:1038B0000368012199605368002BE1D1036801E09E
:1038C000002945D1D3F82021D3F85811002AF7D088
:1038D000002914BF0F2000202C440023A3759FE76C
:1038E000967D938A9BB29E4202F1140122D901680F
:1038F00004E0938A9BB2B3F5807F03D0D1F81C31EA
:10390000002BF6D0938A9BB2B3F5807FE9D0C1F843
:103910001C71D1F81C310393039BB2F814C0938A35
:103920001FFA8CFC01331EF80CC09BB29382C1F8C5
:103930001CC5D6E70B889BB2B3F5807F08D0026820
:10394000D2F81C31002BFBD00123D3600020C3E749
:103950000F20C1E7742B00200279044B03EB4213C4
:10396000987D003018BF0120704700BF742B0020E5
:1039700070B5A54C237F8EB0002B73D1A34AD2F82B
:103980000413890546D4A14BD3F80423520704D568
:10399000D3F80821002A40F0C9809C4BD3F81C21A1
:1039A000BAB1A28AA17D92B28A424FF00002C3F856
:1039B0001C2180F0A880D3F81C210692069AA18AC7
:1039C000A28AA06889B20132415C92B2A282C3F895
:1039D0001C158E4BD3F84421D2B10022C3F84421E8
:1039E000D3F84411A27E04910499002A40F0888003
:1039F000E37D6BB10023617EE268E37501238DF8FE
:103A000030108DF828300B9294E80A000AA89847E5
:103A10000EB070BDD2F824110029B4D0C2F8243100
:103A2000D2F82411A37E07914FF401710798C2F8D0
:103A300008130BB901235360744A02238DF8283010
:103A4000D2F88034C2F88034E07DE2680D93002320
:103A50008DF83000E375237621680B9263680AA81D
:103A600098479AE7694BD3F82421002A40F09280C6
:103A7000D3F8101161B1C3F81021D3F810110391DC
:103A80000399D3F83C15E07DC9B2884200F0A480C8
:103A90005E4BD3F84421B2B10022C3F84421D3F8DD
:103AA0004401E17D0190019869B1D3F83C35E168AA
:103AB0008DF8303001230B918DF82830E27594E8B1
:103AC0000A000AA89847514BD3F82021002A9FD01A
:103AD0000022C3F82021D3F82001A17D0090009896
:103AE000002995D0D3F84C15A3688DF830100B93AE
:103AF0008DF82820A27594E80A000AA8984787E75D
:103B000001221A6074E7D3F81C310593059B002944
:103B10003FF45FAFA3688DF830100B938DF8282029
:103B2000A27594E80A000AA8984752E7E27D002AA5
:103B30006ED00022C3F80821D3F808210892089A11
:103B4000E168627ED3F818358B54637EE27D0133E1
:103B5000DBB26376637E93427FF41FAF237E002B3C
:103B60006CD1A37E13B9294B01225A60274AE06821
:103B700063684FF40171C2F80813627E8DF830203B
:103B8000002501220B902168E5758DF828200AA8F0
:103B9000984702E70022C3F82421D3F824110291A8
:103BA00002218DF828100299D3F88014C3F88014EC
:103BB0000D91D3F83C15E368E27522768DF830104C
:103BC0000B93216863680AA89847104BD3F84421E7
:103BD000002A3FF478AF5FE7217E11B3D3F800628B
:103BE000E568E17526F02006C3F8006226698DF8C5
:103BF000300001238DF82830227621680B95E6608D
:103C000063680AA8984743E7742B0020002000400F
:103C1000C3F80821D3F8081109910999D3F8183588
:103C200098E7E268E17501238DF830008DF82830BF
:103C30000B9294E80A000AA8984729E7607EE56895
:103C40002169E375012200238DF83000E1602376BD
:103C500063760B958DF8282094E80A000AA8984707
:103C60009BE600BF0220FEF755BF00BF2DE9F047DD
:103C70000D460646FEF78CFF03281ED8012D04468C
:103C80001FD00ED3022D1AD11D4B00EB40041C4453
:103C9000657895B11B4B1B687BB12846BDE8F047A2
:103CA00018471948FCF7A8FF154B184A04EB4401C4
:103CB0000B44125D9D78AA42EBD0BDE8F087BDE8C9
:103CC000F0870F4F4FEA400808EB0003FA18FD5C3D
:103CD00053782BB9A04447440C4BBA781A55D8E70F
:103CE0000B4BDFF830901968074801EB8101490060
:103CF0004A46FCF729FF0028ECD189F80060E9E783
:103D0000DC2B0020102C0020BC2B0020182C0020C5
:103D1000B82B0020942B00207F4B1B68DB0700D4BE
:103D2000704770B57D4E7E4D33782C789BB9172C3B
:103D300010D8DFE804F0666B6B879CB0C2AA24152C
:103D4000241582313131313151565ECF0C0CFEF7E2
:103D5000CBFE2C7070BD00233370FEF7AFFEE6E79C
:103D6000012318463370FEF7D5FE6E4B6E48196876
:103D7000002201EB8101BDE87040FCF7E5BE0123A4
:103D800018463370FEF7C6FE664B67481968002276
:103D9000BDE87040FCF7D8BE6448FCF72DFFD4F1B5
:103DA0001104024600F0A180002840F09E80012C02
:103DB0000DD0C8235E4D5B495C48096803FB04F3E2
:103DC000A5FB03435B0901FB03F1FCF7BDFE0220E9
:103DD000BDE87040FEF75ABEFEF770FE12232B704E
:103DE00070BDFEF76BFE0020FEF750FE13232B7014
:103DF00070BDFEF763FE0120FEF748FE14232B7012
:103E000070BDFEF75BFE00232B7070BD0020FEF737
:103E10002FFE002879D00020FEF744FE022C14BFAC
:103E2000282312233F4A2C7011683F4801FB03F1FD
:103E30000022BDE87040FCF787BEFEF755FE0C235C
:103E40002B7070BD0020FEF713FE002856D0002016
:103E5000FEF728FE0822334B3348196803232B70E2
:103E600001FB02F1BDE870400022FCF76DBE0020AE
:103E7000FEF7FEFD00283DD00020FEF713FE2822AD
:103E8000284B294819680423E9E70020FEF7FEFDC6
:103E900007232B7070BD0020FEF7EAFD90B30020D1
:103EA000FEF700FE1F4B2048196805232B704900C0
:103EB0000022BDE87040FCF747BE0020FEF72AFE56
:103EC000184B1948196806232B700022BDE8704072
:103ED000FCF73ABEFEF7F2FD0020FEF7D7FD012009
:103EE000FEF7D4FD15232B7070BD0220BDE8704095
:103EF000FEF7D8BDFEF7CAFD0422C1E7FEF7C6FDF6
:103F00000222A8E7FEF7C2FDCCE7FEF7BFFD022CB8
:103F100014BF0423022385E7E82B0020EC2B0020AC
:103F2000142C0020B82B0020F02B0020982B002010
:103F30001F85EB5110B50078FEF72AFE03280BD839
:103F4000064B00EB40001844407828B1044B1B6836
:103F500013B1BDE81040184710BD00BFDC2B002096
:103F6000102C0020FEF706BE904B1A6812F00102DA
:103F700001D11046704730B58D4D2B7883B0044683
:103F8000E3B9172C00F20F81DFE814F0DB00E10049
:103F9000E100540068007C008E003F002D001D00F1
:103FA0002D001D009900A000A000A000A000A0000E
:103FB000C000C700D10047003700370000232B7036
:103FC000FEF77CFDDDE7012318462B70FEF7A2FD0E
:103FD000784B79481968002201EB810103B0BDE8F4
:103FE0003040FCF7B1BD012318462B70FEF792FD5F
:103FF000704B714819680022F0E7FEF775FD6F4BB2
:1040000000221C70104603B030BD0020FEF73EFDBC
:104010006A4B07221A700022F4E7FEF74FFD0020DA
:10402000FEF734FD0120FEF731FD644B15221A70B6
:104030000022E7E70020FEF71BFD002800F0AF801C
:104040000020FEF72FFD08225A495C4B09685A48A8
:10405000032401FB02F11C700022BFE70020FEF7E1
:1040600007FD002800F094800020FEF71BFD2822A9
:104070005049524B09685048042401FB02F11C705E
:104080000022ABE70020FEF7F3FC002800F084805C
:104090000020FEF707FD474A484B116846480524B3
:1040A000490000221C7099E70020FEF733FD414AC9
:1040B000424B11684048062400221C708EE7FEF730
:1040C00013FD3E4B0C221A7000229BE73C48FCF784
:1040D00093FDD4F1110402464DD000284BD1012CA0
:1040E0000ED0C823374D33493548096803FB04F324
:1040F000A5FB03435B0901FB03F1FCF725FD024629
:1041000002200192FEF7C2FC019A7BE7FEF7D6FC83
:104110002A4B12221A70002274E7FEF7CFFC00200F
:10412000FEF7B4FC254B13221A7000226AE7FEF753
:10413000C5FC0120FEF7AAFC204B14221A700022B5
:1041400060E7FEF7BBFC1D4B00221A705AE7002007
:10415000FEF78EFCA8B10020FEF7A4FC022C14BFD1
:10416000282312231349154A09681470124801FBC9
:1041700003F1002232E702200192FEF793FC019A3C
:1041800040E7FEF783FC022C14BF04230223E9E777
:10419000FEF77CFC04226BE7FEF778FC7BE7FEF77A
:1041A00075FC022250E700222CE700BFE82B00201C
:1041B000EC2B0020B82B0020F02B0020142C00202A
:1041C000982B00201F85EB51F0B5214D214E224B3D
:1041D0002860044610F0020083B031601A6012D0EB
:1041E0001E4B1F484A080F270E2110261125197053
:1041F000DF7004219E715D72FBF7CEFEA0B1E30774
:104200001DD403B0F0BDE20719D4164A16480021A8
:10421000FCF788FC0028F4D1144A1548012103B0AA
:10422000BDE8F040FCF77EBCFBF710FF0028E6D1AC
:104230000146104A1048FCF775FCE10703D50190D0
:10424000FEF77AFC01980028DFD003B0F0BD00BF74
:10425000E82B0020B82B0020102C0020DC2B0020A5
:10426000F4D10200193D02001CD20200653C02009C
:1042700014D20200353F020018D20200032801D9EF
:1042800007207047012A12D0012917D008D302292C
:10429000F6D10D4B00EB4000034400205A707047EC
:1042A000094B00EB4000034400209A70704701293D
:1042B00001D00022E8E700F10E02D2B200EB400389
:1042C00001490020CA547047DC2B002008B5FEF7D6
:1042D00071FC800000F1A0430020D3F8002722F4F5
:1042E0004032C3F80027D3F8002742F44032C3F825
:1042F000002708BD08B50020FFF7E8FF10B1062829
:1043000000D008BD0120FFF7E1FF0028F9D0062802
:1043100008BF002008BD00BF10B50388102B08D0CF
:10432000112B05D1264B18680138186038B110BD23
:1043300010BD234C216881B10131216010BD0122E3
:104340000221FFF79BFF48B3072827D01D4B1B68AE
:10435000002BECD0BDE81040184701220846FFF7BB
:104360008DFF48B1072807D0164B1B6803B198474B
:1043700021680131216010BD072202210120FFF7D1
:104380007DFF08B10728EFD1042202210020FFF7AA
:1043900075FF0028ECD00728E6D1E9E707220221C3
:1043A0000120FFF76BFF08B10728CFD10021084695
:1043B0000A22FFF763FF0028B9D00728C6D110BD35
:1043C000202C00201C2C0020194B10B5186031B196
:1043D00001200C46FFF7C6FD30B102232370154BB8
:1043E000186848B1002010BDFFF7BCFDE8B9114BBB
:1043F000207018680028F5D101220221FFF73EFF46
:1044000008B10728EFD1072202210120FFF736FF6C
:1044100008B10728E7D1002108460A22FFF72EFF3E
:104420000028DFD00728DED1DCE70B232370D6E796
:104430001C2C0020202C002032DF70473EDF70470C
:1044400076DF704778DF70477ADF70477CDF704730
:10445000A8DF7047ADDF704767DF70470B78052B2B
:1044600006D0062B03D1044B00221A707047704708
:10447000014B01221A707047642F0020FBF7FCBD2E
:1044800008B50C490C48FEF7CDFAC1B20B4806F04E
:1044900095FD30F008020BD043F20402904207D0A1
:1044A00043F20142904203D0BDE80840FBF7E4BD6F
:1044B00008BD00BFB42D0020C42D00209C2D00207D
:1044C00010B50446FDF756FF2046BDE8104001F048
:1044D000E5BC00BF70B5044684B001F09DFE2046E7
:1044E00005F0BCF82046FFF717FF23883B2B2CD0A4
:1044F0001BD9552B72D0562B27D0512B05D1A37920
:104500001BB1A27B043A022A4AD9204601F066FC7C
:10451000204601F025FE2146374807F099F821464C
:10452000364806F041FC04B070BD102B48D0112B6A
:1045300012D0022BE9D1324B00211888FFF78CFFF3
:104540000028E2D0FBF798FDDFE71321A088FFF7F2
:1045500077FF0028D9D0F5E703202A49FBF768FA4E
:104560000020FFF701FD00283FD1274D244A2B787A
:104570004FF6FF711180002BC7D0244E24483168BC
:1045800005F0F6F8002833D13168214805F012F91A
:10459000062802D008B1FBF76FFD00232B70B4E7AB
:1045A000022B18BF01234FF4C1726946A0888DF811
:1045B0000030ADF80420FFF74BFF0028A5D0C1E77D
:1045C00003201449FBF734FA0720FFF7CDFC08B1AC
:1045D000FBF752FD0A4BA2881A8096E71721A088A4
:1045E000FFF738FF002890D0ACE7FBF745FDBCE7AC
:1045F000FBF742FDC8E700BFEC2D00209C2D0020FA
:10460000982100203CD20200652F0020682F002056
:104610006C2F002024D2020010B5B0B008281AD8A0
:10462000DFE800F0052F1939434D57641B000020C7
:10463000FFF79AFC08B1FBF71FFD0020FFF794FC81
:1046400000286ED1FFF756FE002867D1FFF7F4FE71
:1046500008B1FBF711FD30B010BD364B18884FF68E
:10466000FF739842F7D010A905F0B8F80528F2D0EA
:1046700000285CD10DF1510001F040FC0028EAD087
:10468000E7E703202C49FBF7D3F90520FFF76CFC83
:104690000028E0D0DDE703202849FBF7C9F9022014
:1046A000FFF762FC0028D6D0D3E703202449FBF7AC
:1046B000BFF90420FFF758FC0028CCD0C9E703203D
:1046C0002049FBF7B5F90320FFF74EFC0028C2D0C4
:1046D000BFE703201C49FBF7ABF90320FFF744FCBD
:1046E00010BB01F037FC0028B5D0B2E730AB08248E
:1046F00043F8BC4D10AA0DEB04006946009405F088
:1047000041F840B910AA02A89DE80A0001F00AFC8D
:104710000028A0D09DE7FBF7AFFCF3E7FBF7ACFC6C
:1047200094E7FBF7A9FC8DE7FBF7A6FCD9E7FBF7BD
:10473000A3FC9FE7662F0020B4D20200D4D202006F
:10474000F0D202000CD3020034D30200F8B54FF6C9
:10475000FF7110221E4D1F48FAF7FAFE08244FF68B
:10476000FF702C6005F030F84FF6FF770021B8425B
:1047700029600FD00346174E01E0013C0AD04A1CC5
:1047800026F8113018462A6005F01EF8B842034694
:104790002968F2D10F4804F0EBFF90B929680D4861
:1047A00005F008F8062800D070B90B4B0022032052
:1047B0001A7001F0F3FA00B9F8BDBDE8F840FBF754
:1047C0005BBCFBF759FCE9E7FBF756FCEDE700BFE4
:1047D000682F00206C2F0020652F002070B5037813
:1047E00084B004460E2B31D8DFE803F0493008309E
:1047F0004E39323042303246323056004088284EF0
:1048000001F098FD227A638826490092024603202F
:10481000FBF72AFA257AA3883380012D16D1224C82
:1048200022490320FBF704F92268214908230132B9
:104830000320FBF7B3F92368072B07D81D491E4A4D
:10484000308821F8130001332360157004B070BD67
:1048500080680028FAD0FBF70FFC04B070BDFDF7AC
:104860005FFB0E280346F1D033F00803EED0F2E7E9
:1048700000690028EAD0EEE7FFF768FFE6E70F4996
:104880000320FBF7D5F8E1E704A9002301F8043D74
:10489000408804F063FFD9E704F062FFD6E700BF69
:1048A000662F002090D30200682F0020D8D302008A
:1048B00018D402006C2F0020652F00205CD302006A
:1048C000FBF7DABBFBF7D8BB70B5043884B00D2812
:1048D0002CD8DFE800F02D2B2B362B2B422B2B2B4B
:1048E000506478075E4B1A884FF6FF739A421DD0CA
:1048F0005C4B1C78002C78D1502503AB032201219E
:1049000059488DF80C408DF80E408DF80D5007F089
:1049100087FD30F0080309D043F20403984205D024
:1049200043F20143984201D0FBF7A6FB04B070BDEF
:104930004B4B13211888FFF783FD30F00803F5D0A7
:10494000F2E7474B1A884FF6FF739A42EED101F017
:1049500001FB30F00803E9D0E6E70020FFF704FB95
:1049600000287AD1FFF7C6FC002873D1FFF764FD59
:104970000028DBD0D8E73A4B1A884FF6FF739A42EB
:10498000D4D0384B1C78002C55D0002301930093D1
:1049900019466FF00402344807F07CFDB9E7304B4C
:1049A0001A884FF6FF739A42C0D02E4B1C78002C09
:1049B00032D000220192009211466FF004032A487F
:1049C00007F068FDA5E7264B1A884FF6FF739A4259
:1049D000ACD0244B1C788CB1002301930093194672
:1049E0000522214807F056FD93E70022019200922C
:1049F000114605231C4807F04DFD8AE7052503AB4A
:104A00000322012118488DF80D408DF80E408DF8D5
:104A10000C5007F005FD7CE7B026FF2503AB032211
:104A2000012111488DF80C408DF80D608DF80E5065
:104A300007F0F6FC6DE7FB260F2503AB03220121EF
:104A400009488DF80E408DF80C608DF80D5007F078
:104A5000E7FC5EE7FBF710FB88E7FBF70DFB81E760
:104A600098210020642F0020EC2D00202DE9F04338
:104A700000209DB0FAF7C0FF08B1FBF7FDFAAE4B7E
:104A8000AE4A05210020FBF765FF08B1FBF7F4FAF9
:104A9000AB4AAC480121FCF745F808B1FBF7ECFA4A
:104AA000A94A40F6CD410320FFF78EFB08B1FBF782
:104AB000E3FA0AA90020FFF787FC08B1FBF7DCFA4C
:104AC000A24AA34B1068A3499DF828401CAE50226F
:104AD00046F8680D304607F09FFD08B1FBF7CCFAA9
:104AE0000AAA0121002007F00DFE08B1FBF7C4FA65
:104AF00017230AA8ADF8383007F01CFE08B1FBF701
:104B0000BBFA954807F0D2FD08B1FBF7B5FA934818
:104B100007F0D6FD08B1FBF7AFFA914A0A21082049
:104B2000FBF7D8FA08B1FBF7A7FA04F0A9FD08B122
:104B3000FBF7A2FA022C00F05C82052200210AA8F1
:104B4000FAF706FD9DF828309DF82B109DF82C20D3
:104B500043F00103032003F0F10360F30613014364
:104B600002436FF3C713072710250AA88DF82830D2
:104B70008DF82B108DF82C208DF829708DF82A5087
:104B800004F0E2FD08B1FBF777FA764804F0C0FDC7
:104B900008B1FBF771FA022C03D173490320FAF72D
:104BA00047FF9DF808307148012262F3030362F366
:104BB00007138DF8083007F077FE6C4982B2304653
:104BC000FFF744FC08B1FBF757FA40F2C230FFF799
:104BD00039FC08B1FBF750FA082200210AA8FAF7BD
:104BE000B7FC634A634B0A920AA80B93FFF72CFCAD
:104BF00008B1FBF741FA3C2200210AA8FAF7A8FC09
:104C0000022201245C4B8DF828200525202200215A
:104C100030468DF82A40ADF838408DF82B500F9370
:104C20001E25FAF795FC0020544B8DF808408DF8AE
:104C300009408DF80B408DF80C402824CDE906453D
:104C4000009301464FF000084FF000098DF80A006C
:104C50004FF44864B4254A4B32460AA8CDE904898A
:104C6000CDE9084500F0DEFF08B1FBF705FA41F693
:104C700015104EF6EE634022022401250021ADF806
:104C80000A000AA8ADF80C308DF80840ADF80E50B7
:104C9000FAF75EFC0AA83B4901F0D4FB9DF86430AA
:104CA0009DF86520189665F3030302F0F00264F3A3
:104CB00007136FF307120AA88DF864308DF865208A
:104CC00006F020FA08B1FBF7D7F9142200210AA850
:104CD000FAF73EFC9DF835109DF836209DF83830E7
:104CE0009DF837400120022560F3030160F30302C1
:104CF00060F3030365F3071165F3071265F3071308
:104D000004F0F004002565F307148DF82C006427E7
:104D10008DF835101C488DF836200AA98DF83830EA
:104D20008DF837400A950C958DF8347006F06CF8C4
:104D300060B3FBF7A1F929E08D0C0200D42C002010
:104D40008144020054D20200C948020020D202006D
:104D5000BDC702004C2D0020D5440200C144020012
:104D6000242C0020DD47020058D2020074D2020039
:104D700006000C0014002C0194210020C148020000
:104D80001946020084D202009C2D00201822002126
:104D90003046FAF7DDFB9DF80C309DF80D809DF84C
:104DA00016209DF81C109DF81D009DF80EC09DF862
