:020000040001F9
:10F00000184B002015F401001DF401001FF401004D
:10F0100021F4010023F4010025F4010000000000A8
:10F0200000000000000000000000000027F40100C4
:10F0300029F40100000000002BF401002DF4010070
:10F0400001F701002FF4010041FA01002FF4010043
:10F050002FF401002FF40100FDF401002FF4010052
:10F060002FF401002FF401002FF401002FF4010010
:10F070002FF401002FF401002FF401002FF4010000
:10F080002FF4010059F701002FF401002FF40100C3
:10F090007DF701002FF4010081F701002FF401003A
:10F0A0002FF401002FF401002FF401002FF40100D0
:10F0B0002FF401002FF40100000000000000000008
:10F0C0002FF401002FF401002FF401002FF40100B0
:10F0D0002FF401002FF401002FF4010000000000C4
:10F0E0000000000000000000000000000000000020
:10F0F0000000000000000000000000000000000010
:10F1000000000000000000000000000000000000FF
:10F1100000000000000000000000000000000000EF
:10F40000DFF80CD000F04AF8004800474529020018
:10F41000184B00200648804706480047FEE7FEE7F5
:10F42000FEE7FEE7FEE7FEE7FEE7FEE7FEE7FEE7B4
:10F43000A5F7010001F4010040EA01039B0703D096
:10F4400009E008C9121F08C0042AFAD203E011F823
:10F45000013B00F8013B521EF9D27047D2B201E0E5
:10F4600000F8012B491EFBD270470022F6E710B5C9
:10F4700013460A4604461946FFF7F0FF204610BD22
:10F4800030B504460020034600E05B1C934203D2E3
:10F49000E05CCD5C401BF8D030BD0000064C074D51
:10F4A00006E0E06840F0010394E807009847103454
:10F4B000AC42F6D3FFF7A8FFB85D0200D85D0200AA
:10F4C00030B58C1810F8012B12F00F0301D110F891
:10F4D000013B120906D110F8012B03E010F8015B83
:10F4E00001F8015B5B1EF9D101E001F8013B521EFE
:10F4F000FBD1A142E6D3002030BD00002DE9F0474A
:10F5000000268CB0DFF86091B0464FF4807501247E
:10F5100037460696284603F0A3FD38B1D9F8040310
:10F52000204203D0284603F091FD26432D1D6400A0
:10F530007F1CADB2082FEDD34FF4BE74204603F00C
:10F540008FFD48B1204603F081FD46F0004606AA33
:10F550000121002003F066FD444D16F0FF0F15D089
:10F560000127002437420DD009EB8401D1F81005A2
:10F57000D1F81015C0F3042055F82420C1F301413F
:10F5800002B190477F00641C082CEBD3002E67DA91
:10F590004FF0FF30CDE9088000263446281910F8D6
:10F5A000507F90F9000027F0C008401C44D009A902
:10F5B000404603F039FB58B34FEA9719404601F033
:10F5C000B5FB55F820701FB1B9F1030F03D00FE060
:10F5D000B9F1030F30D108A84FEAD80208F00703A9
:10F5E000815C4FF0010C0CFA03FC41EA0C018154E0
:10F5F0004FF0A04101EB8800D0F8000706A9C0F346
:10F60000014A404603F010FB18B1BAF1020F03D0D3
:10F6100012E0BAF1030F0FD1B9F1030F08D1BAF11B
:10F62000020F1BD00221404603F0DFFC761CF6B22D
:10F6300017B149464046B847641C042CAED3002E8F
:10F640000ED06A460121002003F0ECFC06990098D8
:10F65000884205D00690089809909DE70321E2E7CB
:10F660000CB0BDE8F087000000600040EC280020EE
:10F6700000F01F02012191404009800000F1E020CC
:10F68000C0F88012704700F01F020121914040092C
:10F69000800000F1E020C0F88011704700F01F02E8
:10F6A000012191404009800000F1E020C0F80011E4
:10F6B000704700F01F02012191404009800000F1D5
:10F6C000E020C0F80011704700F01F0201219140B6
:10F6D0004009800000F1E020C0F80012704749079F
:10F6E000090E002806DA00F00F0000F1E02080F893
:10F6F000141D704700F1E02080F8001470470000EE
:10F700002DE9F0414FF48077384603F095FA012453
:10F71000104EA50748B1384603F095FA0120C5F808
:10F7200008037470002001F041FB4FF482773846E3
:10F7300003F082FA00280BD0384603F084FA022046
:10F74000C5F80803B470BDE8F041012001F02EBBFC
:10F75000BDE8F081D828002007480021C0F84011FA
:10F76000C0F84411C0F84811C0F84C11C0F800119D
:10F77000C0F8041105F0F0BE0010014005F064BEB1
:10F78000074810B5406830B18047002807D0BDE871
:10F79000104000F029BBBDE8104002F0ABBD10BD29
:10F7A0002C220020F0B598480023021D0178012585
:10F7B000101D4FF08056062907D11478240704D174
:10F7C0000478C4F30314032C02D0062904D00FE0FC
:10F7D0008F4F8E4C7C670EE01478240708D1047894
:10F7E000C4F30314032C06D0042C04D0052C02D03F
:10F7F000062907D00EE0D6F84442864FC4F34234BF
:10F800003C6002E01478240704D10478C4F30314A4
:10F81000032C02D0062906D011E07F4C276827F080
:10F82000807727600EE01478240708D10478C4F3A9
:10F830000314032C06D0042C04D0052C02D0062976
:10F840000AD011E04FF08044C4F80C31C4F81031F4
:10F85000704C241F236002E01478240704D104783C
:10F86000C4F30314032C02D0062905D00CE0694F21
:10F87000032464373C600AE01478240704D1047838
:10F88000C4F30314032C02D006290DD014E0634FF7
:10F8900005243C60614C78342560604C083423605A
:10F8A0003F243F1D3C6002E01478240704D1047813
:10F8B000C4F30314052C02D0062957D068E0584938
:10F8C0000968584A11605649091D0968121D1160DE
:10F8D000534908310968121D116051490C310968FA
:10F8E000121D11604E4910310968121D11604C49FA
:10F8F00014310968121D1160494918310968494AD3
:10F900002032116046491C310968121D11604449BA
:10F9100020310968121D1160414924310968121D06
:10F9200011603F4928310968121D11603C492C3192
:10F930000968121D11603A4930310968394A40326C
:10F940001160374934310968121D1160344938316A
:10F950000968121D116032493C310968121D11609D
:10F960002F4940310968121D116002E01178090722
:10F970000ED10078C0F30310032803D0042801D06F
:10F98000052805D1D6F85802274900F04F00086035
:10F9900021487438016841F470010160BFF34F8F52
:10F9A000BFF36F8F4FF01021D1F80002002803DB66
:10F9B000D1F80402002822DA1C4A15601C480468A9
:10F9C000002CFCD01524C1F800420568002DFCD0A5
:10F9D000C1F8044201680029FCD0136001680029C5
:10F9E000FCD0BFF34F8F0C48F0380168114A01F486
:10F9F000E06111430160BFF34F8F00BFFDE70F4986
:10FA00000D480860F0BD0000E00F00F00DF0ADBA49
:10FA100000C007403C050040FCED00E010560040EF
:10FA20000404001020C50040E40E004004E501403D
:10FA300000E401400400FA050090D00340220020B9
:10FA40000448017F04480029024901D005F073BE33
:10FA500005F0E2BD442900200020004002E008C873
:10FA6000121F08C1002AFAD170477047002001E038
:10FA700001C1121F002AFBD170470000012120287C
:10FA800003DA81400548014003E0402802DA2038CB
:10FA9000814009B10120704700207047FC06FFBC7F
:10FAA00010B560B159B102780B785208B2EB530F20
:10FAB00005D10622401C491CFFF7E2FC08B10020DA
:10FAC00010BD012010BD2DE9FC4700251788064612
:10FAD000158090F82D001446894630B13A462146EB
:10FAE000484600F0DDFD050009D1B0784FF00C0A62
:10FAF00018B32088C846001DB84202D95046BDE858
:10FB0000FC87684679DF0028F9D12088032108F8AE
:10FB1000001020881921401C80B2208008F80010B5
:10FB20002088401C80B2208000EB0801BDF8000056
:10FB300005F079FE218808442080F0780222C8B1BF
:10FB4000218896F9033001F1030C4846BC45D5D80D
:10FB5000425421884FF0010C491C89B2218000F8E1
:10FB600001C02188491C89B2218009F80130208810
:10FB7000401C20807068B8B1218890F9003001F1F4
:10FB8000030C4846BC45B9D8425421880A22491C76
:10FB900089B2218042542188491C89B2218009F808
:10FBA00001302088401C2080308950B1CDE90047C9
:10FBB0004B460622022106F1080005F08DFE0500E5
:10FBC0009DD1308A50B1CDE900474B460722032131
:10FBD00006F1100005F080FE050090D1308B50B189
:10FBE000CDE900474B461522142106F1180005F017
:10FBF00073FE050083D1306A30B13B462246494648
:10FC000001F03EF90500DBD1706A30B13B46224677
:10FC1000494602F045FF0500D2D196F82C0038B1D4
:10FC20003B4622464946304605F0BCF80500C7D1A0
:10FC3000307838B13B4622464946304602F062FFF2
:10FC40000500BDD128465AE7134A0021535C0BB189
:10FC5000012203E0491C0629F8D300220F4901289C
:10FC600006D0022809D003280CD0042812D10DE0B8
:10FC7000487810B10AB101207047887810B10AB1F4
:10FC800002207047C87808B103207047087908B18E
:10FC90000420704700207047652100208823002041
:10FCA00010B501220221002000F0CEFE08B1072885
:10FCB00010D107220221012000F0C6FE08B107285A
:10FCC00008D100210A22084600F0BEFE08B107282C
:10FCD00000D1002010BD70B58CB015460E46002333
:10FCE0006C46C3F10F01415CE1545B1C102BF8D34F
:10FCF0000D2104F11000FFF7B8FB0020C0F10F0246
:10FD0000315C2244401C11740328F7D3684643DF5A
:10FD10000020C0F10F01214491F820102954401C0B
:10FD20000328F6D30CB070BD022000F04FBD0000D8
:10FD300070B50024064D06E06868012110F8340013
:10FD400003F02EF8641C28788442F5D3002070BD9F
:10FD5000DC210020F8B515460C460646052A01D2DE
:10FD60000720F8BD03F002F918B903F0D1F8002814
:10FD7000F7D1104900204E600C70C1E902500E4DC1
:10FD800008610DE006EBC4006968009181788DF888
:10FD900001100078094A694603F054F80028E0D1C0
:10FDA000641EE4B2EED2BDE8F840054A00210248E4
:10FDB00000F026B8DC2100209C5D0200F11C02004E
:10FDC00005100200BFF34F8F05480168054A01F492
:10FDD000E06111430160BFF34F8F00BFFDE70000FA
:10FDE0000CED00E00400FA050EB500210091CDE90C
:10FDF00001106A4644F20100FFF7E4FF0EBD000067
:10FE0000074B5B6823B12AB120B10068037C1BB1AA
:10FE100008207047072070474174426100207047F6
:10FE2000002200202DE9F047894607460121880776
:10FE300098461446C0F80810D0F804110029FBD0E9
:10FE4000A0074FF0000526D12CB304F029FD134E76
:10FE500006F11000C6F80C800570457080F802901D
:10FE600044607560357075701420FFF701FC072140
:10FE70001420FFF734FC1420FFF710FC084807603B
:10FE800007211120FFF72BFC0548001F0068B06018
:10FE90000020BDE8F0870720FBE70000F0210020EC
:10FEA000081501402DE9FC47DFF87890D9F80430B7
:10FEB00073B368B3052902D20720BDE8FC87436904
:10FEC00033B3437C012B25D0002704460025884608
:10FED00016468DF80050684600F038F801A805F085
:10FEE000E3FCC8B1012101700F4944600968C0E911
:10FEF0000218C0E904769DF8040089F801009DF815
:10FF0000000000F047F81420FFF7DEFB2846D4E796
:10FF10000820D2E70F46D8E704259DF8000000F03E
:10FF200039F8F3E70022002004150140064949682A
:10FF300039B130B1416921B100210174022105F0CC
:10FF4000E7BA0820704700000022002030B5EFF328
:10FF5000108172B60D4A9468012324B10370002900
:10FF600000D162B630BD93604FF0E023D3F88051EA
:10FF7000074C25401560C3F88041D3F88441546094
:10FF80005A17C3F8842100220270E8E78429002070
:10FF9000FC06FFBC0B498A68002A11D000280FD14B
:10FFA000EFF3108072B60B684FF0E022C2F8003118
:10FFB0004B68C2F8043100228A60002800D162B682
:10FFC00070470000842900202DE9F043044687B0E3
:10FFD000008800F001FB8146208802F0FDF8214FE7
:10FFE0008046667A208800223978A56800F042FBB6
:10FFF000B9F1000F33D06079400711D50721404691
:020000040002F8
:1000000003F0FCFBA0B108218DF80C1021880590AD
:10001000ADF80E10ADF8108003A801F0E5F807E088
:100020002088B97800F012FB10B1404602F0C0F809
:1000300003208DF800002088ADF802006079C0F33D
:1000400080008DF80400A079C0F380008DF80500D1
:100050008DF806508DF80760684601F0C5F807B0C6
:10006000BDE8F083C0210020F0B50C4693B01F21FD
:100070000726ADF80010ADF80410002750B1C17884
:1000800049070DD56A4602A9FFF71DFD002808D1D2
:1000900002AD02E00025ADF800706CB1E07810B15F
:1000A000304613B0F0BD01AA0AA92046FFF70BFDA8
:1000B0000028F6D10AAA02E00022ADF80470BDF8CB
:1000C0000400C3B2BDF80000C1B2284672DFE8E701
:1000D0002DE9F0471F46DDF82080134689460400CD
:1000E00042D0EBB3404D012000262870EE70202254
:1000F00019463E48FFF7A0F9C5E904784FF6FF70AE
:100100002881AE613948AE83AE773C212030FFF7BD
:10011000ACF93648217820300170A1788170E178FF
:10012000C170617841703149D4E90423C1E90C23DD
:10013000D4E90223C1E90A23D4E90623C1E90E2345
:10014000616AE1B100F13C0100F1480241628A605C
:10015000636A1B880B80616A436A8988998000E022
:1001600002E00021436A07E00E20BDE8F087656ADF
:10017000AD686D5C5554491C9D888D42F7D8A16AC5
:10018000D9B11A4A9432A2F10C018A608162A36A41
:100190009B888B80A16A836A098819800021836A01
:1001A00004E0A56AAD686D5C5554491C9D888D427C
:1001B000F7D894F82C1080F82C10216A49B10A491C
:1001C0000A310162226A52884A80216A026A0988D9
:1001D0001180616801B141604946BDE8F0470348BC
:1001E0002030FFF741BF00004C2100208823002071
:1001F00010B50188144C102918D011291CD01B29C6
:1002000019D1007A002816D1E0780521401CB0FBF6
:10021000F1F201FB120000BF00F050F800280AD0F4
:100220006169002907D0BDE810400847C17B01295A
:1002300001D18088208110BD0021617180882189D1
:100240008842F8D10120E7E74C21002010B50228B0
:1002500001D0032810D1094C607800280CD0002070
:100260006070E07800F02AF8002805D06169002964
:1002700002D0BDE81040084710BD00004C2100200E
:1002800010B574DF0B4C01200B4960710020E07148
:100290000620C87000210848FFF7E6FE002807D1B5
:1002A000E07800F00BF810B1616901B188470020D7
:1002B00010BD00004C210020A82300202DE9F041B2
:1002C0003D4C804686B0207848B184F8038004A86D
:1002D00001F054FA0498012628B1667067E00820FE
:1002E00006B0BDE8F0810025A561344FA583A57750
:1002F000787810B1E078012806D0B87858B1E07865
:10030000012801D0022806D1216919B126710820DF
:10031000884700E025714046FFF796FCE0702169B0
:1003200039B1032801D0042803D1387808B16079A5
:1003300090B1A57100950295019503958DF8005037
:100340008DF808501C48E1781830052925D2DFE8DF
:1003500001F03008111D2100E571A67107208847C2
:10036000E8E7A67001908DF80060ADF80C50ADF88C
:100370000A5014E00221A17001908DF80060B88944
:10038000ADF80C003889ADF80A0008E0684604F0C2
:100390004DFD02E0684604F06DFDE07818B1684656
:1003A00073DF00289CD1216909B1A078884700201B
:1003B00096E7A570F7E700004C2100208823002075
:1003C00070B5054601461C220F48FFF735F80F4C63
:1003D00000262670286830B1016861604068A0601E
:1003E000201D7ADF02E00948001D7BDF00280AD1CA
:1003F0004FF6FF7060806670BDE87040044A0021CF
:100400000448FFF7FDBC70BD5C2400206C21002077
:1004100031580200145D020070B51E4C068800239E
:100420001B49E289102E15D01B4D112E1CD0122E07
:1004300029D0502E17D130F8061F914213D141898F
:10044000022910D10C3000F070F988B1BDE870407D
:1004500000F05CBD84884C800469CC604069086110
:100460004B70002AF2D070BD4FF6FF7048804B7081
:100470002868FFF75BFD0028F5D0A1690029F2D0BC
:10048000BDE8704008478268CA60C0680861DDE75F
:100490006C2100205C240020145D020002490A7DCA
:1004A000091D04F0C7BA0000782400200246024863
:1004B000C17D001D04F0ABBA78240020024602483A
:1004C000017E001D04F0A3BA782400202DE9F04736
:1004D000044603883F4801228CB000F1150A102B16
:1004E00009D0112B55D01A2B71D1217AB2EB111FE3
:1004F00054D2012353E0027D417D05468A43011D0C
:1005000006A804F097FA142206A901A8FEF794FFA2
:10051000DFF8C0900026374609F114090DF10408F0
:100520000AE000BF08EB46001D2283884946281DCB
:10053000009704F031FA761C0198B042F2D8287D79
:10054000A688C043C0B204F049FAA0F57F41FF3944
:1005500017D005EB40000123868032465146281D06
:1005600004F08DFA012332464946281D04F087FA2B
:10057000E07B02280BD000231649A2881631281DE3
:1005800020E00CB00420BDE8F047FFF72DBC0123AC
:10059000F2E70023A2885146001D13E000230D4915
:1005A0000546A2881731001D04F069FA207A02215D
:1005B000B1EB101F01D2012300E000230549A288FE
:1005C0001831281D0CB0BDE8F04704F058BA0CB043
:1005D000BDE8F0877824002070B50A4E0546002457
:1005E000317D2A46301D04F012FA40B1B17D2A4611
:1005F000301D04F00CFA08B1022400E0012420466A
:1006000070BD00007824002010B50024204605F0BD
:100610003FF928B1641CE4B2182CF7D3182010BDA0
:1006200003480122A240016811430160204610BD29
:100630007824002010B5044605F02AF9002802D0DD
:1006400001482044407E10BD7824002070B5054646
:100650000C46084605F01CF9002808D004482A4634
:100660000119001D497EBDE8704004F0D0B970BD8D
:100670007824002070B5064615460C46084605F05D
:1006800007F9002809D005482B4601193246BDE874
:100690007040001D193104F0F2B970BD78240020BB
:1006A0007CB5054608880C460930904201D90C20DB
:1006B0007CBD68466DDF0028FAD121880820685487
:1006C00020881B21401C80B2208029542088401C97
:1006D00080B220802844DDF801100160BDF80510CB
:1006E00081802088801D80B220809DF800104908FC
:1006F00000D0012129542088401C208000207CBD8E
:1007000010B50446FFF7E2FE204603F023FD204625
:10071000FFF782FE204600F0E1F8204602F0D6FC0A
:100720002046BDE81040FFF763BD007800F00100EF
:100730007047000000B5164889B000230068079094
:100740005022144907A804F033FE08B1FFF74CFB10
:100750006A460121002004F015FE08B1FFF744FBB2
:100760001720ADF81000684604F002FE08B1FFF74C
:100770003BFB094804F0F2FD08B1FFF735FB0748E1
:1007800004F04EFE002801D0FFF72EFB09B000BD9B
:10079000DC5C0200CC22002001070200355402007C
:1007A0000149085C70470000E45C02000649095CEE
:1007B0004FF0A040D0F81005C84010F0010000D064
:1007C000012080F001007047E45C020007490B5CE7
:1007D0004FF0A041D1F804250120984020EA0203FF
:1007E000C1F808351040C1F80C057047E05C020004
:1007F0000249085C012102F009BC0000E05C020033
:100800000249085C002102F001BC0000E05C02002B
:100810000649095C4FF0A040D0F80405C84010F02C
:10082000010000D0012080F001007047E05C020070
:100830007CB50024084E25460122305D009500233A
:100840001146019502F09CFB641C042CF4D3BDE816
:100850007C4000F003B80000E05C020010B500240A
:100860002046FFF7C5FF641C042CF9D310BD10B55A
:1008700000242046FFF7C4FF641C042CF9D310BDEC
:1008800010B50246064B4FF0FF3000215C5C9442ED
:1008900001D1084610BD491C0429F7D310BD000042
:1008A000E45C020070B50C4E0C004FF000053060A7
:1008B0000BD0012000F0A4F808B1022004E00020D1
:1008C00000F09EF800B10B202070706810B9FFF79F
:1008D000E7F90546284670BD4421002010B51A4CA2
:1008E0000188606810290ED011292BD1401E60604C
:1008F00028D1FFF7D5F9002824D02168002921D07C
:10090000BDE810400847D0B900210122084600F098
:100910009BF808B107280FD107220221012000F01F
:1009200093F808B1072807D104220221002000F023
:100930008BF820B1072802D0216801B18847606890
:10094000401C606010BD00004421002010B5002054
:1009500000F0AEF908B1062806D1012000F0A8F990
:1009600008B1062800D1002010BD00002DE9F04795
:100970000D468146FFF784FF0446042838D2DFF88D
:1009800078801C481D4EA8F1100735B3012D0ED0FC
:10099000022D2DD104EB440030444578002D27D0A2
:1009A000F968002924D02846BDE8F047084704EB41
:1009B0004401755C0E44717859B179680E4A01EBB7
:1009C000810149000E3A8068FFF76CFA08B987F890
:1009D0000290B17808F80410E0E78068FFF7A6FA03
:1009E00004EB4401314418F804008D78A842D5D0B6
:1009F000BDE8F087E85C0200402100205C23002075
:100A0000FFF7D4BE01460F4810B50088042907D06F
:100A100007290ED00A2914D1BDE8104004F04CBAC1
:100A2000132176DF0BE000280BD0BDE81040FFF764
:100A3000DBB9A0F57F41FF3903D1FFF721FC08287E
:100A4000F1D110BD2821002070B50023042810D258
:100A50000D4D00EB4004012A02D101290CD00022E7
:100A6000094E00EB4000304461B1012906D0022953
:100A700006D00723184670BD0E30C2B22A55F9E7DA
:100A80004270F7E78270F5E75C230020044A0146D4
:100A90000020127AD20702D0084600F04FB8704703
:100AA000302100202DE9F04106461F4800240F4662
:100AB0004160C0E90262B0071FD50025012211463E
:100AC0002846FFF7C1FF6D1C0446042D02D2002CFE
:100AD000F4D012E08CB97A0804211448FFF73AF9EF
:100AE00004000AD1FFF724F9040006D10F48104A88
:100AF0000021001FFFF784F90446F00701D0FFF73B
:100B000097FE74B909480B4A00210C38FFF778F9B1
:100B1000040006D10548084A01210838FFF770F99A
:100B200004462046BDE8F08130210020F45C02003C
:100B3000C10C0200A923020029FD01002DE9F047A4
:100B4000594C05460026607818B100206070FFF708
:100B500085FE0120554F4FF47A694FF4C87A4FF063
:100B60006408182D2CD2DFE805F0890C0C2C3A47CC
:100B700051565A615A619B6969696969898C8F927A
:100B80009B9B0020FFF744FE00284FF0000008D098
:100B9000FFF72EFE022D02D14FF4E16006E0484639
:100BA00004E0FFF72DFE022D2ED05046B0FBF8F1E9
:100BB00025706068414300223868FFF773F90646E4
:100BC00059E00020FFF724FE28B10020FFF710FEB7
:100BD0004FF44870EAE70020FFF712FE14E000200F
:100BE000FFF716FE00284FF0000002D0FFF700FECE
:100BF000D5E7FFF705FED8E70020FFF709FE00283C
:100C0000E9D00020FFF7F4FDC820CFE70020FFF770
:100C1000DDFD257007E000203FE025702BE06070CF
:100C20000120FFF7D3FD00226168C5E76070012055
:100C3000FFF7CCFD606800EB8001BCE77868FFF748
:100C400075F90646D5F1110000D01EB10220FFF75C
:100C5000CFFD10E001280BD9C82110FB01F1B1FB39
:100C6000F8F16068002241437868FFF71BF90646F7
:100C70000220FFF7C5FD3046BDE8F087FFF7EEFD27
:100C8000CBE7FFF7EBFDC6E7FFF7E8FD04E0FFF772
:100C9000E5FD0020FFF7B4FD0120FFF7B1FDBCE743
:100CA000FFF7E5FDB9E7000030210020E85C020015
:100CB00010B5FFF775FD032102F086F9002010BD85
:100CC00000780221FFF752BE05494FF0FF32082895
:100CD00041F8202002D3084480F8482070470000E3
:100CE000EC280020F0B54FF0FF3512B100230826A4
:100CF00001E008230C260C4C05E000BF54F82370DB
:100D00007F1C04D05B1CB342F8D32846F0BD2618E4
:100D10005DB286F8305044F82310002AF5D1E1186E
:100D200081F84800F1E70000EC280020024908445F
:100D300090F9300070470000EC28002038B10549D8
:100D4000814204D80449814201D901207047002022
:100D5000704700004422002054220020044A016809
:100D6000914201D0083101E00149383901607047F2
:100D70006C2A002070B504464FF6FF750A462846D7
:100D8000AC4208D14FF480742146104603F09EF91E
:100D9000A04209D070BDFF2CFCD82146104603F0BC
:100DA00088F908B1204670BD284670BD70B5084C62
:100DB000050009D010342168002907D00868206098
:100DC000496828468847F6E70834F4E770BD000014
:100DD000D82800202DE9F05F26484168F1B3DFF8FC
:100DE00098B00E688146DBF8004087688078E11B88
:100DF00021F07F45ED1CB0B9DFF880804FF48030E2
:100E0000C8F84403C8F804031120FEF731FC112090
:100E1000FEF744FC4FF0010AC8F800A02F2001F0B3
:100E20001BFF89F802A0B54200D23546124BE819E3
:100E30003C3320F07F401860DBF800105A46091B55
:100E400021F07F41001B20F07F40C91C81420FD957
:100E5000106818602F2001F0FFFE00E004E0BDE8FC
:100E6000F05F1120FEF730BCBDE8F05F03F018BD65
:100E7000BDE8F09FF0210020041501400010014062
:100E80002DE9F04117880646B81D14460D469842D4
:100E900002D90C20BDE8F0813188072206290AD347
:100EA0004FF4486C4FF6FF73614501D9994202D166
:100EB0007088062801D21046ECE7604501D99842B7
:100EC000F9D1994203D0984201D08142F3D805204C
:100ED000E85520881221401C80B2208029542088A7
:100EE000401C80B220804119308804F09CFC21888D
:100EF000084480B220804119708804F094FC218855
:100F0000084420800020C5E7FEF76EBFF8B51348FF
:100F100001F02CFA114D0026114C0C3D30B16169E5
:100F2000B9B101208DF80000684611E0287820B1A1
:100F3000616971B18DF80060F6E7687858B1A16811
:100F4000084800220068FEF7ADFF10B1A16901B1A9
:100F500088472E70F8BD6168F2E700007821002014
:100F60005C240020145D02002DE9FF410C4618B1FD
:100F7000012004B0BDE8F08120790027DFF87C80F3
:100F8000012638B141F61D5501281ED0022829D06E
:100F90000F20EEE702970397E0680190694601A8E9
:100FA00003F0B8FB68B102988188E1800088208155
:100FB000029803F023FCBDF8002008EB02118E73A9
:100FC00000E00A2002212171D3E70D4B6A4600217F
:100FD000A01D03F05BFB38B1094908398F60CF6071
:100FE0000A28C6D12846C4E7019803F007FC044943
:100FF0008A8808EB02118E73F2E700007C2A002039
:10100000182200202DE9F04100260125144C22E091
:101010006068226900EBC607387805FA00F11142D2
:1010200017D08A43226101F069FF02463878E368ED
:1010300005FA00F1194002FA00F3994209D17978D2
:10104000012901D0012100E0002151407A6802B15C
:101050009047761CF6B220788642D9D3BDE8F0815D
:10106000DC2100200E4910B50A784C780023A242FA
:1010700012D0521CD2B20A70022A00D10B70084A58
:101080000B78183252F8232002608868104420F050
:101090007F408860012010BD0360002010BD00006B
:1010A000F02100203EB5094D38CD8DE83800ADF86F
:1010B000041007498DF80620ADF8020000220978D7
:1010C000FFF7D8FA684600F08FF83EBD885D020051
:1010D000C021002010B503780022072B06D2DFE8DC
:1010E00003F00504060C1C252B000A7010BD01221C
:1010F0000A7002898A81828814E002220A700289B9
:101100008A818288CA81C2688A60007C062802D0EF
:101110000020087410BD0120FBE703220A70C2887A
:101120008A810289CA81C068886010BD04230B705F
:10113000C0888881CA8110BD0520087010BD0000DC
:1011400070B5064D0646002455F8241009B1304606
:101150008847641C082CF7D370BD00009C29002030
:101160000EB5002911D011290FD000220092029251
:10117000ADF8020001910D2908D0862908D0092078
:101180008DF80000684600F03DF80EBD0B20F7E733
:101190000A20F5E701490968084700008821002076
:1011A00070B5054D06460024304655F82410884792
:1011B000641C022CF8D370BD305D02002DE9F041B3
:1011C00007460024064E074D05E000BF56F82410E0
:1011D00038468847641CE8788442F7DBBDE8F08134
:1011E0008C280020B021002070B5054D0646002453
:1011F000304655F824108847641C022CF8D370BD83
:10120000505D02000149096808470000945D020032
:101210007FB50446406858B100200390207800262E
:10122000384D06285DD2DFE800F05C0505264169EF
:101230000120F2E7A08900F0B3F918B9E08903F0C2
:10124000EFFA80B3A089A0F54040ADF80200A07B82
:101250008DF8040020780128606806D048B1042089
:101260008DF80000606803901AE00028F8D0032091
:10127000F6E70120F4E7A08900F092F918B9E089B7
:1012800003F0CEFA78B1A089A0F54040ADF8020095
:10129000A07B8DF80400606830B105208DF8000057
:1012A000A06802901AE01CE00220F7E7A08900F095
:1012B00077F9B0B1E089A0B9A089FF21A0F540403D
:1012C00080B2ADF802008DF80410616881B107208A
:1012D0008DF800006E70AE7002F04EFC684602F0B1
:1012E00023FB6878002802D06E7002F045FC7FBDB9
:1012F00006218DF8001002F0CDFCEBE708208DF8F8
:101300000000EBE79C21002000B5114987B0097867
:10131000890702D4022007B000BDA0F57F41FF3944
:1013200011D005218DF8001001218DF80410ADF8C1
:10133000060000221146684601F05EFF28B103F066
:1013400087F90020E7E70420E5E70820E3E700004D
:101350001022002000B50E4887B00078800702D424
:10136000022007B000BD06208DF8000000221146C3
:10137000684601F041FF40B10648017809B10121FA
:10138000017303F065F90020EBE70820E9E70000AE
:10139000102200209C2A002000B58DB01421684640
:1013A000FEF763F81E480078810703D56846FFF70B
:1013B000C7FE33E0C00731D1012000F015F900F07D
:1013C00085F901F0B5FF70B106280FD001218DF825
:1013D00014100C281BD2DFE800F01A101A101A188B
:1013E0001A181A1216120B200DB000BD022000F0C0
:1013F000FBF8012000F0DEF8D8E7002000E0032031
:101400008DF8180003E00220FAE78DF8181000228A
:10141000114605A801F0F0FE03F01AF90020E3E7F9
:101420001022002038B5040011D0694603F072F98B
:1014300088B10A48BDF8001000EB0110818941B164
:10144000A27A32B1491E81810020A07238BD0520E8
:1014500038BD062038BD0A2038BD00007C2A002097
:101460001FB501A9684603F011F904B010BD07B516
:1014700013460A466946002003F008F90EBD07B579
:1014800013460A460021684603F000F90EBD20B15C
:1014900019B10068086000207047052070470000FF
:1014A00038B50D46040015D0A5B1694603F032F9F0
:1014B00090B10A49BDF80020606801EB02129189E1
:1014C000491C9181286060680C3068600120A0721E
:1014D000002038BD052038BD0A2038BD7C2A0020F8
:1014E00018B10323002204F0BFBA0520704702237D
:1014F000002204F0B9BA12B1022304F0B5BA0520F3
:1015000070470000064A5178082906D0054B43F879
:101510002100491C5170002070470C2070470000CA
:10152000102200209C29002038B504460A480D46A8
:101530000078800701D4022038BD54B1694628469E
:1015400004F0A2FB0028F7D1BDF8001021806580CF
:1015500038BD052038BD00001022002010B504461B
:101560000D480078800701D4022010BD84B1218885
:1015700002290FD8094800EB011042896088121A2D
:10158000032A07D404F076FB00202080608010BD81
:10159000052010BD042010BD102200207C2A002050
:1015A00043F6FE71A0F54040884201D80120704703
:1015B0000020704702490A7882430A707047000091
:1015C0001022002010B504460078182802D1FFF739
:1015D0001BF8207010BD10B504460078182802D101
:1015E000FFF712F8207010BD02490A7802430A7012
:1015F000704700001022002070B5134600220646F6
:101600001546862905D0112901D019B170BD0125D3
:1016100000E001220D4C73B16179FFF72BF82A46E7
:1016200021793046FFF726F8002261783046FFF72F
:1016300021F8002203E06178FFF71CF82A462178A0
:101640003046BDE87040FFF715B80000C421002007
:10165000F8B506461A481F46154600780C46C007DE
:1016600008D03046FFF76AFB30B13CB1200507D007
:101670000620F8BD0120F8BD0220F8BD0320F8BD0A
:101680003068A04204D8716804EB0530884201D963
:101690000520F8BD7DB1684602F028FF68B10098CA
:1016A0000221C0E900670172210B8181058202F0ED
:1016B000DFFF0020F8BD0420F8BD0720F8BD0000C2
:1016C00028220020084602F02DBF00002DE9F04737
:1016D0002748284C4FF01021001B02094969104689
:1016E0004B1C03D14FF0805149690903DFF888A0F2
:1016F0009AF80070FB0702D00020BDE8F0870023B5
:10170000A14607E009EB0314256815B1646804B12C
:10171000401E5B1C9342F5D3002422E0002504F018
:10172000FF0C2B4613E000BF09EB0316D6F8008030
:10173000B8F1000F04D0D6F80480B8F1000F05D13D
:10174000767BAE4202D9354603F0FF0C5B1C934218
:10175000EAD309EB0C13641C59601D7BA1EB053126
:1017600019608442DAD347F001018AF80010C3E718
:1017700054220020442200202822002020B10349C6
:10178000496E01600020704703207047AC2A00209A
:101790002DE9F84307461D48DDF820801E460078F5
:1017A00015460C46C0070CD03846FFF7C7FA50B1B3
:1017B0005DB154B145EA0400800708D00620BDE8B9
:1017C000F8830120FBE70220F9E70320F7E73868F8
:1017D000A04204D8786804EB8601884201D2052033
:1017E000EDE77EB1684602F081FE68B10098012104
:1017F000C0E900780172C0E90354868202F038FF24
:101800000020DCE70420DAE70720D8E728220020C0
:1018100070B5174A17490446106E0B7800EB40006C
:1018200002EBC0009D0715D5022C02D0032C1BD162
:1018300002E001F0B7FC17E04A78521CD2B24A70BD
:10184000032A11D900224A70082103F0EDF902F0B1
:1018500037FE09E0580707D523F004000870526EE0
:1018600012B140F002000870BDE8704002F0B8BE4E
:10187000AC2A00202822002070B508B1012070BDDC
:10188000184C0025207B08B1257301E000F0A2F878
:101890002078082824D2DFE800F02304080C102365
:1018A000141EBDE8704000F01FB8BDE8704000F0A5
:1018B0007FB8BDE8704000F061B8BDE8704000F04E
:1018C00037B808496088203901EB00104068BDE84E
:1018D000704001F00DBD6560BDE8704001F016BDBF
:1018E0000F2070BD9C2A00201049F0B48A1C0020F3
:1018F0000346A1F120050C18A67A3EB1A37205EBB0
:101900000014A68916B9A47B012C0AD0401C80B211
:101910000228F0D30B704B804B60F0BC41F61D5099
:1019200070471080F0BC00F043B800009C2A0020F3
:1019300010B50F4CA4F12001608801EB00108189E3
:1019400061B1052020700B480221002381800168CD
:10195000BDE8104001220848FFF77ABE4168002325
:1019600001220548FFF774FE0421217010BD00001C
:101970009C2A0020202200204422002038B50A4959
:10198000084803240B684268898803EB8101538867
:1019900004700020DB1C00909BB20448FFF7F8FEA7
:1019A00038BD00009C2A0020202200204422002074
:1019B000074910B54888091D02F0FAFE18B1BDE8C4
:1019C0001040FFF7DBBFBDE81040FFF7B1BF0000DC
:1019D0009C2A0020F0B51D481D49012506780224E7
:1019E0008B88A0F12002082E18D2DFE806F0041739
:1019F000171A212C2C160189491C018100214180D4
:101A000080F80C1002EB01131B7843B1002344183B
:101A1000491C89B2A3720229F4D30570F0BD0123D9
:101A2000F5E742685288D21C1A448A800470F0BDDF
:101A300046880D6802EB061256680E6055601381E9
:101A40008C80062100E007210170F0BD9C2A002057
:101A500020220020F0B504460088384D8DB0502873
:101A60001ED0522802D0542828D103E0A08800F0CC
:101A7000D9FE23E006208DF81400A08800F0ACFB0E
:101A8000ADF81600A188ADF8181000F05DF9A08837
:101A90000022E978FEF7EEFD05A8FFF77BFB0DE0DD
:101AA000207B01280AD1A07A012807D12089A0F53E
:101AB0002451023902D1A08800F0EEFEA878FEF78A
:101AC000B9FDC8B108A8FEF7E9FC142208A96846C8
:101AD000FDF7B2FC00246E460BE000BF06EB4407A6
:101AE000A978B888FEF7B2FD10B1B88800F09AFE68
:101AF000641C0098A042F1D86878FEF79BFDC8B13D
:101B000008A8FEF7CBFC142208A96846FDF794FC50
:101B100000246E460BE000BF06EB44076978B888E6
:101B2000FEF794FD10B1B88800F0B6FE641C009872
:101B3000A042F1D803F09EF80DB0F0BD8021002046
:101B40003EB504464088ADF802002078A8B10128CF
:101B50001FD0022810D1207900280DD0608800F015
:101B60007BFAA0F57F41FF3906D00F490122C978E1
:101B7000FEF780FD03F07EF83EBD00208DF80000EA
:101B80006846FFF707FB608800F066FA00F04AFE3F
:101B90003EBD01208DF80000A088ADF80400684625
:101BA000FFF7F8FA3EBD00008021002010B5044682
:101BB000007801280FD1608800F034FE608800F0C2
:101BC00089F9002807D0044960880122C978BDE856
:101BD0001040FEF74FBD10BD8021002010B5104C05
:101BE00000202070FEF710FD6070FEF70DFDA07064
:101BF000FEF70AFDE070FEF707FD207161781829F5
:101C00000BD0A178182908D0E178182905D0182818
:101C100003D001202070002010BD032010BD000063
:101C2000802100202DE9F04186B000F0A5F868463B
:101C3000FEF734FC00246D464FF6FF77DFF8348062
:101C40000FE000BF05EB4406B08800F0C5FAB842CB
:101C500005D1B088012298F80310FEF70BFD641C33
:101C6000A4B20098A042EDD803F004F806B0BDE895
:101C7000F0810000802100200178072902D14088EE
:101C800000F00ABE7047000010B504460A484178CB
:101C90002046FEF7DBFC68B10848002101EB410259
:101CA00000EB82025288A24201D1C8B210BD491C89
:101CB0000829F3D3FF2010BD98210020AC24002078
:101CC00070B5094D094E002404EB440005EB80007B
:101CD00071784088FEF7BAFC20B1641C082CF3D35D
:101CE000FF2070BDE0B270BDAC2400209821002020
:101CF0002DE9F041124E07460125BD403068FEF740
:101D000015F900280DD10F4C2069284207D138461B
:101D100001F0F4F80028E06805D0284304E0A84367
:101D20002061BDE8F081A843E0602069284320617C
:101D3000A1683068BDE8F0410022FEF7B3B80000AA
:101D40009C5D0200DC2100201CB5054AD2E902128C
:101D5000CDE900120022694601F0B3FC1CBD000071
:101D60001C5D020003484FF6FF7181800121017064
:101D7000002070478C21002010B54FF6FF7001F055
:101D8000DFFB03498880BDE8104002F09FBF0000E0
:101D90008C2100202DE9FC41804600F01DFA002432
:101DA00003250127A0F57F412646FF3908D06A4662
:101DB000082101F061FC18B90198841D8688056826
:101DC00032462B4621464046A9DF042804D0082885
:101DD00004D00B2808D002E0112000E00020002FE2
:101DE00000D10B20BDE8FC810027A80701D5012503
:101DF000E6E73443F5D0002426460325E0E72DE945
:101E0000FC41804600F0E8F90746A0F57F40FF3826
:101E10000ED001252A466D1C0026ADB26B46082166
:101E2000384601F053FC040006D0072C24D024E0EF
:101E300043F20200BDE8FC81019903230A1D0B60F7
:101E40004046891DAADF040004D00C2C08D0052CC4
:101E500008D008E00821384601F0D0FC04460CE028
:101E6000012600E000240821384601F0B3FC00B14F
:101E70000324002ECED100E00C242046DAE7000037
:101E80001FB504460078012815D12079012812D108
:101E9000608802AA012101F0EFFB60B902208DF8F1
:101EA00000006088ADF80200094901208DF80400A7
:101EB000096868468847064808388088A0F57F4149
:101EC000FF3903D0BDE81F4002F000BF1FBD000076
:101ED000942100201CB500F07FF96A46012101F031
:101EE000CBFB08B100201CBD019800781CBD000090
:101EF0002DE9F041084C07464FF6FF7643F2030503
:101F0000324661883846A7DFA84203D16088401C6A
:101F10006080F5E7BDE8F0818C2100208188A1F583
:101F20007F42FF3A03D0008808B1012070470020AB
:101F300070473EB5027802230C46B3EB520F17D11F
:101F4000B0F80110ADF80010C1788DF8021081884A
:101F5000ADF8041080798DF8060002AA01A9204688
:101F6000FDF7B9FE032202A96846FDF789FA08B118
:101F700000203EBD01203EBD10B50C46FFF784FE9B
:101F8000FF280CD0074900EB400001EB80004168BE
:101F900021600189A180807AA071002010BD0520F8
:101FA00010BD0000AC24002070B5018890B010294D
:101FB0004FD1011D34226846FDF73EFA9DF804001A
:101FC0004FF6FF76032134466D46B1EB500F2AD011
:101FD00001F012FD9DF8040040080ED001280CD03D
:101FE000022820D118E00F99281D1131FDF758FD66
:101FF00018B100BFBDF8344015E00EAA0DA90720A6
:1020000001F0D2FC0028EED10DE00F99281D491CEB
:10201000FFF78FFF0028EDD10EAA0DA9072001F0D0
:10202000C3FC0028F1D1BDF80000291D00F0B8FD67
:10203000B4420ED0BDF80000214600F07EF8BDF895
:102040000000ADF8360001208DF834000DA8FFF730
:10205000A7F810B070BD0000094A002101EB410350
:1020600032F82330834205D101EB410002EB8000BE
:1020700040887047491C0829F0D34FF6FF7070471D
:10208000AC24002010B50D4C18200D4A60700020C3
:102090004FF6FF7100EB400302EB8303401C5980B5
:1020A0000828F7D3FEF7B0FA6070182803D0012093
:1020B0002070002010BD032010BD000098210020DA
:1020C000AC24002070B504460D46401C00F05CF9BD
:1020D00000280ED01022691C601CFDF7D1F948B110
:1020E0005FF0000605F1110104F11100FDF7D8FCC5
:1020F000304370BD0126F5E7018811B94218927886
:102100000AB101207047491C0829F7D30020704705
:1021100010B50C460346FFF7EFFF00280AD01888D9
:102120002188884205D10822A11C981CFDF7A8F936
:1021300008B1002010BD012010BD01F0FFBD10B599
:102140000446007888B0002828D12079072825D1B6
:10215000608801AA072101F08FFA00281ED101F042
:102160004BFC1DE06088BDF80010884218D004992F
:102170000298FFF7A7FF98B16088FFF76DFFADF8F1
:10218000160000208DF814006088ADF81800BDF826
:102190000000ADF81A0005A8FFF702F808B010BD5E
:1021A00003AA6946072001F0FFFB0028DAD1F5E712
:1021B00070B50446FFF750FF0546204601F05FFA70
:1021C0004FF6FF7104468D4203D014B9284601F042
:1021D000B5FD204670BD000010B5FFF755FDFF2886
:1021E00005D0044900EB400031F8200010BD4FF647
:1021F000FF7010BDAC2400203EB5044601F0FCFB8E
:102200000EE0019920464631FFF782FF28B9019977
:1022100020462A31FFF77CFF10B1BDF808003EBD13
:102220006A4602A9072001F0BFFB0028E9D14FF65A
:10223000FF703EBD2DE9F0410F4628B10120FFF7A8
:10224000B9F90120BDE8F081397961B10026264D48
:1022500001290DD0254C4FF002080229206822D018
:1022600003293CD128E001F051F80121397134E013
:102270005FF0000005EB0011097802290CD0401C2A
:1022800080B20228F6D30220FFF7AEF90120FFF753
:1022900091F941F61D50D5E705EB0014606801F097
:1022A00027F8267019E00146002301221048FFF7A5
:1022B000CFF9A4F804800FE001F01AF80A49226867
:1022C0002031498805EB01114B6823604A60A288E0
:1022D0000A81A4F804800E703E710028B2D001205B
:1022E000FFF768F90E20ADE77C2A002020220020AD
:1022F00044220020F8B51C4C2078002832D0E06839
:10230000002658B10025607800282BD1684648DFA8
:10231000052805D030B1FDF767FD0AE00125F2E799
:10232000012606E0009800F019FD216909B1009826
:1023300088479DB96078002814D16088ADF8000006
:102340006946A06861DF052803D020B1FDF74CFD88
:1023500004E0012502E0D4E902018847002ED2D032
:10236000002DE6D0F8BD00002C2200200549408851
:102370000A88904204D34988884201D801207047D6
:1023800000207047702100200021425C0AB101202A
:102390007047491C1029F8D300207047800701D0EE
:1023A00000207047012070470348017AC90702D016
:1023B0000078FEF7C3BB7047302100202DE9F047BD
:1023C000234D81461F46287A0E469046084302D088
:1023D00026B1002104E00520BDE8F0871C4910313A
:1023E000484602F0BFFE0446014600224846FFF779
:1023F00003F91FB121464846FEF7B2FE112C0FD05B
:1024000005DC5CB1082C09D00D2C06D106E0862C29
:1024100012D0A4F54050023800D003242046DBE758
:102420003246E9784846FEF725F94246A9784846FB
:10243000FEF720F90024F1E73246E9784846FEF736
:1024400019F94246A9784846FEF714F9E6E7000074
:10245000C42100202DE9FC4117460C00064604D09B
:102460002078C00705D0012004E000217EDFBDE810
:10247000FC8102208DF804003046FFF7ADFE0546D2
:10248000A0F57F40FF3808D001A800902B463A46BF
:102490002146304600F021F806E020782146C007AA
:1024A000304603D000F07DF804460BE07EDF0400E8
:1024B0004FF00000009007D000220123294630464B
:1024C00002F078FB14B106E00122F6E79DF8041053
:1024D000304602F099FB2046C9E72DE9F04F85B060
:1024E00090468946834600259A462E4601AA072132
:1024F00018460E9F01F0C0F8040008D1029D95F81F
:102500004400183510F0010601D0029D343558EA18
:1025100004004FF000080FD175B126B905F1120083
:10252000FFF7EAFD40B12A4605F11201584685DF62
:10253000044687F8008021E00CB1052C1ED199F8E3
:102540000000C0070DD003AB01220721504601F067
:10255000BDF804000AD10721504601F0B1F904008A
:1025600004D1494658467EDF040007D00721504673
:1025700001F030F910B1052800D00324CDF8008017
:10258000387808B1012300E0002344B1002251460D
:10259000584602F00FFB05B02046BDE8F08F01223F
:1025A000F5E7FEB50F46064601F064F80546A0F5CE
:1025B0007F40FF381ED001AB01220721284601F0E1
:1025C00085F804000AD10721284601F079F90400B2
:1025D00004D1394630467EDF040007D00721284663
:1025E00001F0F8F810B1052800D003240120009074
:1025F0005CB102E003240020009000220123294660
:10260000304602F0D7FA2046FEBD0122F6E7000070
:102610002DE9F041134D0F46164680462978FEF706
:1026200015F800281BD04046FFF7D6FD0446A0F55C
:102630007F40FF3813D069784046FEF707F838B17D
:1026400033463A4621464046BDE8F04100F0ECBE34
:10265000324639464046BDE8F041FEF723BDBDE8AD
:10266000F0810000C02100202DE9F04385B08146B3
:10267000FDF7E0FF002820D06846FDF70FFF00249B
:102680006E4617E006EB44054946A888FDF7DEFFD5
:1026900078B10B4FA888B978FDF7D8FF8046A88895
:1026A000F978FDF7D3FF0146A88801234246FFF7DA
:1026B00085FE641C0098A042E4D805B0BDE8F08314
:1026C000C42100202DE9F043264CA4F11009227802
:1026D000D9F8048099F80350404694F801C0D9F81D
:1026E000086031E002EB42036168521C01EBC30158
:1026F000A378D2B2934200D100220B78022B02D0F1
:10270000032B21D11DE003464F68194603E0B9426F
:1027100003D00B46C969B9B1F9E7A9B18B4205D11C
:10272000C06918B9104E0125B56000260F68C96947
:10273000D96149B10B683B440B6005E00174C06985
:1027400000E000210028F9D19445CBD1C9E9010668
:1027500089F80350404502D00120BDE8F0830020F5
:10276000FBE7000000220020001001402DE9F041AD
:102770002A4F0446002607F11005D7F804803EE0F2
:1027800002D02046E4691DE02878696800EB400229
:10279000401CC0B201EBC2012870AA78904200D15F
:1027A0002E700A784868012A2BD1027C4ABB8A68BD
:1027B0004260CA6882600A69C26049698161F978C9
:1027C00001B146604368BA68DFF854C0991A21F035
:1027D0007F41614502D28268114406E0D11A8268C5
:1027E00021F07F418A4202D9511A016000E006605F
:1027F0004660012186600174C66102F06BFE002C08
:10280000BED1287869788842BED17968414502D026
:102810000120BDE8F0810020FBE70000F02100204E
:10282000FFFF7F00FEB504460026A0F57F40FF387D
:102830002FD02046FFF7AEFA050013D00B2D15D090
:10284000112D11D0A5F5405002381CD009208DF86B
:1028500000002046FFF7C0FCADF80200ADF80440D0
:1028600002950DE0022002E001260CE003208DF825
:1028700000002046FFF7B0FCADF80200ADF80440C0
:102880006846FEF787FC0348324681782046FDF70C
:10289000F1FEFEBD80210020FEB504460026FFF7B4
:1028A000AEFA0546112818D003DCA5B10C2D06D1CF
:1028B00015E0862D27D0A5F5405002381CD0092000
:1028C0008DF800002046FFF787FCADF80200ADF858
:1028D000044002950DE0012002E001260CE00720F3
:1028E0008DF80000ADF804402046FFF775FCADF808
:1028F00002006846FEF74EFC044832464178204606
:10290000FDF7B8FEFEBD0820EAE7000080210020A8
:10291000F8B5054600780C46002620420FD100206D
:102920008DF800006846FDF711FB2878204202D19F
:102930002043287001269DF80000FDF72BFB304650
:10294000F8BD0000002398B04B4A05211846FDF75A
:1029500069FA08B1FDF748FA484A40F6CD4103202C
:10296000FEF7A0F808B1FDF73FFA69460020FDF731
:1029700099FF08B1FDF738FA9DF80000022872D0DF
:102980005FF00004FDF7D6FE204601F0E5F99DF862
:1029900008003BA120F00F00401C20F0F000103098
:1029A0008DF808000F2202A87CDF08B1FDF71CFAA1
:1029B000002400945020ADF80000A0200194ADF850
:1029C0000200ADF804404FF4C870ADF80600684648
:1029D0007ADF08B1FDF708FA3C2101A8FCF745FDB4
:1029E00002208DF8040001258DF8065006208DF890
:1029F000070027480690ADF81450202110A8FCF7D6
:102A000034FD4FF4967014908DF84350B420159017
:102A1000204B10AA0021009401A8FDF759FB08B132
:102A2000FDF7E2F91C216846FCF71FFD4FF420304A
:102A3000CDE900404FF47020029003208DF80C0087
:102A40001548059015480690ADF80E408DF81040D9
:102A50006846FDF7B5FC08B1FDF7C6F90320FDF7A0
:102A60002DFC03E0FFE701248CE73EDF0028FCD0CB
:102A7000FDF7BAF9F9E7000054220020050A020028
:102A80004E6F726469635F54656D706C617465004C
:102A90002A210020A930020089310200090F02001A
:102AA00070B5144682880E4605462088111D0144E3
:102AB000921C994201D8FE2A01D90C2070BD521CEB
:102AC00032542088FF21401C80B22080315420885D
:102AD000401C80B220808119288802F0A4FE218841
:102AE000084480B22080AA8842B1A96841B130442C
:102AF000FCF7A2FC2088A98808442080002070BD33
:102B0000072070BDF8B50E46017814460546012928
:102B100001D1687830B12088821C9A422DD80129D1
:102B200002D006E00720F8BD69780144891C99426B
:102B300023D8181A801E87B2ADF800702188B01C07
:102B4000084469467DDF0028EDD12878022805D1A8
:102B5000BDF80010B94201D809210AE00821012876
:102B600005D16878B84202D8ADF8000001E0ADF8B0
:102B70000070BDF80000FE2801D90C20F8BD2288A5
:102B8000401CB0542088401C80B2208031542088E2
:102B9000401C2080BDF80010084420800020F8BDB3
:102BA00070B505460C004FF0FF0020D04FF6FF76C1
:102BB000B5421CD00E48012241782846FDF75AFD47
:102BC0002846FFF761F8FF2803D1FFF779F8FF28BF
:102BD0000DD0084B00EB400203EB82014D8023F83F
:102BE000226022684A60A2880A81A2798A7270BD36
:102BF00098210020AC24002070B54FF6FF750E46DA
:102C0000A84201D1002000E0401C84B208E0214627
:102C1000304601F076FA08B1204670BD641CA4B2BB
:102C2000FF2CF4D9284670BDC20800F0070301202C
:102C3000895C98400840704700F180400068002897
:102C400000D00120704708B500F1804000210160EC
:102C50000068009008BD000000283ED01F49204AAF
:102C6000096800BF00BF00BF00BF00BF00BF00BFBA
:102C700000BF91422FD000BF00BF00BF00BF00BF08
:102C800000BF00BF00BF00BF00BF00BF00BF00BF4C
:102C900000BF00BF00BF00BF00BF00BF00BF00BF3C
:102CA00000BF00BF00BF00BF00BF00BF00BF00BF2C
:102CB00000BF00BF00BF00BF00BF00BF00BF00BF1C
:102CC00000BF00BF00BF00BF00BF00BF00BF00BF0C
:102CD00000BF00BF00BF401EC3D17047402200208C
:102CE0000024F40070B50F4C0025207808B185252C
:102CF00016E00021A16061602161E1604FF0E020F9
:102D0000D0F80001012610F0010F03D107210020A7
:102D100000F029F802F07EFB08B90348066026702F
:102D2000284670BDD82800201805004038B500207E
:102D30008DF800006846FDF709F9074C207808B9BE
:102D4000FFF7D0FFE068401CE0600120A0709DF814
:102D50000000FDF71FF938BDD8280020002801D158
:102D6000FEF724B870474907090E002806DA00F07C
:102D70000F0202F1E02282F8141D03E000F1E022CC
:102D800082F8001400F01F020121914040098000E8
:102D900000F1E020C0F88012C0F800117047000078
:102DA0002DE9F0418846054601F014F8234E00282D
:102DB00028461AD0FDF7BAFF304490F84800800941
:102DC000032802D001280ED007E04FF0A040D0F831
:102DD0001005E84010F0010F05D003212846BDE89A
:102DE000F04100F002B90221F8E700F0FFFF0028EF
:102DF00022D02846FDF79AFF04464FF4807000EB7E
:102E000084000F4F81B207EB8400D0F8102542F008
:102E10000102C0F81025084600F018F9B8F1000FBB
:102E20000AD02846FDF782FF56F82000002803D07C
:102E30000120A040C7F80403BDE8F081EC28002081
:102E4000006000402DE9FC41DFF8A480044608EB57
:102E50000400002790F930001346C0170E46401CAE
:102E600001D0082741E0F27819462046FDF73AFFE5
:102E70000546401C38D0B07850B14FF0A04000EB70
:102E80008400D0F8001721F00201C0F8001707E015
:102E900000217378204600910A46019100F082F8E3
:102EA000F078C0B11348317800EB8500D0F81025D8
:102EB000114B1A40C0F810254FF4F8524FF440332C
:102EC00002EA042203EA01410A43D0F810150A433A
:102ED000C0F8102509E008EB0500327810F8481F0B
:102EE00041EA8211017000E004273846BDE8FC8108
:102EF000EC28002000600040FFE0FCFF4FF0A04104
:102F0000D1F81015C14011F0010000D00120704728
:102F100070B5144D95F8540008B1082070BD00201C
:102F2000411E2A18401CC0B282F830102028F8D365
:102F300000242046FDF7C8FE641CE4B20C2CF8D334
:102F400007210620FFF70FFF4FF4BE7000F07EF858
:102F500005494FF00040C1F80403012085F85400F2
:102F6000002070BDEC28002000600040034890F86D
:102F70005400002800D0012070470000EC280020F9
:102F800070B541EA4201DDE904564FF0A04441EA40
:102F9000830141EA052104EB800041EA0641C0F8C3
:102FA000001770BD70B541EA4201DDE904564FF0EB
:102FB000A04441EA830141EA052104EB800041EA93
:102FC0000641C0F8001770BD4FF0A04202EB800030
:102FD000D0F8002722F44032C0F80027D0F80027AC
:102FE00042EA0141C0F8001770474FF0A04202EBDF
:102FF0008000D0F8002722F44032C0F80027D0F833
:10300000002742EA0141C0F80017704701224FF043
:10301000A043824011B1C3F808257047C3F80C25BE
:103020007047000018B5084B6C4601441B680093BC
:1030300006E000BF54F82030D3F81035401C08C219
:103040008142F7D818BD0000985D0200034908B519
:103050000844002101600068009008BD0060004045
:1030600002494058012800D000207047006000400D
:103070004058002800D00120704708B50022425077
:103080004058009008BDD0F80403084000D001204B
:1030900070474058002800D00120704708B5002232
:1030A00042504058009008BD10B550B103280CD1D3
:1030B0000220FDF7EBFC002807D0BDE81040FCF72C
:1030C00093BEBDE8104001F0F7BE10BD10B5044638
:1030D000008888B03B281FD009DC022826D01028A1
:1030E0000FD0112816D10020FDF7D0FC17E0512891
:1030F00020D0552842D056280CD1A088132176DF45
:103100000DE00720FDF7C2FC08B1FCF76DFE1D497C
:10311000A088088008B010BDA088132176DF0028A1
:10312000F8D008B0BDE81040FCF75EBEA0880021D2
:1031300067DFF4E71022A11D04A8FCF77DF99DF8D4
:1031400010100029E6D09DF81800042803D00628A6
:1031500001D00528DED102290ED001208DF8000013
:103160004FF4C170ADF80400A0886946A8DF0028BC
:10317000D0D0FCF739FECDE70220EFE7A088172179
:10318000ADDFCCE7282100200078002807D10448D3
:103190003B21008876DF002801D0FCF725BE704770
:1031A00028210020134A10B500215170017A01290D
:1031B00012D002291DD18189491C8181C189491CF4
:1031C00089B2C181028A914213D1002101F02CFD04
:1031D000BDE8104001F074B9838AC28A4FF480615F
:1031E0009C1A8C4200DAA1B2114489B2C182994280
:1031F000EBD010BD28220020F8B51E4D17460E4614
:1032000001466A6F0020032A33D805F17804C6F11D
:10321000080C636C63452CD895F87000104400F0DE
:103220000300C0EBC00005EB80001C22FCF704F992
:10323000686F401C6867DEB194F8440094F8401051
:103240000023084400F0070004EBC00000900AE0EF
:1032500007EBC3020098D2E90012C0E900126846E9
:10326000FDF77CFD5B1CB342F2D3606C30446064BC
:103270000120F8BDBC2900200389CA1C1A44028120
:103280004289511AC91E4181704700002DE9F0475B
:1032900000F58055002700F10804022090460E46F4
:1032A0000880DFF8489012E02046FEF737FED0B1E4
:1032B000A068D9F80420904201D9C9F804006088B8
:1032C000318804EB80040844C01C30800C34AC42CC
:1032D00002D22068401CE7D1B8F1000F01D088F875
:1032E0000070BDE8F0870127E9E700001022002008
:1032F00008B50021009101460223024A0248FEF768
:1033000047FA08BDB05D02004422002008B5002045
:10331000009004480223044A01680448FEF738FA82
:1033200008BD000020220020A85D020044220020E9
:103330002DE9F05F0025374FDFF8DC80DFF8DC9007
:10334000DFF8DCB02C46AA462E46386800EB063083
:103350000268424505D1334A4168891830D00129B5
:103360000DD000214FF4806250F821305B1C33D027
:1033700009EB041103200870641CA4B219E0BAF12F
:10338000000F09D0022209EB0411641C0A70DBF85B
:1033900000304B600A81A4B200220BF10401CBF88B
:1033A0000000FFF773FFBBF80400022830D00820AC
:1033B0000543761CB6B2032EC7D3E8B2BDE8F09F32
:1033C00009EB0411002201F8042B01C18A1DFFF74B
:1033D0005DFF45F00205CFE7491C9142C4D3DBF8FD
:1033E000002059465AB109EB041102220A704860C4
:1033F0000A480A8120304480641CA4B205E00860B9
:103400000220ABF804004FF0010A45F00105D0E7B7
:103410000420CDE744220020DEC0ADDE7C2A00205F
:103420002022002002FEE10E70B5184D0E46044623
:1034300023CD86B08DE82300154DADF80420ADF8FE
:1034400002408DF80630A9782046FDF7FFF818B144
:103450003046FEF7ADFE0FE00721304600F0BAF926
:1034600050B1052808D109218DF80C100490ADF851
:103470000E4003A8FDF7B8FE002229782046FDF78C
:10348000F9F86846FDF7B0FE06B070BD7C5D02003D
:10349000C0210020F0B585B00746FDF7CBF8002825
:1034A00014D06846FCF7FAFF00246D460BE000BF1D
:1034B00005EB44063946B088FDF7C8F810B1B0886E
:1034C00001F0EEFE641C0098A042F1D805B0F0BDFA
:1034D00070B5054D06460024304655F8241088473F
:1034E000641C052CF8D370BD3C5D02003EB5104D48
:1034F000002400BF04EB840005EB800002F08EFA8C
:10350000641C082CF6D30124502008210094CDE936
:1035100001100949C200074B01F5207000F0A0FC22
:1035200008B103203EBD0348447000203EBD0000AA
:10353000AC270020A82100201C25002000F030BA74
:1035400000F030BA2DE9FF410026044600960196AE
:10355000029603964088ADF8020020798DF80400A9
:1035600037462179608802F030FA21783F4D0A29E8
:1035700047D2DFE801F005053319193537393F44E3
:1035800068B1417CC9070AD002F058FA8DF8007082
:103590002078012800D000208DF808001AE00120D2
:1035A0008DF80000A06823E078B18168A26891429C
:1035B0000BD1417CCA0708D06A6821F00101521C76
:1035C00041F004016A6041741BE002208DF80000A4
:1035D000E06803906846FFF77BFF12E003200BE0F2
:1035E000042002E0052007E006208DF80000E068D6
:1035F0000290EFE7012607208DF80000EAE7E06877
:1036000002906868002826D0194C002505EB850734
:1036100004EB8700417C4A0703D4C1F340013142E7
:103620001FD0817834F8270000F0E8F8C8B105EB26
:103630008501862834F82110ADF8021004EB8701CB
:1036400089788DF8041008D009218DF800100290B7
:103650006846FFF73DFFBDE8FF8108208DF80000B8
:10366000F6E76D1C082DD1D3F5E70000A821002056
:10367000AC27002000F04CBA002300F0C5B938B5E3
:1036800005460024204609E08178284600F0A2F88B
:1036900010B1052800D003240098401C0090694612
:1036A000284602F0A5F90028EED134B9284600F0EA
:1036B00033FA10B1072802D00324204638BD07246E
:1036C000FBE71346002200F0D3B900002DE9F047D4
:1036D0005FEA030815460E46824604D0072E05D041
:1036E000082E17D102E00E20BDE8F08795B1082D15
:1036F00010D8504600F01BFA60B14FF00009314677
:10370000504602F062F9041E25D0E068A84213D2A8
:103710004F460AE04FF00700E6E7207C3844C1B28C
:103720002B4800F0D1FB7F1CFFB2E068B842F4D810
:10373000204602F073F90EE017D9EFB207E0207CC3
:103740003844C1B2224800F0BFFB7F1CFFB2E068E2
:10375000B842F4D84CB95746FF214FF6FF7002F03B
:1037600034F9041E05D00780A670207CFF2802D003
:103770000CE01120B8E72946154800F043FB01464C
:1037800020462174FF2913D04FF00109E560217C08
:103790000F4800F085FB02000DD0ABB23146404629
:1037A00000F052FAB9F1000F10D0082E05D00DE04C
:1037B00002F034F9DDE7032096E7B8F800006FF077
:1037C000050101EB8000D8F80410888000208BE709
:1037D0009C27002070B5002402F0F7F805000BD0FC
:1037E000686820B100F0BCF9040000D0032428462A
:1037F00002F024F9204670BD052070BD7CB50D4651
:103800000646072903D0082D01D007207CBD0020E3
:10381000009001908DF802502946304602F0D5F80C
:10382000040004D0607CC00703D000207CBD0520CC
:103830007CBD217C204800F033FB020022D02946C9
:103840006846E36800F094F9684602F0ACF804F1C9
:10385000080369463046626800F00AF90146627C56
:103860001648530704D5930702D543685B1E43608F
:1038700051B111290DD0862915D0072900D0032177
:1038800008467CBD03207CBD22F0060040F001000C
:1038900010E04168491C416022F0020040F0040041
:1038A00060740021ECE743685B1C436022F0040075
:1038B00040F002006074E3E79C270020A82100206C
:1038C0007CB50D46072903D0082D01D007207CBD0B
:1038D000002602F07AF8040002D0606810B11CE003
:1038E00005207CBD217C0F4800F0DAFA02004FF081
:1038F0000000009001908DF8025010D029466846D3
:10390000E36800F035F9684602F04DF8211D68467D
:1039100000F00FF90646092801D030467CBD03208F
:103920007CBD00009C270020014909680847000071
:10393000385D020030B587B01748FDF7E3FD10B1E0
:10394000032007B030BDFDF727FD08B18620F8E75A
:1039500000F0CCF9002002904CF2070403900EE036
:10396000694604A8FDF79CFD00988088A0F54040BA
:1039700085B204A8FDF756FD284600F073F902AAA7
:1039800004A92046FDF773FD0028E9D00349012072
:1039900008700020D5E70000111202009C210020D1
:1039A00000F086B900F08AB970B5054686B01446B5
:1039B0000E4600F5404080B20E4A6946FDF757FDBD
:1039C00020B903A96846FDF76BFD10B1002006B0D1
:1039D00070BDA570039840882080049860600398AB
:1039E0008088A0F5404030806846FDF71BFD01202F
:1039F000EDE70000A0210020024800214160816025
:103A0000704700009C210020F0B587B01D46144689
:103A100007460E46FF280AD8084600F005F930B1DF
:103A200003AA3146384600F0E7F840B902E0072023
:103A300007B0F0BD01A903A8FDF732FD08B10520CC
:103A4000F6E7A67001984088208055B1820028686A
:103A5000904204D802996068FBF7EEFC03E0042072
:103A6000E6E70298606003A8FDF7DCFC0020DFE7D2
:103A70007FB588B01E460D460446FF282ED8A8788C
:103A800000F0D2F850B3686806902888ADF81C00A2
:103A900004F54040ADF80000A87803AA00F54040C6
:103AA000ADF8020006A801900120ADF80800A97841
:103AB000204600F0A1F8052812D00AA8FDF74EFD17
:103AC000694603A8FDF70CFDB8B107281ED00828E9
:103AD0001AD00E2818D003200CB070BD0720FBE7C9
:103AE0000A9828B10AAA694603A8FDF704FDEBE786
:103AF000694603A8FDF7FBFCE6E71EB1314603A8C3
:103B0000FDF7C5FC0020E7E71120E5E78620E3E7A5
:103B10004FF6FF7000F0A6B810B5FF2801D90720B6
:103B200010BD00F0A5F800F027F8002010BD00F04F
:103B3000F1B870B504460D46807800F075F858B1BC
:103B400021882846FDF7F0FC002804D0072805D07E
:103B5000092800D0032070BD072070BD862070BDED
:103B600001B56846FDF7FAFC002800D0032008BD27
:103B70009BB200F069B80000F0B589B000264FF69E
:103B8000FF7704963846059603E0204600F082F859
:103B9000204600F08DF80446B84208D004F54040B5
:103BA00080B204AA06A9FDF76AFC0A28EDD0114DDF
:103BB000A87800281AD1BC4218D0012704F540404B
:103BC000AF7080B2FDF7A0FB082811D000280DD0FF
:103BD000AE7009218DF80010CDE90260FF21ADF82B
:103BE00002408DF804106846FFF79EFE09B0F0BD54
:103BF0006F70FBE79C2100207CB5054616460C46FD
:103C0000084600F011F80020009005F540450190AD
:103C100004F54044A8B2A1B26B463246FDF720FC41
:103C2000002800D005207CBD07280BD0012809D032
:103C3000082807D0052805D0062803D0042801D07D
:103C4000002070470120704710B503EB83034FF647
:103C5000FF7404EA03138170DB1C99084260018041
:103C600010BD00000149FDF785B800004C28002078
:103C700010B50446A0F57F40FF3807D00449204620
:103C8000FDF778F8A04201D1012010BD002010BD41
:103C90006C28002010B50446044900F0F9FD0349E2
:103CA0002046BDE81040203100F0F2BD4C28002035
:103CB0000149FEF7A1BF00006C28002070B50A4939
:103CC000FEF79AFF04464FF6FF7507E000F02CF868
:103CD00038B105492046FEF78FFF0446AC42F5D1C6
:103CE00070BD204670BD00004C28002010B508486B
:103CF0004021FBF7BAFB4FF480742146044800F0E2
:103D0000D1F921460248BDE81040203000F0CAB980
:103D10004C280020FF2803D80146024800F0F1B9E2
:103D2000002070474C280020FF2803D80146024895
:103D300000F0E7B9002070476C28002010B50C4651
:103D4000FDF7A2FFFF2804D0024900EB400021F854
:103D5000204010BDAC2400201CB5044600F066F9DC
:103D600008B1FCF741F824B100F0BEFA08B1FCF745
:103D70003BF80020009001909DF8000020F07E00AC
:103D800040F00100303020F080008DF80000072066
:103D90008DF8010010208DF802009DF8030040F01E
:103DA00003008DF803009DF8040040F003008DF837
:103DB0000400684600F0CAFA08B1FCF715F8044898
:103DC00000F0AEFA002801D0FCF70EF81CBD000090
:103DD000FB3E02000449084490F93000082801DB4A
:103DE0000120704700207047EC2800200449084457
:103DF00090F93000082801D2012070470020704758
:103E0000EC2800202DE9F0410F46060026D030684E
:103E100020B3706810B3FF2400251CE029467068A9
:103E200000F047F948B1FF2C00D12C46281B401C5C
:103E3000B8420ED12046BDE8F081FF2C06D108E043
:103E40002146304600F040F8641CE4B2AC42F7D39F
:103E5000FF246D1CEDB2B068A842DFD8FF20EAE76E
:103E60002DE9F0410400DDE90705069E16D0A9B151
:103E7000A3B100FB05F7974210D8C21DB6EBD20FD5
:103E80000CD358B155B1E5602160C4E9013081B26D
:103E9000184600F007F90020BDE8F0810720FBE795
:103EA00070B504000D460DD0206858B1606848B167
:103EB000FF2D07D000F025F920B1E168206805FB4F
:103EC000010070BD002070BD70B504000D4611D01A
:103ED000206800280ED0606800280BD0FF2D09D084
:103EE00000F00FF9002805D029466068BDE8704051
:103EF00000F013B970BD00F0FFBF08B501780F29BD
:103F00000FD2DFE801F00E0E0E0E080F250E230E65
:103F1000251B250E1F000021009140886946FFF7F0
:103F2000EAFF08BDFDF716FA0E28FAD00828F8D0E7
:103F30000028F6D0BDE80840FBF756BF0320FCF789
:103F4000BDF9F5E7BDE8084000F0A2B80069EFE769
:103F50008068EDE770B586B0044614216846FBF72B
:103F600084FA6088ADF80400FEF776F8ADF8020038
:103F7000257800200822072105230A2D29D2DFE811
:103F800005F005050C0E1017192B1D208DF80900E2
:103F90008DF800108DF808201BE00D200BE00E209E
:103FA00009E08DF809008DF800108DF8083010E058
:103FB0000F2000E010208DF800000AE08DF800309E
:103FC00007E006208DF80000A0680290A088ADF8F8
:103FD00002006846FDF7F2F806B070BD10B5044661
:103FE000007886B0D8B1012817D10F496088012226
:103FF0004979FCF73FFB14216846FBF736FA6088E5
:10400000ADF802006088FEF7E7F8ADF80400002084
:104010008DF800006846FDF7D1F806B010BDE088C5
:1040200000F058F9F9E70000B021002070B5FFF763
:1040300081FC48BBFFF75AFA30BB00F069FF18BBA0
:1040400001F072F800BBFDF7C9FDE8B9FDF78AFE83
:10405000D0B9FEF717F8B8B90C4C4FF6FF70002531
:10406000E0801820A56020716071FCF7CDFA207106
:10407000182809D0FCF7C8FA6071182804D06570B8
:1040800001202070002070BD032070BDB0210020F1
:1040900003480078002801D0FDF7C4BD7047000038
:1040A000B0210020002803D0C91DC908FBF7DDB9E5
:1040B0007047002809D001F0070301229A40D2B2CC
:1040C00000EBD1001146FEF723BC70472DE9F0410B
:1040D0000D46060013D0002401270EE004F007006F
:1040E00007FA00F0C1B206EBD400FEF711FC10B1E4
:1040F0002046BDE8F081641CA4B2AC42EED3284651
:10410000F7E740B100EBD10001F007020078012190
:104110009140084000D001207047F8B50400C1F379
:10412000C70501F007014FF0010000FA01F0C6B227
:104130000FD0605D30420CD000208DF80000684642
:10414000FBF704FF605DB04360559DF80000FBF78E
:1041500021FFF8BD10B504460748007800280AD0B2
:104160002046FDF721FF204600F0BAFE2046BDE8BC
:104170001040FDF76FBC10BDB0210020F0B58BB032
:10418000044614216846FBF770F96088ADF8040016
:10419000FDF762FFADF80200237801200822072115
:1041A00000264B4D4FF6FF770A2B6CD2DFE803F069
:1041B0000510263C444E6C8D85878DF800102179C2
:1041C0008DF808108DF8096003968DF80A0079E0E3
:1041D0008DF8001021798DF808108DF80960A1681C
:1041E00003918DF80A00A86800286BD0A16881426D
:1041F00068D1AE60BDF80400E88013E08DF80020BF
:1042000020798DF808008DF80960A0680390E068B7
:104210000490A868B0B3A168814253D1AE60E86849
:10422000401EE86003964DE08DF8001021798DF86E
:1042300008108DF80900F5E78DF8002021798DF838
:1042400008108DF80900A06804903BE009208DF863
:104250000000A878B0B13846FFF772F9B84231D102
:104260003846FFF76BF9B8422CD1AE70142105A87F
:10427000FBF7FBF80B208DF81400ADF81870ADF8C3
:10428000167016E01EE020E00A208DF80000A068FD
:104290000290A878B0B1AE70142105A8FBF7E5F83C
:1042A0000C208DF81400ADF81870ADF81670A068E9
:1042B000079005A8FCF782FF04E0052000E0062037
:1042C0008DF800006846FCF779FF0BB0F0BD0000E8
:1042D000B02100200349097809B1FDF769BF082022
:1042E00070470000B021002070B50C48017829B15A
:1042F000012181704FF6FF75284607E0082070BD48
:10430000FFF7E8FF08B1032070BD2046FFF718F95A
:104310000446A842F4D1002070BD0000B021002066
:10432000084A117821B1D178032903D304207047BA
:1043300008207047044B43F82100491CD17000202D
:1043400070470000B02100208C2800200349097824
:1043500009B100F021BE082070470000B021002004
:104360002DE9F04385B00446012714216846FBF788
:104370007CF86088ADF80200504E94F800C000252B
:1043800007200322317973794FF00209BCF10D0F38
:1043900076D2DFE80CF0848F071A2D3E484D576423
:1043A0006A6C800001208DF80000207908B101229C
:1043B00000E00022012806D000256088FCF75AF9A9
:1043C00060882A4610E00125F7E78DF800902079F3
:1043D00008B1012000E002208DF808006088012269
:1043E000FCF748F9227960887179FCF743F957E0C6
:1043F0008DF8002060881946FCF728F908B10120E3
:1044000000E002208DF80800A0798DF80C00A0884B
:104410003EE06088FCF71AF900284BD18DF8009037
:104420008DF808503CE08DF800208DF80850EBE73F
:104430008DF80000A1888DF80800ADF804108DF803
:10444000095034E008218DF80010A1888DF808008B
:10445000ADF804108DF80950A068049027E00620FC
:104460008DF80000606802901AE0052014E08DF8D5
:10447000002060881946FCF7E9F810B1012001E03E
:104480000DE002208DF808008DF80C5041F201106B
:10449000ADF80A0004E004208DF8000000E00027D9
:1044A0006088FDF799FEADF80400002F02D0684641
:1044B000FCF784FE05B0BDE8F0830000B0210020C9
:1044C0000848416E491E416604D107490A7822F026
:1044D00002020A70016E491C0166042901D1002103
:1044E00001667047AC2A00202822002070B50C49D4
:1044F0000446486E042811D00A6E0244042A00D3F0
:10450000121F401C486602EB420001EBC00005464A
:104510001821FAF7AAFF0120256070BD002070BDA8
:10452000AC2A0020F0B52D4C002785B0216F41F654
:104530001D56C1EBC10104EB81052978072919D269
:10454000DFE801F0180408080C0C10002946FDF7FC
:1045500071FE09E0294601F019FB05E02946FCF748
:1045600003FD01E0FDF788F9002831D0B04202D107
:10457000019710E00F2001902878022801D003282D
:1045800009D11648AA7D7830016C11440164AA7DD6
:10459000416C891A416469462846FCF79BFD6846D0
:1045A000FCF7CEFD206F1C21C0EBC00004EB8000A7
:1045B000FAF75BFF606F68B194F87010491C01F066
:1045C0000301401EC4E91C1004D00020FFF7AAFF1D
:1045D00005B0F0BD0420FCF7EDFFF9E7BC29002091
:1045E000194830B4016E01EB410100EBC104406E8B
:1045F000002827D0207A012802D0022816D10FE007
:10460000A18AE08A4FF48062091A914200DA8AB2E4
:10461000E168236901EB800103EB800029DF01E001
:10462000A08928DF112806D000280BD0204630BCF6
:10463000092100F0F9BA0549087820F0020040F09D
:104640000400087030BC7047AC2A002028220020EB
:10465000064810B50078400707D40420FCF7C4FFD3
:10466000BDE810400020FFF75DBF10BD1022002004
:104670000549087810F0060F04D140F002000870D8
:10468000FFF7AEBF70470000282200202DE9F04759
:1046900007461E481C46154600780E46800702D481
:1046A0000220BDE8F08765B15CB1DFF864804FF0AF
:1046B0000009A088022827D208EB00100078F8B97A
:1046C00016E00520EDE720681FB181883A88914205
:1046D0000ED11EB101883288914209D180682860CC
:1046E000206868600A482030008928810020D8E7C7
:1046F000A088214600F05CF80028E4D1C4F80090BE
:10470000A088401CA080D4E70A20CAE7102200201D
:104710007C2A0020F8B505464068234F0C46002649
:1047200038B322490A68824223D84968814220D39B
:10473000FDF734FEE8B128893989884219D1D5E9D5
:1047400000018A68904214D10020A7F1200300BF25
:1047500003EB001252688A4205D202F580528A4267
:1047600001D9208011E0401C80B20228F0D3002043
:10477000F8BD268000960AE0009829688068884283
:1047800005D100986860388928810120F8BD20880B
:10479000694600F00DF80028EED12088401C80B258
:1047A00020800228E6D3E2E79C2A00204422002051
:1047B00070B50E460A68104901EB00151AB1508811
:1047C00002EB80040CE06C6808340AE02046FDF738
:1047D000A5FB10B10120346070BD608804EB80043B
:1047E0000C34686800F58050A04202D92068401C53
:1047F000ECD1002070BD00007C2A002008B500210B
:10480000009101460123044A0448FCF7C1FF002837
:1048100000D00E2008BD0000A45D0200442200204C
:1048200043F6FE71A0F54040884201D80120704750
:104830000020704738B5044613480025426C42B149
:10484000036C00EBC3055B1C03F00703521EC0E9B9
:10485000103200200090A08AAB8801EB80010B4849
:104860002A68FCF795FFA18AAA881144A182A17D3C
:10487000491E11F0FF01A17501D101212174002809
:1048800000D00E2038BD0000342A00204422002031
:104890000A46FF2803D801461046FFF73EBC704782
:1048A00070B5012670044FF0E0210025C1F88001A9
:1048B000084C4010C4F84803C4F8080366602F2071
:1048C000FEF7CAF9A660044C2F20A560FEF7C4F9D4
:1048D000A57070BD00100140F021002070B50546A4
:1048E000C87D0C4600284FF4847128460AD0FEF794
:1048F000C4FBD5F81805627EE1688854607E401CD0
:10490000607670BDFEF7B9FBD5F8180570BD1FB510
:1049100001238DF800308DF808100192D0E90012C3
:10492000684690471FBD000010B50446FBF7A6F887
:1049300040B1002C09DA04F00F0000F1E02090F8FB
:10494000140D06E042F2010010BD04F1E02090F8E1
:1049500000044109082914D299B1012911D0042970
:104960000FD005290DD00B480122816861B1610982
:1049700050F8213004F01F04A240134340F82130C6
:1049800005E042F2020010BD2046FAF792FE002038
:1049900010BD00008429002070B50028049D18D0A7
:1049A000002916D0002A14D05FF0000430F81460FB
:1049B0009E420FD100200123A34008E001EB000438
:1049C00026780DB11E4300E09E432670401C9042A5
:1049D000F4D370BD641C082CE8D370BD70B50546D7
:1049E00000242146284600F00AF808B1204670BD90
:1049F000641CA4B2082CF4D34FF6FF7070BD0122E2
:104A00008A40024201D0012070470020704730B434
:104A10000B4660B1002130F81140944204D130BC03
:104A200089B21846FFF7EBBF491C0829F3D330BC05
:104A3000002070472DE9F04186B080464FF000001D
:104A400017460D00009012D000246E46A1B23846E1
:104A5000FFF7D5FF40B1009935F8140006EB41018E
:104A600088800098401C0090641C082CEED314220F
:104A700069464046FAF7E0FC06B0BDE8F08108B5AB
:104A8000009313460122FFF787FF08BD2DE9F0418F
:104A900005460C3086B000278046FDF7ADFB064684
:104AA00028884FF6FF74ADF80600A64203D1288887
:104AB000FDF792FB0646A64212D004AA0721304613
:104AC000FEF7DAFD60B9059C94F844003434C00761
:104AD00005D1414604F11200FDF71AFB00B127464B
:104AE000002328881A46394686DF48B109210290FA
:104AF0008DF8041001A8FCF777FB06B0BDE8F08143
:104B000000245FB12888002100F07EF80094012283
:104B100028880023314600F04DF8EEE706208DF896
:104B2000040041F20600ADF808008DF80A4001A823
:104B3000FCF75AFB0094002328881A46EAE700286D
:104B400035D00278910701D411062FD4C2F3021197
:104B500004292BD8930703D5032901D1110625D5A4
:104B6000437881788B4221D8072B1FD310291DD879
:104B7000C1784B071AD40079430717D40B0715D413
:104B8000030713D4D2074FEAC17201D042B10FE03C
:104B900062B989070AD4C10708D1800706D407E0A3
:104BA000890705D4C10703D1800701D400207047CD
:104BB000012070472DE9F047124D88461F461646E2
:104BC00081462978089CFBF755FD8EB13A466978F5
:104BD0004846FBF74FFD2246A9784846FBF74AFDB9
:104BE000002C0CD041464846BDE8F047FDF7A5BA79
:104BF000002C04D04046BDE8F047FDF7D9BABDE827
:104C0000F0870000C02100203EB5064C1CCC8DE88A
:104C10001C00ADF802008DF804106846FCF7E4FAB9
:104C20003EBD0000585D02001FB5002200920192B7
:104C300002920392037A012B02D0022B13D107E0D8
:104C40008DF8002002690292828AADF80C200AE0F9
:104C500001228DF800208289C389D21AADF808207C
:104C60008289ADF80A20426801920068826868462D
:104C700090471FBDF0B5144D8BB0E878FBF7DAFC18
:104C800000281ED005A8FBF709FC142205A96846D8
:104C9000FAF7D2FB00246F4610E000BF07EB440692
:104CA000E978B088FBF7D2FC38B1B0882979FBF7F6
:104CB000CDFC10B9B08800F02BF8641C0098A0421D
:104CC000ECD80BB0F0BD0000802100207CB50E496F
:104CD0000E4C0022D1E90001CDE900016946A0880F
:104CE000FEF7EFFC4FF6FF7507E00846FEF728FCDD
:104CF000A08000226946FEF7E4FCA188A94201D009
:104D00001128F2D17CBD00001C5D02008C21002026
:104D1000FEB5064601250024FDF7EAF811281CD04F
:104D200005DC30B3062830D0082808D12DE0A0F5E6
:104D30004051023911D0A1F54071FF392CD0092121
:104D400002908DF80010ADF804603046FDF744FA8B
:104D5000ADF802006846FCF71DFA2A46104D3046B1
:104D6000E978FBF787FC224629793046FBF782FC7D
:104D7000FEBD05208DF8000001243046FDF72CFA19
:104D8000ADF80200ADF80460E4E700253046FDF719
:104D900023FAFCF7D9FFE0E73046FDF743FDDCE7F7
:104DA000802100202DE9F0410746806A144688469C
